:100000001E7AF5E8AA0F01009D0D000006072300E7
:10001000030B072150F50085030000004000001D80
:100020006200000100040D00FFFC00000000006FF2
:10003000000306090C0F1215181B1E21262B302851
:100040000000000000000008E7060000000000E8D3
:100050005E080000000000C8950D0000000000A828
:10006000551100000000009800000000000000A0F2
:10007000D1000000000000A886010000000000B0D0
:100080002B020000000000B8D0020000000000C0F9
:1000900075030000000000C8FE030000000000D04F
:1000A0007B040000000000D8F0040000000000E025
:1000B00069050000000000E8BE050000000000F037
:1000C0000B060000000000F85406000000000000CD
:1000D0009E060000000000D10000000000000001AA
:1000E0000101010101010101010101010101010100
:1000F00001010101010101010101010101010101F0
:1001000001010101010101010101010101010101DF
:1001100001010101010101010101010101010101CF
:1030D00001010101010101010101010101010100E1
:1030E00000000000000000000000000000000000E0
:1030F00000000000000000000000000000000000D0
:1031000000000000000000000000000000000000BF
:1031100000000000000000000000000000000000AF
:1034D00000000000000000000000000000000002EA
:1034E00002020202020202020202020202020202BC
:1034F00002020202020202020202020202020202AC
:10350000020202020202020202020202020202029B
:10351000020202020202020202020202020202028B
:1064D000020202020202020202020202020202009E
:1064E00000000000000000000000000000000000AC
:1064F000000000000000000000000000000000009C
:10650000000000000000000000000000000000008B
:10651000000000000000000000000000000000007B
:106AD00000000000000000000000000000000001B5
:106AE0000101010101010101010101010101010196
:106AF0000101010101010101010101010101010186
:106B00000101010101010101010101010101010175
:106B10000101010101010101010101010101010165
:109AD0000101010101010101010101010101010077
:109AE0000000000000000000000000000000000076
:109AF0000000000000000000000000000000000066
:109B00000000000000000000000000000000000055
:109B10000000000000000000000000000000000045
:109ED0000000000000000000000000000000000280
:109EE0000202020202020202020202020202020252
:109EF0000202020202020202020202020202020242
:109F00000202020202020202020202020202020231
:109F10000202020202020202020202020202020221
:10CED0000202020202020202020202020202020034
:10CEE0000000000000000000000000000000000042
:10CEF0000000000000000000000000000000000032
:10CF00000000000000000000000000000000000021
:10CF10000000000000000000000000000000000011
:10D1D000000000000000000000000000000000B59A
:10D1E0000000000000000001010101010101010136
:10D1F000010101010101010101010101010101011F
:10D20000010101010101010101010101010101010E
:10D2100001010101010101010101010101010101FE
:10D2200001010101010101010101010101010101EE
:10FAE000010101010101010000000000000000000F
:10FAF0000000000000000000000000000000000006
:10FB000000000000000000000000000000000000F5
:10FB100000000000000000000000000000000000E5
:10FB200000000000000000000000000000000000D5
:10FEE0000000000000000002020202020202020200
:10FEF00002020202020202020202020202020202E2
:10FF000002020202020202020202020202020202D1
:10FF100002020202020202020202020202020202C1
:10FF200002020202020202020202020202020202B1
:020000021000EC
:1027E00002020202020202000000000000000000DB
:1027F00000000000000000000000000000000000D9
:1028000000000000000000000000000000000000C8
:1028100000000000000000000000000000000000B8
:1028200000000000000000000000000000000000A8
:102DE00000000000000000010101010101010101DA
:102DF00001010101010101010101010101010101C3
:102E000001010101010101010101010101010101B2
:102E100001010101010101010101010101010101A2
:102E20000101010101010101010101010101010192
:1056E00001010101010101000000000000000000B3
:1056F00000000000000000000000000000000000AA
:105700000000000000000000000000000000000099
:105710000000000000000000000000000000000089
:105720000000000000000000000000000000000079
:105AE00000000000000000020202020202020202A4
:105AF0000202020202020202020202020202020286
:105B00000202020202020202020202020202020275
:105B10000202020202020202020202020202020265
:105B20000202020202020202020202020202020255
:1083E000020202020202020000000000000000007F
:1083F000000000000000000000000000000000007D
:10840000000000000000000000000000000000006C
:10841000000000000000000000000000000000005C
:10842000000000000000000000000000000000004C
:1086E00000000000000000A50000000000000001E4
:1086F000010101010101010101010101010101016A
:108700000101010101010101010101010101010159
:108710000101010101010101010101010101010149
:108720000101010101010101010101010101010139
:10ABE0000101010101010101010101010101010056
:10ABF0000000000000000000000000000000000055
:10AC00000000000000000000000000000000000044
:10AC10000000000000000000000000000000000034
:10AC20000000000000000000000000000000000024
:10AFE000000000000000000000000000000000025F
:10AFF0000202020202020202020202020202020231
:10B000000202020202020202020202020202020220
:10B010000202020202020202020202020202020210
:10B020000202020202020202020202020202020200
:10D4E000020202020202020202020202020202001E
:10D4F000000000000000000000000000000000002C
:10D50000000000000000000000000000000000001B
:10D51000000000000000000000000000000000000B
:10D5200000000000000000000000000000000000FB
:10DAE0000000000000000000000000000000000135
:10DAF0000101010101010101010101010101010116
:10DB00000101010101010101010101010101010105
:10DB100001010101010101010101010101010101F5
:10DB200001010101010101010101010101010101E5
:10FFE0000101010101010101010101010101010002
:10FFF0000000000000000000000000000000000001
:020000022000DC
:1000000000000000000000000000000000000000F0
:1000100000000000000000000000000000000000E0
:1000200000000000000000000000000000000000D0
:1003E000000000000000000000000000000000020B
:1003F00002020202020202020202020202020202DD
:1004000002020202020202020202020202020202CC
:1004100002020202020202020202020202020202BC
:1004200002020202020202020202020202020202AC
:1028E00002020202020202020202020202020200CA
:1028F00000000000000000000000000000000000D8
:1029000000000000000000000000000000000000C7
:1029100000000000000000000000000000000000B7
:1029200000000000000000000000000000000000A7
:102BE000000000000000000000000000000000A540
:102BF00000000000000000010101010101010101CC
:102C000001010101010101010101010101010101B4
:102C100001010101010101010101010101010101A4
:102C20000101010101010101010101010101010194
:102C30000101010101010101010101010101010184
:1050F00001010101010101000000000000000000A9
:10510000000000000000000000000000000000009F
:10511000000000000000000000000000000000008F
:10512000000000000000000000000000000000007F
:10513000000000000000000000000000000000006F
:1054F000000000000000000202020202020202029A
:10550000020202020202020202020202020202027B
:10551000020202020202020202020202020202026B
:10552000020202020202020202020202020202025B
:10553000020202020202020202020202020202024B
:1079F0000202020202020200000000000000000079
:107A00000000000000000000000000000000000076
:107A10000000000000000000000000000000000066
:107A20000000000000000000000000000000000056
:107A30000000000000000000000000000000000046
:107FF0000000000000000001010101010101010178
:108000000101010101010101010101010101010160
:108010000101010101010101010101010101010150
:108020000101010101010101010101010101010140
:108030000101010101010101010101010101010130
:10A4F0000101010101010100000000000000000055
:10A50000000000000000000000000000000000004B
:10A51000000000000000000000000000000000003B
:10A52000000000000000000000000000000000002B
:10A53000000000000000000000000000000000001B
:10A8F0000000000000000002020202020202020246
:10A900000202020202020202020202020202020227
:10A910000202020202020202020202020202020217
:10A920000202020202020202020202020202020207
:10A9300002020202020202020202020202020202F7
:10CDF0000202020202020200000000000000000025
:10CE00000000000000000000000000000000000022
:10CE10000000000000000000000000000000000012
:10CE20000000000000000000000000000000000002
:10CE300000000000000000000000000000000000F2
:10D0F00000000000000000A500000000000000018A
:10D10000010101010101010101010101010101010F
:10D1100001010101010101010101010101010101FF
:10D1200001010101010101010101010101010101EF
:10D1300001010101010101010101010101010101DF
:10EFF0000101010101010101010101010101010002
:10F000000000000000000000000000000000000000
:10F0100000000000000000000000000000000000F0
:10F0200000000000000000000000000000000000E0
:10F0300000000000000000000000000000000000D0
:10F3F000000000000000000000000000000000010C
:10F4000001010101010101010101010101010101EC
:10F4100001010101010101010101010101010101DC
:10F4200001010101010101010101010101010101CC
:10F4300001010101010101010101010101010101BC
:10F9F00001010101010101010101010101010102F6
:10FA000002020202020202020202020202020202D6
:10FA100002020202020202020202020202020202C6
:10FA200002020202020202020202020202020202B6
:10FA300002020202020202020202020202020202A6
:020000023000CC
:101EF00002020202020202020202020202020200C4
:101F000000000000000000000000000000000000D1
:101F100000000000000000000000000000000000C1
:101F200000000000000000000000000000000000B1
:101F300000000000000000000000000000000000A1
:1024F00000000000000000000000000000000001DB
:1025000001010101010101010101010101010101BB
:1025100001010101010101010101010101010101AB
:10252000010101010101010101010101010101019B
:10253000010101010101010101010101010101018B
:1043F00001010101010101010101010101010100AE
:1044000000000000000000000000000000000000AC
:10441000000000000000000000000000000000009C
:10442000000000000000000000000000000000008C
:10443000000000000000000000000000000000007C
:1047F00000000000000000000000000000000001B8
:104800000101010101010101010101010101010198
:104810000101010101010101010101010101010188
:104820000101010101010101010101010101010178
:104830000101010101010101010101010101010168
:104DF00001010101010101010101010101010102A2
:104E00000202020202020202020202020202020282
:104E10000202020202020202020202020202020272
:104E20000202020202020202020202020202020262
:104E30000202020202020202020202020202020252
:1072F0000202020202020202020202020202020070
:10730000000000000000000000000000000000007D
:10731000000000000000000000000000000000006D
:10732000000000000000000000000000000000005D
:10733000000000000000000000000000000000004D
:1075F0000000000000000000000000000000008902
:107600000000000000000001010101010101010171
:10761000010101010101010101010101010101015A
:10762000010101010101010101010101010101014A
:10763000010101010101010101010101010101013A
:10764000010101010101010101010101010101012A
:109100000101010101010100000000000000000058
:10911000000000000000000000000000000000004F
:10912000000000000000000000000000000000003F
:10913000000000000000000000000000000000002F
:10914000000000000000000000000000000000001F
:109500000000000000000001010101010101010152
:10951000010101010101010101010101010101013B
:10952000010101010101010101010101010101012B
:10953000010101010101010101010101010101011B
:10954000010101010101010101010101010101010B
:10980000010101010101010202020202020202023F
:109810000202020202020202020202020202020228
:109820000202020202020202020202020202020218
:109830000202020202020202020202020202020208
:1098400002020202020202020202020202020202F8
:10B60000020202020202020000000000000000002C
:10B61000000000000000000000000000000000002A
:10B62000000000000000000000000000000000001A
:10B63000000000000000000000000000000000000A
:10B6400000000000000000000000000000000000FA
:10BC0000000000000000000101010101010101012B
:10BC10000101010101010101010101010101010114
:10BC20000101010101010101010101010101010104
:10BC300001010101010101010101010101010101F4
:10BC400001010101010101010101010101010101E4
:10D700000101010101010100000000000000000012
:10D710000000000000000000000000000000000009
:10D7200000000000000000000000000000000000F9
:10D7300000000000000000000000000000000000E9
:10D7400000000000000000000000000000000000D9
:10DB0000000000000000000101010101010101010C
:10DB100001010101010101010101010101010101F5
:10DB200001010101010101010101010101010101E5
:10DB300001010101010101010101010101010101D5
:10DB400001010101010101010101010101010101C5
:10DE000001010101010101020202020202020202F9
:10DE100002020202020202020202020202020202E2
:10DE200002020202020202020202020202020202D2
:10DE300002020202020202020202020202020202C2
:10DE400002020202020202020202020202020202B2
:10FC000002020202020202000000000000000000E6
:10FC100000000000000000000000000000000000E4
:10FC200000000000000000000000000000000000D4
:10FC300000000000000000000000000000000000C4
:10FC400000000000000000000000000000000000B4
:10FF0000000000000000007D000000000000000173
:10FF100001010101010101010101010101010101D1
:10FF200001010101010101010101010101010101C1
:10FF300001010101010101010101010101010101B1
:10FF400001010101010101010101010101010101A1
:020000024000BC
:1017000001010101010101010101010101010100CA
:1017100000000000000000000000000000000000C9
:1017200000000000000000000000000000000000B9
:1017300000000000000000000000000000000000A9
:101740000000000000000000000000000000000099
:101B000000000000000000000000000000000001D4
:101B100001010101010101010101010101010101B5
:101B200001010101010101010101010101010101A5
:101B30000101010101010101010101010101010195
:101B40000101010101010101010101010101010185
:101E000001010101010101010101010101010102C1
:101E100002020202020202020202020202020202A2
:101E20000202020202020202020202020202020292
:101E30000202020202020202020202020202020282
:101E40000202020202020202020202020202020272
:103900000202020202020202020202020202020099
:1039100000000000000000000000000000000000A7
:103920000000000000000000000000000000000097
:103930000000000000000000000000000000000087
:103940000000000000000000000000000000000077
:103F000000000000000000000000000000000001B0
:103F10000101010101010101010101010101010191
:103F20000101010101010101010101010101010181
:103F30000101010101010101010101010101010171
:103F40000101010101010101010101010101010161
:10570000010101010101010101010101010101008A
:105710000000000000000000000000000000000089
:105720000000000000000000000000000000000079
:105730000000000000000000000000000000000069
:105740000000000000000000000000000000000059
:105B00000000000000000000000000000000000194
:105B10000101010101010101010101010101010175
:105B20000101010101010101010101010101010165
:105B30000101010101010101010101010101010155
:105B40000101010101010101010101010101010145
:105E00000101010101010101010101010101010281
:105E10000202020202020202020202020202020262
:105E20000202020202020202020202020202020252
:105E30000202020202020202020202020202020242
:105E40000202020202020202020202020202020232
:107900000202020202020202020202020202020059
:107910000000000000000000000000000000000067
:107920000000000000000000000000000000000057
:107930000000000000000000000000000000000047
:107940000000000000000000000000000000000037
:107C000000000000000000000000000000000075FF
:107C1000000000000000000101010101010101015B
:107C20000101010101010101010101010101010144
:107C30000101010101010101010101010101010134
:107C40000101010101010101010101010101010124
:107C50000101010101010101010101010101010114
:109210000101010101010100000000000000000047
:10922000000000000000000000000000000000003E
:10923000000000000000000000000000000000002E
:10924000000000000000000000000000000000001E
:10925000000000000000000000000000000000000E
:109610000000000000000001010101010101010141
:10962000010101010101010101010101010101012A
:10963000010101010101010101010101010101011A
:10964000010101010101010101010101010101010A
:1096500001010101010101010101010101010101FA
:10991000010101010101010202020202020202022E
:109920000202020202020202020202020202020217
:109930000202020202020202020202020202020207
:1099400002020202020202020202020202020202F7
:1099500002020202020202020202020202020202E7
:10B210000202020202020200000000000000000020
:10B22000000000000000000000000000000000001E
:10B23000000000000000000000000000000000000E
:10B2400000000000000000000000000000000000FE
:10B2500000000000000000000000000000000000EE
:10B81000000000000000000101010101010101011F
:10B820000101010101010101010101010101010108
:10B8300001010101010101010101010101010101F8
:10B8400001010101010101010101010101010101E8
:10B8500001010101010101010101010101010101D8
:10CE1000010101010101010000000000000000000B
:10CE20000000000000000000000000000000000002
:10CE300000000000000000000000000000000000F2
:10CE400000000000000000000000000000000000E2
:10CE500000000000000000000000000000000000D2
:10D210000000000000000001010101010101010105
:10D2200001010101010101010101010101010101EE
:10D2300001010101010101010101010101010101DE
:10D2400001010101010101010101010101010101CE
:10D2500001010101010101010101010101010101BE
:10D5100001010101010101020202020202020202F2
:10D5200002020202020202020202020202020202DB
:10D5300002020202020202020202020202020202CB
:10D5400002020202020202020202020202020202BB
:10D5500002020202020202020202020202020202AB
:10EE100002020202020202000000000000000000E4
:10EE200000000000000000000000000000000000E2
:10EE300000000000000000000000000000000000D2
:10EE400000000000000000000000000000000000C2
:10EE500000000000000000000000000000000000B2
:10F110000000000000000079000000000000000175
:10F1200001010101010101010101010101010101CF
:10F1300001010101010101010101010101010101BF
:10F1400001010101010101010101010101010101AF
:10F15000010101010101010101010101010101019F
:020000025000AC
:1005100001010101010101010101010101010100CC
:1005200000000000000000000000000000000000CB
:1005300000000000000000000000000000000000BB
:1005400000000000000000000000000000000000AB
:10055000000000000000000000000000000000009B
:1009100000000000000000000000000000000001D6
:1009200001010101010101010101010101010101B7
:1009300001010101010101010101010101010101A7
:100940000101010101010101010101010101010197
:100950000101010101010101010101010101010187
:100F100001010101010101010101010101010102C0
:100F200002020202020202020202020202020202A1
:100F30000202020202020202020202020202020291
:100F40000202020202020202020202020202020281
:100F50000202020202020202020202020202020271
:102910000202020202020202020202020202020099
:1029200000000000000000000000000000000000A7
:102930000000000000000000000000000000000097
:102940000000000000000000000000000000000087
:102950000000000000000000000000000000000077
:102F100000000000000000000000000000000001B0
:102F20000101010101010101010101010101010191
:102F30000101010101010101010101010101010181
:102F40000101010101010101010101010101010171
:102F50000101010101010101010101010101010161
:10431000010101010101010101010101010101008E
:10432000000000000000000000000000000000008D
:10433000000000000000000000000000000000007D
:10434000000000000000000000000000000000006D
:10435000000000000000000000000000000000005D
:104710000000000000000000000000000000000198
:104720000101010101010101010101010101010179
:104730000101010101010101010101010101010169
:104740000101010101010101010101010101010159
:104750000101010101010101010101010101010149
:104D10000101010101010101010101010101010282
:104D20000202020202020202020202020202020263
:104D30000202020202020202020202020202020253
:104D40000202020202020202020202020202020243
:104D50000202020202020202020202020202020233
:10671000020202020202020202020202020202005B
:106720000000000000000000000000000000000069
:106730000000000000000000000000000000000059
:106740000000000000000000000000000000000049
:106750000000000000000000000000000000000039
:106A10000000000000000000000000000000005521
:106A2000000000000000000101010101010101015D
:106A30000101010101010101010101010101010146
:106A40000101010101010101010101010101010136
:106A50000101010101010101010101010101010126
:106A60000101010101010101010101010101010116
:107B2000010101010101010000000000000000004E
:107B30000000000000000000000000000000000045
:107B40000000000000000000000000000000000035
:107B50000000000000000000000000000000000025
:107B60000000000000000000000000000000000015
:107F2000000000000000000202020202020202023F
:107F30000202020202020202020202020202020221
:107F40000202020202020202020202020202020211
:107F50000202020202020202020202020202020201
:107F600002020202020202020202020202020202F1
:109020000202020202020200000000000000000032
:109030000000000000000000000000000000000030
:109040000000000000000000000000000000000020
:109050000000000000000000000000000000000010
:109060000000000000000000000000000000000000
:109620000000000000000001010101010101010131
:10963000010101010101010101010101010101011A
:10964000010101010101010101010101010101010A
:1096500001010101010101010101010101010101FA
:1096600001010101010101010101010101010101EA
:10A720000101010101010100000000000000000022
:10A730000000000000000000000000000000000019
:10A740000000000000000000000000000000000009
:10A7500000000000000000000000000000000000F9
:10A7600000000000000000000000000000000000E9
:10AB20000000000000000002020202020202020213
:10AB300002020202020202020202020202020202F5
:10AB400002020202020202020202020202020202E5
:10AB500002020202020202020202020202020202D5
:10AB600002020202020202020202020202020202C5
:10BC20000202020202020200000000000000000006
:10BC30000000000000000000000000000000000004
:10BC400000000000000000000000000000000000F4
:10BC500000000000000000000000000000000000E4
:10BC600000000000000000000000000000000000D4
:10BF2000000000000000004D0000000000000001C3
:10BF300001010101010101010101010101010101F1
:10BF400001010101010101010101010101010101E1
:10BF500001010101010101010101010101010101D1
:10BF600001010101010101010101010101010101C1
:10CE200001010101010101010101010101010100F3
:10CE300000000000000000000000000000000000F2
:10CE400000000000000000000000000000000000E2
:10CE500000000000000000000000000000000000D2
:10CE600000000000000000000000000000000000C2
:10D2200000000000000000000000000000000002FC
:10D2300002020202020202020202020202020202CE
:10D2400002020202020202020202020202020202BE
:10D2500002020202020202020202020202020202AE
:10D26000020202020202020202020202020202029E
:10E1200002020202020202020202020202020200D1
:10E1300000000000000000000000000000000000DF
:10E1400000000000000000000000000000000000CF
:10E1500000000000000000000000000000000000BF
:10E1600000000000000000000000000000000000AF
:10E7200000000000000000000000000000000001E8
:10E7300001010101010101010101010101010101C9
:10E7400001010101010101010101010101010101B9
:10E7500001010101010101010101010101010101A9
:10E760000101010101010101010101010101010199
:10F6200001010101010101010101010101010100CB
:10F6300000000000000000000000000000000000CA
:10F6400000000000000000000000000000000000BA
:10F6500000000000000000000000000000000000AA
:10F66000000000000000000000000000000000009A
:10FA200000000000000000000000000000000002D4
:10FA300002020202020202020202020202020202A6
:10FA40000202020202020202020202020202020296
:10FA50000202020202020202020202020202020286
:10FA60000202020202020202020202020202020276
:0200000260009C
:1009200002020202020202020202020202020200A9
:1009300000000000000000000000000000000000B7
:1009400000000000000000000000000000000000A7
:100950000000000000000000000000000000000097
:100960000000000000000000000000000000000087
:100C2000000000000000000000000000000000497B
:100C300000000000000000010101010101010101AB
:100C40000101010101010101010101010101010194
:100C50000101010101010101010101010101010184
:100C60000101010101010101010101010101010174
:100C70000101010101010101010101010101010164
:101A3000010101010101010000000000000000009F
:101A40000000000000000000000000000000000096
:101A50000000000000000000000000000000000086
:101A60000000000000000000000000000000000076
:101A70000000000000000000000000000000000066
:101E30000000000000000002020202020202020290
:101E40000202020202020202020202020202020272
:101E50000202020202020202020202020202020262
:101E60000202020202020202020202020202020252
:101E70000202020202020202020202020202020242
:102C30000202020202020200000000000000000086
:102C40000000000000000000000000000000000084
:102C50000000000000000000000000000000000074
:102C60000000000000000000000000000000000064
:102C70000000000000000000000000000000000054
:103230000000000000000001010101010101010185
:10324000010101010101010101010101010101016E
:10325000010101010101010101010101010101015E
:10326000010101010101010101010101010101014E
:10327000010101010101010101010101010101013E
:104030000101010101010100000000000000000079
:104040000000000000000000000000000000000070
:104050000000000000000000000000000000000060
:104060000000000000000000000000000000000050
:104070000000000000000000000000000000000040
:10443000000000000000000202020202020202026A
:10444000020202020202020202020202020202024C
:10445000020202020202020202020202020202023C
:10446000020202020202020202020202020202022C
:10447000020202020202020202020202020202021C
:105230000202020202020200000000000000000060
:10524000000000000000000000000000000000005E
:10525000000000000000000000000000000000004E
:10526000000000000000000000000000000000003E
:10527000000000000000000000000000000000002E
:105530000000000000000049000000000000000121
:10554000010101010101010101010101010101014B
:10555000010101010101010101010101010101013B
:10556000010101010101010101010101010101012B
:10557000010101010101010101010101010101011B
:10633000010101010101010101010101010101004E
:10634000000000000000000000000000000000004D
:10635000000000000000000000000000000000003D
:10636000000000000000000000000000000000002D
:10637000000000000000000000000000000000001D
:106730000000000000000000000000000000000257
:106740000202020202020202020202020202020229
:106750000202020202020202020202020202020219
:106760000202020202020202020202020202020209
:1067700002020202020202020202020202020202F9
:10753000020202020202020202020202020202002D
:10754000000000000000000000000000000000003B
:10755000000000000000000000000000000000002B
:10756000000000000000000000000000000000001B
:10757000000000000000000000000000000000000B
:107B30000000000000000000000000000000000144
:107B40000101010101010101010101010101010125
:107B50000101010101010101010101010101010115
:107B60000101010101010101010101010101010105
:107B700001010101010101010101010101010101F5
:108930000101010101010101010101010101010028
:108940000000000000000000000000000000000027
:108950000000000000000000000000000000000017
:108960000000000000000000000000000000000007
:1089700000000000000000000000000000000000F7
:108D30000000000000000000000000000000000231
:108D40000202020202020202020202020202020203
:108D500002020202020202020202020202020202F3
:108D600002020202020202020202020202020202E3
:108D700002020202020202020202020202020202D3
:109B30000202020202020202020202020202020007
:109B40000000000000000000000000000000000015
:109B50000000000000000000000000000000000005
:109B600000000000000000000000000000000000F5
:109B700000000000000000000000000000000000E5
:109E300000000000000000000000000000000049D9
:109E40000000000000000001010101010101010109
:109E500001010101010101010101010101010101F2
:109E600001010101010101010101010101010101E2
:109E700001010101010101010101010101010101D2
:109E800001010101010101010101010101010101C2
:10AC400001010101010101000000000000000000FD
:10AC500000000000000000000000000000000000F4
:10AC600000000000000000000000000000000000E4
:10AC700000000000000000000000000000000000D4
:10AC800000000000000000000000000000000000C4
:10B0400000000000000000020202020202020202EE
:10B0500002020202020202020202020202020202D0
:10B0600002020202020202020202020202020202C0
:10B0700002020202020202020202020202020202B0
:10B0800002020202020202020202020202020202A0
:10BE400002020202020202000000000000000000E4
:10BE500000000000000000000000000000000000E2
:10BE600000000000000000000000000000000000D2
:10BE700000000000000000000000000000000000C2
:10BE800000000000000000000000000000000000B2
:10C4400000000000000000010101010101010101E3
:10C4500001010101010101010101010101010101CC
:10C4600001010101010101010101010101010101BC
:10C4700001010101010101010101010101010101AC
:10C48000010101010101010101010101010101019C
:10D2400001010101010101000000000000000000D7
:10D2500000000000000000000000000000000000CE
:10D2600000000000000000000000000000000000BE
:10D2700000000000000000000000000000000000AE
:10D28000000000000000000000000000000000009E
:10D6400000000000000000020202020202020202C8
:10D6500002020202020202020202020202020202AA
:10D66000020202020202020202020202020202029A
:10D67000020202020202020202020202020202028A
:10D68000020202020202020202020202020202027A
:10E4400002020202020202000000000000000000BE
:10E4500000000000000000000000000000000000BC
:10E4600000000000000000000000000000000000AC
:10E47000000000000000000000000000000000009C
:10E48000000000000000000000000000000000008C
:10E740000000000000000078E706000000000080E4
:10E750001807000000000088420700000000009039
:10E7600068070000000000988E070000000000A06D
:10E77000AE070000000000A8CA070000000000B0BB
:10E78000E3070000000000B8FA070000000000C026
:10E790000F080000000000C821080000000000D0A1
:10E7A00031080000000000D840080000000000E030
:10E7B0004F080000000000310000000000000000D1
:10E7C0000000000000000000000000000000010048
:10E7D0000000000000000000000000000000000039
:10E7E0000000000000000000000000000000000029
:10E7F0000000000000000000000000000000000019
:10E800000000000000000000000000000000000008
:10E8100000000000000000000000000000000000F8
:10E8200000000000000000000000000000000000E8
:10E8300000000000000000000000000000000000D8
:10E8400000000000000000000000000000000000C8
:10E8500000000000000000000000000000000000B8
:10E8600000000000000000000000000000000000A8
:10E870000000000000000000000000000000000098
:10E880000000000000000000000000000000000088
:10E890000000000000000000000000000000000078
:10E8A0000000000000000000000000000000000266
:10E8B0000000000000000000000000000000000058
:10E8C0000000000000000000000000000000010047
:10E8D0000000000000000000000000000000000038
:10E8E0000000000000000000000000000000000028
:10E8F0000000000000000000000000000000000018
:10E900000000000000000000000000000000000007
:10E9100000000000000000000000000000000000F7
:10E9200000000000000000000000000000000000E7
:10E9300000000000000000000000000000000000D7
:10E9400000000000000000000000000000000000C7
:10E9500000000000000000000000000000000000B7
:10E9600000000000000000000000000000000000A7
:10E970000000000000000000000000000000000097
:10E980000000000000000000000000000000000087
:10E990000000000000000000000000000000000077
:10E9A0000000000000000000000000000000000265
:10E9B0000000000000000000000000000000000057
:10E9C0000000000000000000000000000000010046
:10E9D0000000000000000000000000000000000037
:10E9E0000000000000000000000000000000000027
:10E9F0000000000000000000000000000000000017
:10EA00000000000000000000000000000000000006
:10EA100000000000000000000000000000000000F6
:10EA200000000000000000000000000000000000E6
:10EA300000000000000000000000000000000000D6
:10EA400000000000000000000000000000000000C6
:10EA500000000000000000000000000000000000B6
:10EA600000000000000000000000000000000000A6
:10EA70000000000000000000000000000000000096
:10EA80000000000000000000000000000000000086
:10EA90000000000000000000000000000000000076
:10EAA0000000000000000000000000000000000264
:10EAB0000000000000000000000000000000000056
:10EAC0000000000000000000000000000000010045
:10EAD0000000000000000000000000000000000036
:10EAE0000000000000000000000000000000000026
:10EAF0000000000000000000000000000000000016
:10EB00000000000000000000000000000000000005
:10EB100000000000000000000000000000000000F5
:10EB200000000000000000000000000000000000E5
:10EB300000000000000000000000000000000000D5
:10EB400000000000000000000000000000000000C5
:10EB500000000000000000000000000000000000B5
:10EB600000000000000000000000000000000000A5
:10EB70000000000000000000000000000000000095
:10EB80000000000000000000000000000000000085
:10EB90000000000000000000000000000000000075
:10EBA0000000000000000000000000000000000263
:10EBB0000200000000000000000000000000000053
:10EBC0000000000000000000000000000000010044
:10EBD0000000000000000000000000000000000035
:10EBE0000000000000000000000000000000000025
:10EBF0000000000000000000000000000000000015
:10EC00000000000000000000000000000000000004
:10EC100000000000000000000000000000000000F4
:10EC200000000000000000000000000000000000E4
:10EC300000000000000000000000000000000000D4
:10EC400000000000000000000000000000000000C4
:10EC500000000000000000000000000000000000B4
:10EC600000000000000000000000000000000000A4
:10EC70000000000000000000000000000000000094
:10EC80000000000000000000000000000000000084
:10EC90000000000000000000000000000000000074
:10ECA0000000000000000000000000000000000262
:10ECB0000200000000000000000000000000000052
:10ECC0000000000000000000000000000001010042
:10ECD0000000000000000000000000000000000034
:10ECE0000000000000000000000000000000000024
:10ECF0000000000000000000000000000000000014
:10ED00000000000000000000000000000000000003
:10ED100000000000000000000000000000000000F3
:10ED200000000000000000000000000000000000E3
:10ED300000000000000000000000000000000000D3
:10ED400000000000000000000000000000000000C3
:10ED500000000000000000000000000000000000B3
:10ED600000000000000000000000000000000000A3
:10ED70000000000000000000000000000000000093
:10ED80000000000000000000000000000000000083
:10ED90000000000000000000000000000000000073
:10EDA0000000000000000000000000000000000261
:10EDB0000200000000000000000000000000000051
:10EDC0000000000000000000000000000001010041
:10EDD0000000000000000000000000000000000033
:10EDE0000000000000000000000000000000000023
:10EDF0000000000000000000000000000000000013
:10EE00000000000000000000000000000000000002
:10EE100000000000000000000000000000000000F2
:10EE200000000000000000000000000000000000E2
:10EE300000000000000000000000000000000000D2
:10EE400000000000000000000000000000000000C2
:10EE500000000000000000000000000000000000B2
:10EE600000000000000000000000000000000000A2
:10EE70000000000000000000000000000000000092
:10EE80000000000000000000000000000000000082
:10EE90000000000000000000000000000000000072
:10EEA0000000000000000000000000000000000260
:10EEB0000200000000000000000000000000000050
:10EEC0000000000000000000000000000001010040
:10EED0000000000000000000000000000000000032
:10EEE0000000000000000000000000000000000022
:10EEF0000000000000000000000000000000000012
:10EF00000000000000000000000000000000000001
:10EF100000000000000000000000000000000000F1
:10EF200000000000000000000000000000000000E1
:10EF300000000000000000000000000000000000D1
:10EF400000000000000000000000000000000000C1
:10EF500000000000000000000000000000000000B1
:10EF600000000000000000000000000000000000A1
:10EF70000000000000000000000000000000000091
:10EF80000000000000000000000000000000000081
:10EF90000000000000000000000000000000000071
:10EFA000000000000000000000000000000000025F
:10EFB000020000000000000000000000000000004F
:10EFC000000000000000000000000000000101003F
:10EFD0000000000000000000000000000000000031
:10EFE0000000000000000000000000000000000021
:10EFF0000000000000000000000000000000000011
:10F000000000000000000000000000000000000000
:10F0100000000000000000000000000000000000F0
:10F0200000000000000000000000000000000000E0
:10F0300000000000000000000000000000000000D0
:10F0400000000000000000000000000000000000C0
:10F0500000000000000000000000000000000000B0
:10F0600000000000000000000000000000000000A0
:10F070000000000000000000000000000000000090
:10F080000000000000000000000000000000000080
:10F090000000000000000000000000000000000070
:10F0A000000000000000000000000000000000025E
:10F0B000020200000000000000000000000000004C
:10F0C000000000000000000000000000000101003E
:10F0D0000000000000000000000000000000000030
:10F0E0000000000000000000000000000000000020
:10F0F0000000000000000000000000000000000010
:10F1000000000000000000000000000000000000FF
:10F1100000000000000000000000000000000000EF
:10F1200000000000000000000000000000000000DF
:10F1300000000000000000000000000000000000CF
:10F1400000000000000000000000000000000000BF
:10F1500000000000000000000000000000000000AF
:10F16000000000000000000000000000000000009F
:10F17000000000000000000000000000000000008F
:10F18000000000000000000000000000000000007F
:10F19000000000000000000000000000000000006F
:10F1A000000000000000000000000000000000025D
:10F1B000020200000000000000000000000000004B
:10F1C000000000000000000000000000000101003D
:10F1D000000000000000000000000000000000002F
:10F1E000000000000000000000000000000000001F
:10F1F000000000000000000000000000000000000F
:10F2000000000000000000000000000000000000FE
:10F2100000000000000000000000000000000000EE
:10F2200000000000000000000000000000000000DE
:10F2300000000000000000000000000000000000CE
:10F2400000000000000000000000000000000000BE
:10F2500000000000000000000000000000000000AE
:10F26000000000000000000000000000000000009E
:10F27000000000000000000000000000000000008E
:10F28000000000000000000000000000000000007E
:10F29000000000000000000000000000000000006E
:10F2A000000000000000000000000000000000025C
:10F2B000020200000000000000000000000000004A
:10F2C000000000000000000000000000000101003C
:10F2D000000000000000000000000000000000002E
:10F2E000000000000000000000000000000000001E
:10F2F000000000000000000000000000000000000E
:10F3000000000000000000000000000000000000FD
:10F3100000000000000000000000000000000000ED
:10F3200000000000000000000000000000000000DD
:10F3300000000000000000000000000000000000CD
:10F3400000000000000000000000000000000000BD
:10F3500000000000000000000000000000000000AD
:10F36000000000000000000000000000000000009D
:10F37000000000000000000000000000000000008D
:10F38000000000000000000000000000000000007D
:10F39000000000000000000000000000000000006D
:10F3A000000000000000000000000000000000025B
:10F3B0000202000000000000000000000000000049
:10F3C000000000000000000000000000010101003A
:10F3D000000000000000000000000000000000002D
:10F3E000000000000000000000000000000000001D
:10F3F000000000000000000000000000000000000D
:10F4000000000000000000000000000000000000FC
:10F4100000000000000000000000000000000000EC
:10F4200000000000000000000000000000000000DC
:10F4300000000000000000000000000000000000CC
:10F4400000000000000000000000000000000000BC
:10F4500000000000000000000000000000000000AC
:10F46000000000000000000000000000000000009C
:10F47000000000000000000000000000000000008C
:10F48000000000000000000000000000000000007C
:10F49000000000000000000000000000000000006C
:10F4A000000000000000000000000000000000025A
:10F4B0000202000000000000000000000000000048
:10F4C0000000000000000000000000000101010039
:10F4D000000000000000000000000000000000002C
:10F4E000000000000000000000000000000000001C
:10F4F000000000000000000000000000000000000C
:10F5000000000000000000000000000000000000FB
:10F5100000000000000000000000000000000000EB
:10F5200000000000000000000000000000000000DB
:10F5300000000000000000000000000000000000CB
:10F5400000000000000000000000000000000000BB
:10F5500000000000000000000000000000000000AB
:10F56000000000000000000000000000000000009B
:10F57000000000000000000000000000000000008B
:10F58000000000000000000000000000000000007B
:10F59000000000000000000000000000000000006B
:10F5A0000000000000000000000000000000000259
:10F5B0000202020000000000000000000000000045
:10F5C0000000000000000000000000010101010037
:10F5D000000000000000000000000000000000002B
:10F5E000000000000000000000000000000000001B
:10F5F000000000000000000000000000000000000B
:10F6000000000000000000000000000000000000FA
:10F6100000000000000000000000000000000000EA
:10F6200000000000000000000000000000000000DA
:10F6300000000000000000000000000000000000CA
:10F6400000000000000000000000000000000000BA
:10F6500000000000000000000000000000000000AA
:10F66000000000000000000000000000000000009A
:10F67000000000000000000000000000000000008A
:10F68000000000000000000000000000000000007A
:10F69000000000000000000000000000000000006A
:10F6A0000000000000000000000000000000000258
:10F6B0000202020000000000000000000000000044
:10F6C0000000000000000000000000010101010036
:10F6D000000000000000000000000000000000002A
:10F6E000000000000000000000000000000000001A
:10F6F000000000000000000000000000000000000A
:10F7000000000000000000000000000000000000F9
:10F7100000000000000000000000000000000000E9
:10F7200000000000000000000000000000000000D9
:10F7300000000000000000000000000000000000C9
:10F7400000000000000000000000000000000000B9
:10F7500000000000000000000000000000000000A9
:10F760000000000000000000000000000000000099
:10F770000000000000000000000000000000000089
:10F780000000000000000000000000000000000079
:10F790000000000000000000000000000000000069
:10F7A0000000000000000000000000000000000257
:10F7B0000202020000000000000000000000000043
:10F7C0000000000000000000000000010101010035
:10F7D0000000000000000000000000000000000029
:10F7E0000000000000000000000000000000000019
:10F7F0000000000000000000000000000000000009
:10F8000000000000000000000000000000000000F8
:10F8100000000000000000000000000000000000E8
:10F8200000000000000000000000000000000000D8
:10F8300000000000000000000000000000000000C8
:10F8400000000000000000000000000000000000B8
:10F8500000000000000000000000000000000000A8
:10F860000000000000000000000000000000000098
:10F870000000000000000000000000000000000088
:10F880000000000000000000000000000000000078
:10F890000000000000000000000000000000000068
:10F8A0000000000000000000000000000000000256
:10F8B0000202020000000000000000000000000042
:10F8C0000000000000000000000101010101010032
:10F8D0000000000000000000000000000000000028
:10F8E0000000000000000000000000000000000018
:10F8F0000000000000000000000000000000000008
:10F9000000000000000000000000000000000000F7
:10F9100000000000000000000000000000000000E7
:10F9200000000000000000000000000000000000D7
:10F9300000000000000000000000000000000000C7
:10F9400000000000000000000000000000000000B7
:10F9500000000000000000000000000000000000A7
:10F960000000000000000000000000000000000097
:10F970000000000000000000000000000000000087
:10F980000000000000000000000000000000000077
:10F990000000000000000000000000000000000067
:10F9A0000000000000000000000000000000000255
:10F9B000020202020000000000000000000000003F
:10F9C0000000000000000000000101010101010031
:10F9D0000000000000000000000000000000000027
:10F9E0000000000000000000000000000000000017
:10F9F0000000000000000000000000000000000007
:10FA000000000000000000000000000000000000F6
:10FA100000000000000000000000000000000000E6
:10FA200000000000000000000000000000000000D6
:10FA300000000000000000000000000000000000C6
:10FA400000000000000000000000000000000000B6
:10FA500000000000000000000000000000000000A6
:10FA60000000000000000000000000000000000096
:10FA70000000000000000000000000000000000086
:10FA80000000000000000000000000000000000076
:10FA90000000000000000000000000000000000066
:10FAA0000000000000000000000000000000000254
:10FAB000020202020200000000000000000000003C
:10FAC0000000000000000000000101010101010030
:10FAD0000000000000000000000000000000000026
:10FAE0000000000000000000000000000000000016
:10FAF0000000000000000000000000000000000006
:10FB000000000000000000000000000000000000F5
:10FB100000000000000000000000000000000000E5
:10FB200000000000000000000000000000000000D5
:10FB300000000000000000000000000000000000C5
:10FB400000000000000000000000000000000000B5
:10FB500000000000000000000000000000000000A5
:10FB60000000000000000000000000000000000095
:10FB70000000000000000000000000000000000085
:10FB80000000000000000000000000000000000075
:10FB90000000000000000000000000000000000065
:10FBA0000000000000000000000000000000000253
:10FBB000020202020200000000000000000000003B
:10FBC000000000000000000001010101010101002E
:10FBD0000000000000000000000000000000000025
:10FBE0000000000000000000000000000000000015
:10FBF0000000000000000000000000000000000005
:10FC000000000000000000000000000000000000F4
:10FC100000000000000000000000000000000000E4
:10FC200000000000000000000000000000000000D4
:10FC300000000000000000000000000000000000C4
:10FC400000000000000000000000000000000000B4
:10FC500000000000000000000000000000000000A4
:10FC60000000000000000000000000000000000094
:10FC70000000000000000000000000000000000084
:10FC80000000000000000000000000000000000074
:10FC90000000000000000000000000000000000064
:10FCA0000000000000000000000000000000000252
:10FCB000020202020200000000000000000000003A
:10FCC000000000000000000001010101010101002D
:10FCD0000000000000000000000000000000000024
:10FCE0000000000000000000000000000000000014
:10FCF0000000000000000000000000000000000004
:10FD000000000000000000000000000000000000F3
:10FD100000000000000000000000000000000000E3
:10FD200000000000000000000000000000000000D3
:10FD300000000000000000000000000000000000C3
:10FD400000000000000000000000000000000000B3
:10FD500000000000000000000000000000000000A3
:10FD60000000000000000000000000000000000093
:10FD70000000000000000000000000000000000083
:10FD80000000000000000000000000000000000073
:10FD90000000000000000000000000000000000063
:10FDA0000000000000000000000000000000000251
:10FDB0000202020202020000000000000000000037
:10FDC000000000000000000001010101010101002C
:10FDD0000000000000000000000000000000000023
:10FDE0000000000000000000000000000000000013
:10FDF0000000000000000000000000000000000003
:10FE000000000000000000000000000000000000F2
:10FE100000000000000000000000000000000000E2
:10FE200000000000000000000000000000000000D2
:10FE300000000000000000000000000000000000C2
:10FE400000000000000000000000000000000000B2
:10FE500000000000000000000000000000000000A2
:10FE60000000000000000000000000000000000092
:10FE70000000000000000000000000000000000082
:10FE80000000000000000000000000000000000072
:10FE90000000000000000000000000000000000062
:10FEA0000000000000000000000000000000000250
:10FEB0000202020202020000000000000000000036
:10FEC000000000000000000101010101010101002A
:10FED0000000000000000000000000000000000022
:10FEE0000000000000000000000000000000000012
:10FEF0000000000000000000000000000000000002
:10FF000000000000000000000000000000000000F1
:10FF100000000000000000000000000000000000E1
:10FF200000000000000000000000000000000000D1
:10FF300000000000000000000000000000000000C1
:10FF400000000000000000000000000000000000B1
:10FF500000000000000000000000000000000000A1
:10FF60000000000000000000000000000000000091
:10FF70000000000000000000000000000000000081
:10FF80000000000000000000000000000000000071
:10FF90000000000000000000000000000000000061
:10FFA000000000000000000000000000000000024F
:10FFB0000202020202020200000000000000000033
:10FFC0000000000000000001010101010101010029
:10FFD0000000000000000000000000000000000021
:10FFE0000000000000000000000000000000000011
:10FFF0000000000000000000000000000000000001
:0200000270008C
:1000000000000000000000000000000000000000F0
:1000100000000000000000000000000000000000E0
:1000200000000000000000000000000000000000D0
:1000300000000000000000000000000000000000C0
:1000400000000000000000000000000000000000B0
:1000500000000000000000000000000000000000A0
:100060000000000000000000000000000000000090
:100070000000000000000000000000000000000080
:100080000000000000000000000000000000000070
:100090000000000000000000000000000000000060
:1000A000000000000000000000000000000000024E
:1000B0000202020202020200000000000000000032
:1000C0000000000000000101010101010101010027
:1000D0000000000000000000000000000000000020
:1000E0000000000000000000000000000000000010
:1000F0000000000000000000000000000000000000
:1001000000000000000000000000000000000000EF
:1001100000000000000000000000000000000000DF
:1001200000000000000000000000000000000000CF
:1001300000000000000000000000000000000000BF
:1001400000000000000000000000000000000000AF
:10015000000000000000000000000000000000009F
:10016000000000000000000000000000000000008F
:10017000000000000000000000000000000000007F
:10018000000000000000000000000000000000006F
:10019000000000000000000000000000000000005F
:1001A000000000000000000000000000000000024D
:1001B000020202020202020200000000000000002F
:1001C0000000000000000101010101010101010026
:1001D000000000000000000000000000000000001F
:1001E000000000000000000000000000000000000F
:1001F00000000000000000000000000000000000FF
:1002000000000000000000000000000000000000EE
:1002100000000000000000000000000000000000DE
:1002200000000000000000000000000000000000CE
:1002300000000000000000000000000000000000BE
:1002400000000000000000000000000000000000AE
:10025000000000000000000000000000000000009E
:10026000000000000000000000000000000000008E
:10027000000000000000000000000000000000007E
:10028000000000000000000000000000000000006E
:10029000000000000000000000000000000000005E
:1002A000000000000000000000000000000000024C
:1002B000020202020202020200000000000000002E
:1002C0000000000000010101010101010101010024
:1002D000000000000000000000000000000000001E
:1002E000000000000000000000000000000000000E
:1002F00000000000000000000000000000000000FE
:1003000000000000000000000000000000000000ED
:1003100000000000000000000000000000000000DD
:1003200000000000000000000000000000000000CD
:1003300000000000000000000000000000000000BD
:1003400000000000000000000000000000000000AD
:10035000000000000000000000000000000000009D
:10036000000000000000000000000000000000008D
:10037000000000000000000000000000000000007D
:10038000000000000000000000000000000000006D
:10039000000000000000000000000000000000005D
:1003A000000000000000000000000000000000024B
:1003B000020202020202020200000000000000002D
:1003C0000000000000010101010101010101010023
:1003D000000000000000000000000000000000001D
:1003E000000000000000000000000000000000000D
:1003F00000000000000000000000000000000000FD
:1004000000000000000000000000000000000000EC
:1004100000000000000000000000000000000000DC
:1004200000000000000000000000000000000000CC
:1004300000000000000000000000000000000000BC
:1004400000000000000000000000000000000000AC
:10045000000000000000000000000000000000009C
:10046000000000000000000000000000000000008C
:10047000000000000000000000000000000000007C
:10048000000000000000000000000000000000006C
:10049000000000000000000000000000000000005C
:1004A000000000000000000000000000000000024A
:1004B000020202020202020202000000000000002A
:1004C0000000000000010101010101010101010022
:1004D000000000000000000000000000000000001C
:1004E000000000000000000000000000000000000C
:1004F00000000000000000000000000000000000FC
:1005000000000000000000000000000000000000EB
:1005100000000000000000000000000000000000DB
:1005200000000000000000000000000000000000CB
:1005300000000000000000000000000000000000BB
:1005400000000000000000000000000000000000AB
:10055000000000000000000000000000000000009B
:10056000000000000000000000000000000000008B
:10057000000000000000000000000000000000007B
:10058000000000000000000000000000000000006B
:10059000000000000000000000000000000000005B
:1005A0000000000000000000000000000000000249
:1005B0000202020202020202020100000000000028
:1005C0000000000001010101010101010101010020
:1005D000000000000000000000000000000000001B
:1005E000000000000000000000000000000000000B
:1005F00000000000000000000000000000000000FB
:1006000000000000000000000000000000000000EA
:1006100000000000000000000000000000000000DA
:1006200000000000000000000000000000000000CA
:1006300000000000000000000000000000000000BA
:1006400000000000000000000000000000000000AA
:10065000000000000000000000000000000000009A
:10066000000000000000000000000000000000008A
:10067000000000000000000000000000000000007A
:10068000000000000000000000000000000000006A
:10069000000000000000000000000000000000005A
:1006A0000000000000000000000000000000000248
:1006B0000202020202020202020200000000000026
:1006C000000000010101010101010101010101001E
:1006D000000000000000000000000000000000001A
:1006E000000000000000000000000000000000000A
:1006F00000000000000000000000000000000000FA
:1007000000000000000000000000000000000000E9
:1007100000000000000000000000000000000000D9
:1007200000000000000000000000000000000000C9
:1007300000000000000000000000000000000000B9
:1007400000000000000000000000000000000000A9
:100750000000000000000000000000000000000099
:100760000000000000000000000000000000000089
:100770000000000000000000000000000000000079
:100780000000000000000000000000000000000069
:100790000000000000000000000000000000000059
:1007A0000000000000000000000000000000000247
:1007B0000202020202020202020202000000000023
:1007C000000000010101010101010101010101001D
:1007D0000000000000000000000000000000000019
:1007E0000000000000000000000000000000000009
:1007F00000000000000000000000000000000000F9
:1008000000000000000000000000000000000000E8
:1008100000000000000000000000000000000000D8
:1008200000000000000000000000000000000000C8
:1008300000000000000000000000000000000000B8
:1008400000000000000000000000000000000000A8
:100850000000000000000000000000000000000098
:100860000000000000000000000000000000000088
:100870000000000000000000000000000000000078
:100880000000000000000000000000000000000068
:100890000000000000000000000000000000000058
:1008A0000000000000000000000000000000000246
:1008B0000202020202020202020202000000000022
:1008C000000000010101010101010101010101001C
:1008D0000000000000000000000000000000000018
:1008E0000000000000000000000000000000000008
:1008F00000000000000000000000000000000000F8
:1009000000000000000000000000000000000000E7
:1009100000000000000000000000000000000000D7
:1009200000000000000000000000000000000000C7
:1009300000000000000000000000000000000000B7
:1009400000000000000000000000000000000000A7
:100950000000000000000000000000000000000097
:100960000000000000000000000000000000000087
:100970000000000000000000000000000000000077
:100980000000000000000000000000000000000067
:100990000000000000000000000000000000000057
:1009A0000000000000000000000000000000000245
:1009B0000202020202020202020202000000000021
:1009C000000000010101010101010101010101001B
:1009D0000000000000000000000000000000000017
:1009E0000000000000000000000000000000000007
:1009F00000000000000000000000000000000000F7
:100A000000000000000000000000000000000000E6
:100A100000000000000000000000000000000000D6
:100A200000000000000000000000000000000000C6
:100A300000000000000000000000000000000000B6
:100A400000000000000000000000000000000000A6
:100A50000000000000000000000000000000000096
:100A60000000000000000000000000000000000086
:100A70000000000000000000000000000000000076
:100A80000000000000000000000000000000000066
:100A90000000000000000000000000000000000056
:100AA0000000000000000000000000000000000244
:100AB000020202020202020202020202000000001E
:100AC0000000010101010101010101010101010019
:100AD0000000000000000000000000000000000016
:100AE0000000000000000000000000000000000006
:100AF00000000000000000000000000000000000F6
:100B000000000000000000000000000000000000E5
:100B100000000000000000000000000000000000D5
:100B200000000000000000000000000000000000C5
:100B300000000000000000000000000000000000B5
:100B400000000000000000000000000000000000A5
:100B50000000000000000000000000000000000095
:100B60000000000000000000000000000000000085
:100B70000000000000000000000000000000000075
:100B80000000000000000000000000000000000065
:100B90000000000000000000000000000000000055
:100BA0000000000000000000000000000000000243
:100BB000020202020202020202020202000000001D
:100BC0000000010101010101010101010101010018
:100BD0000000000000000000000000000000000015
:100BE0000000000000000000000000000000000005
:100BF00000000000000000000000000000000000F5
:100C000000000000000000000000000000000000E4
:100C100000000000000000000000000000000000D4
:100C200000000000000000000000000000000000C4
:100C300000000000000000000000000000000000B4
:100C400000000000000000000000000000000000A4
:100C50000000000000000000000000000000000094
:100C60000000000000000000000000000000000084
:100C70000000000000000000000000000000000074
:100C80000000000000000000000000000000000064
:100C90000000000000000000000000000000000054
:100CA0000000000000000000000000000000000242
:100CB000020202020202020202020202020000001A
:100CC0000000010101010101010101010101010017
:100CD0000000000000000000000000000000000014
:100CE0000000000000000000000000000000000004
:100CF00000000000000000000000000000000000F4
:100D000000000000000000000000000000000000E3
:100D100000000000000000000000000000000000D3
:100D200000000000000000000000000000000000C3
:100D300000000000000000000000000000000000B3
:100D400000000000000000000000000000000000A3
:100D50000000000000000000000000000000000093
:100D60000000000000000000000000000000000083
:100D70000000000000000000000000000000000073
:100D80000000000000000000000000000000000063
:100D90000000000000000000000000000000000053
:100DA0000000000000000000000000000000000241
:100DB0000202020202020202020202020201000018
:100DC0000000010101010101010101010101010016
:100DD0000000000000000000000000000000000013
:100DE0000000000000000000000000000000000003
:100DF00000000000000000000000000000000000F3
:100E000000000000000000000000000000000000E2
:100E100000000000000000000000000000000000D2
:100E200000000000000000000000000000000000C2
:100E300000000000000000000000000000000000B2
:100E400000000000000000000000000000000000A2
:100E50000000000000000000000000000000000092
:100E60000000000000000000000000000000000082
:100E70000000000000000000000000000000000072
:100E80000000000000000000000000000000000062
:100E90000000000000000000000000000000000052
:100EA0000000000000000000000000000000000240
:100EB0000202020202020202020202020201000017
:100EC0000000010101010101010101010101010015
:100ED0000000000000000000000000000000000012
:100EE0000000000000000000000000000000000002
:100EF00000000000000000000000000000000000F2
:100F000000000000000000000000000000000000E1
:100F100000000000000000000000000000000000D1
:100F200000000000000000000000000000000000C1
:100F300000000000000000000000000000000000B1
:100F400000000000000000000000000000000000A1
:100F50000000000000000000000000000000000091
:100F60000000000000000000000000000000000081
:100F70000000000000000000000000000000000071
:100F80000000000000000000000000000000000061
:100F90000000000000000000000000000000000051
:100FA000000000000000000000000000000000023F
:100FB0000202020202020202020202020201000016
:100FC0000001010101010101010101010101010013
:100FD0000000000000000000000000000000000011
:100FE0000000000000000000000000000000000001
:100FF00000000000000000000000000000000000F1
:1010000000000000000000000000000000000000E0
:1010100000000000000000000000000000000000D0
:1010200000000000000000000000000000000000C0
:1010300000000000000000000000000000000000B0
:1010400000000000000000000000000000000000A0
:101050000000000000000000000000000000000090
:101060000000000000000000000000000000000080
:101070000000000000000000000000000000000070
:101080000000000000000000000000000000000060
:101090000000000000000000000000000000000050
:1010A000000000000000000000000000000000023E
:1010B0000202020202020202020202020202000014
:1010C0000001010101010101010101010101010012
:1010D0000000000000000000000000000000000010
:1010E0000000000000000000000000000000000000
:1010F00000000000000000000000000000000000F0
:1011000000000000000000000000000000000000DF
:1011100000000000000000000000000000000000CF
:1011200000000000000000000000000000000000BF
:1011300000000000000000000000000000000000AF
:10114000000000000000000000000000000000009F
:10115000000000000000000000000000000000008F
:10116000000000000000000000000000000000007F
:10117000000000000000000000000000000000006F
:10118000000000000000000000000000000000005F
:10119000000000000000000000000000000000004F
:1011A000000000000000000000000000000000023D
:1011B0000202020202020202020202020202000013
:1011C0000001010101010101010101010101010011
:1011D000000000000000000000000000000000000F
:1011E00000000000000000000000000000000000FF
:1011F00000000000000000000000000000000000EF
:1012000000000000000000000000000000000000DE
:1012100000000000000000000000000000000000CE
:1012200000000000000000000000000000000000BE
:1012300000000000000000000000000000000000AE
:10124000000000000000000000000000000000009E
:10125000000000000000000000000000000000008E
:10126000000000000000000000000000000000007E
:10127000000000000000000000000000000000006E
:10128000000000000000000000000000000000005E
:10129000000000000000000000000000000000004E
:1012A000000000000000000000000000000000023C
:1012B0000202020202020202020202020202000012
:1012C0000001010101010101010101010101010010
:1012D000000000000000000000000000000000000E
:1012E00000000000000000000000000000000000FE
:1012F00000000000000000000000000000000000EE
:1013000000000000000000000000000000000000DD
:1013100000000000000000000000000000000000CD
:1013200000000000000000000000000000000000BD
:1013300000000000000000000000000000000000AD
:10134000000000000000000000000000000000009D
:10135000000000000000000000000000000000008D
:10136000000000000000000000000000000000007D
:10137000000000000000000000000000000000006D
:10138000000000000000000000000000000000005D
:10139000000000000000000000000000000000004D
:1013A000000000000000000000000000000000023B
:1013B0000202020202020202020202020202000011
:1013C000000101010101010101010101010101000F
:1013D000000000000000000000000000000000000D
:1013E00000000000000000000000000000000000FD
:1013F00000000000000000000000000000000000ED
:1014000000000000000000000000000000000000DC
:1014100000000000000000000000000000000000CC
:1014200000000000000000000000000000000000BC
:1014300000000000000000000000000000000000AC
:10144000000000000000000000000000000000009C
:10145000000000000000000000000000000000008C
:10146000000000000000000000000000000000007C
:10147000000000000000000000000000000000006C
:10148000000000000000000000000000000000005C
:10149000000000000000000000000000000000004C
:1014A000000000000000000000000000000000023A
:1014B0000202020202020202020202020202000010
:1014C000010101010101010101010101010101000D
:1014D000000000000000000000000000000000000C
:1014E00000000000000000000000000000000000FC
:1014F00000000000000000000000000000000000EC
:1015000000000000000000000000000000000000DB
:1015100000000000000000000000000000000000CB
:1015200000000000000000000000000000000000BB
:1015300000000000000000000000000000000000AB
:10154000000000000000000000000000000000009B
:10155000000000000000000000000000000000008B
:10156000000000000000000000000000000000007B
:10157000000000000000000000000000000000006B
:10158000000000000000000000000000000000005B
:10159000000000000000000000000000000000004B
:1015A0000000000000000000000000000000000239
:1015B000020202020202020202020202020200000F
:1015C000010101010101010101010101010101000C
:1015D000000000000000000000000000000000000B
:1015E00000000000000000000000000000000000FB
:1015F00000000000000000000000000000000000EB
:1016000000000000000000000000000000000000DA
:1016100000000000000000000000000000000000CA
:1016200000000000000000000000000000000000BA
:1016300000000000000000000000000000000000AA
:10164000000000000000000000000000000000009A
:10165000000000000000000000000000000000008A
:10166000000000000000000000000000000000007A
:10167000000000000000000000000000000000006A
:10168000000000000000000000000000000000005A
:10169000000000000000000000000000000000004A
:1016A0000000000000000000000000000000000238
:1016B000020202020202020202020202020200000E
:1016C000010101010101010101010101010101000B
:1016D000000000000000000000000000000000000A
:1016E00000000000000000000000000000000000FA
:1016F00000000000000000000000000000000000EA
:1017000000000000000000000000000000000000D9
:1017100000000000000000000000000000000000C9
:1017200000000000000000000000000000000000B9
:1017300000000000000000000000000000000000A9
:101740000000000000000000000000000000000099
:101750000000000000000000000000000000000089
:101760000000000000000000000000000000000079
:101770000000000000000000000000000000000069
:101780000000000000000000000000000000000059
:101790000000000000000000000000000000000049
:1017A0000000000000000000000000000000000237
:1017B000020202020202020202020202020200000D
:1017C0000000000000000000000000000000000019
:1017D0000000000000000000000000000000000009
:1017E00000000000000000000000000000000000F9
:1017F00000000000000000000000000000000000E9
:1018000000000000000000000000000000000000D8
:1018100000000000000000000000000000000000C8
:1018200000000000000000000000000000000000B8
:1018300000000000000000000000000000000000A8
:101840000000000000000000000000000000000098
:101850000000000000000000000000000000000088
:101860000000000000000000000000000000000078
:101870000000000000000000000000000000000068
:101880000000000000000000000000000000000058
:101890000000000000000000000000000000000048
:1018A0000000000000000000000000000000000038
:1018B0000000000000000000000000000000002AFE
:1018C0000000000000000000000000000000000018
:1018D0000000000000000100000000000000000007
:1018E00000000000000000000000000000000000F8
:1018F00000000000000000000000000000000000E8
:1019000000000000000000000000000000000000D7
:1019100000000000000000000000000000000000C7
:1019200000000000000000000000000000000000B7
:1019300000000000000000000000000000000000A7
:101940000000000000000000000000000000000097
:101950000000000000000000000000000000000087
:101960000000000000000000000000000000000077
:101970000000000000000000000000000000000067
:101980000000000000000000000000000000000057
:101990000000000000000000000000000000000047
:1019A0000000000000000000000000000000000037
:1019B0000000000000000002000000000000000025
:1019C0000000000000000000000000000000000017
:1019D0000000000000000100000000000000000006
:1019E00000000000000000000000000000000000F7
:1019F00000000000000000000000000000000000E7
:101A000000000000000000000000000000000000D6
:101A100000000000000000000000000000000000C6
:101A200000000000000000000000000000000000B6
:101A300000000000000000000000000000000000A6
:101A40000000000000000000000000000000000096
:101A50000000000000000000000000000000000086
:101A60000000000000000000000000000000000076
:101A70000000000000000000000000000000000066
:101A80000000000000000000000000000000000056
:101A90000000000000000000000000000000000046
