:100000001E418080F0390200AC0A00000506820023
:100010000508012D3CCA0085030000004000004C8B
:100020004700000100070D00FFFC00000000005722
:10003000000306090C0F1215181B1E21262B304039
:100040000000000000000020560500000000000035
:10005000C6060000000000E0850A0000000000C0A5
:10006000940A0000000000A04E0B00000000008079
:100070000E0F00000000006037110000000000B00B
:1000800000000000000000B86B000000000000C08D
:10009000C6000000000000C819010000000000D0E8
:1000A00079010000000000D8C4010000000000E059
:1000B0004D020000000000E8CA020000000000F04D
:1000C00047030000000000F8C40300000000000027
:1000D0002604000000000008770400000000001063
:1000E000C4040000000000180D0500000000006BB3
:1000F00000000000000000010101010101010101F7
:1001000001010101010101010101010101010101DF
:1001100001010101010101010101010101010101CF
:1001200001010101010101010101010101010101BF
:1001300001010101010101010101010101010101AF
:1030F00001010101010101000000000000000000C9
:1031000000000000000000000000000000000000BF
:1031100000000000000000000000000000000000AF
:10312000000000000000000000000000000000009F
:10313000000000000000000000000000000000008F
:1034F00000000000000000010101010101010101C3
:1035000001010101010101010101010101010101AB
:10351000010101010101010101010101010101019B
:10352000010101010101010101010101010101018B
:10353000010101010101010101010101010101017B
:10354000010101010101010101010101010101016B
:10355000010101010101010101010101010101015B
:10356000010101010101010101010101010101014B
:10357000010101010101010101010101010101013B
:10358000010101010101010101010101010101012B
:10359000010101010101010101010101010101011B
:1035A000010101010101010101010101010101010B
:1035B00001010101010101010101010101010101FB
:1035C00001010101010101010101010101010101EB
:1035D00001010101010101010101010101010101DB
:1035E00001010101010101010101010101010101CB
:1035F00001010101010101010101010101010101BB
:1036000001010101010101010101010101010101AA
:10361000010101010101010101010101010101019A
:10362000010101010101010101010101010101018A
:10363000010101010101010101010101010101017A
:10364000010101010101010101010101010101016A
:10365000010101010101010101010101010101015A
:10366000010101010101010101010101010101014A
:10367000010101010101010101010101010101013A
:10368000010101010101010101010101010101012A
:10369000010101010101010101010101010101011A
:1036A000010101010101010101010101010101010A
:1036B00001010101010101010101010101010101FA
:1036C00001010101010101010101010101010101EA
:1036D00001010101010101010101010101010101DA
:1036E00001010101010101010101010101010101CA
:1036F00001010101010101020202020202020202B1
:103700000202020202020202020202020202020299
:103710000202020202020202020202020202020289
:103720000202020202020202020202020202020279
:103730000202020202020202020202020202020269
:1068F000020202020202020000000000000000008A
:106900000000000000000000000000000000000087
:106910000000000000000000000000000000000077
:106920000000000000000000000000000000000067
:106930000000000000000000000000000000000057
:106BF000000000000000005B000000000000000139
:106C00000101010101010101010101010101010174
:106C10000101010101010101010101010101010164
:106C20000101010101010101010101010101010154
:106C30000101010101010101010101010101010144
:1094F000010101010101010101010101010101005D
:10950000000000000000000000000000000000005B
:10951000000000000000000000000000000000004B
:10952000000000000000000000000000000000003B
:10953000000000000000000000000000000000002B
:1098F0000000000000000000000000000000000167
:109900000101010101010101010101010101010147
:109910000101010101010101010101010101010137
:109920000101010101010101010101010101010127
:109930000101010101010101010101010101010117
:109940000101010101010101010101010101010107
:1099500001010101010101010101010101010101F7
:1099600001010101010101010101010101010101E7
:1099700001010101010101010101010101010101D7
:1099800001010101010101010101010101010101C7
:1099900001010101010101010101010101010101B7
:1099A00001010101010101010101010101010101A7
:1099B0000101010101010101010101010101010197
:1099C0000101010101010101010101010101010187
:1099D0000101010101010101010101010101010177
:1099E0000101010101010101010101010101010167
:1099F0000101010101010101010101010101010256
:109A00000202020202020202020202020202020236
:109A10000202020202020202020202020202020226
:109A20000202020202020202020202020202020216
:109A30000202020202020202020202020202020206
:10C3F000020202020202020202020202020202001F
:10C40000000000000000000000000000000000002C
:10C41000000000000000000000000000000000001C
:10C42000000000000000000000000000000000000C
:10C4300000000000000000000000000000000000FC
:10C6F00000000000000000000000000000000053E7
:10C700000000000000000001010101010101010120
:10C710000101010101010101010101010101010109
:10C7200001010101010101010101010101010101F9
:10C7300001010101010101010101010101010101E9
:10C7400001010101010101010101010101010101D9
:10EC000001010101010101000000000000000000FD
:10EC100000000000000000000000000000000000F4
:10EC200000000000000000000000000000000000E4
:10EC300000000000000000000000000000000000D4
:10EC400000000000000000000000000000000000C4
:10F0000000000000000000010101010101010101F7
:10F0100001010101010101010101010101010101E0
:10F0200001010101010101010101010101010101D0
:10F0300001010101010101010101010101010101C0
:10F0400001010101010101010101010101010101B0
:10F0500001010101010101010101010101010101A0
:10F060000101010101010101010101010101010190
:10F070000101010101010101010101010101010180
:10F080000101010101010101010101010101010170
:10F090000101010101010101010101010101010160
:10F0A0000101010101010101010101010101010150
:10F0B0000101010101010101010101010101010140
:10F0C0000101010101010101010101010101010130
:10F0D0000101010101010101010101010101010120
:10F0E0000101010101010101010101010101010110
:10F0F0000101010101010101010101010101010100
:10F1000001010101010101020202020202020202E6
:10F1100002020202020202020202020202020202CF
:10F1200002020202020202020202020202020202BF
:10F1300002020202020202020202020202020202AF
:10F14000020202020202020202020202020202029F
:020000021000EC
:1017000002020202020202000000000000000000CB
:1017100000000000000000000000000000000000C9
:1017200000000000000000000000000000000000B9
:1017300000000000000000000000000000000000A9
:101740000000000000000000000000000000000099
:101A00000000000000000060000000000000000175
:101A100001010101010101010101010101010101B6
:101A200001010101010101010101010101010101A6
:101A30000101010101010101010101010101010196
:101A40000101010101010101010101010101010186
:103F000001010101010101010101010101010100A2
:103F100000000000000000000000000000000000A1
:103F20000000000000000000000000000000000091
:103F30000000000000000000000000000000000081
:103F40000000000000000000000000000000000071
:1046000000000000000000000000000000000001A9
:10461000010101010101010101010101010101018A
:10462000010101010101010101010101010101017A
:10463000010101010101010101010101010101016A
:10464000010101010101010101010101010101015A
:104C00000101010101010101010101010101010293
:104C10000202020202020202020202020202020274
:104C20000202020202020202020202020202020264
:104C30000202020202020202020202020202020254
:104C40000202020202020202020202020202020244
:10770000020202020202020202020202020202005B
:107710000000000000000000000000000000000069
:107720000000000000000000000000000000000059
:107730000000000000000000000000000000000049
:107740000000000000000000000000000000000039
:107A00000000000000000000000000000000004B2B
:107A1000000000000000000101010101010101015D
:107A20000101010101010101010101010101010146
:107A30000101010101010101010101010101010136
:107A40000101010101010101010101010101010126
:107A50000101010101010101010101010101010116
:109610000101010101010100000000000000000043
:10962000000000000000000000000000000000003A
:10963000000000000000000000000000000000002A
:10964000000000000000000000000000000000001A
:10965000000000000000000000000000000000000A
:109A1000000000000000000101010101010101013D
:109A20000101010101010101010101010101010126
:109A30000101010101010101010101010101010116
:109A40000101010101010101010101010101010106
:109A500001010101010101010101010101010101F6
:10A010000101010101010102020202020202020227
:10A020000202020202020202020202020202020210
:10A030000202020202020202020202020202020200
:10A0400002020202020202020202020202020202F0
:10A0500002020202020202020202020202020202E0
:10C210000202020202020200000000000000000010
:10C22000000000000000000000000000000000000E
:10C2300000000000000000000000000000000000FE
:10C2400000000000000000000000000000000000EE
:10C2500000000000000000000000000000000000DE
:10C510000000000000000089000000000000000191
:10C5200001010101010101010101010101010101FB
:10C5300001010101010101010101010101010101EB
:10C5400001010101010101010101010101010101DB
:10C5500001010101010101010101010101010101CB
:10DD100001010101010101010101010101010100F4
:10DD200000000000000000000000000000000000F3
:10DD300000000000000000000000000000000000E3
:10DD400000000000000000000000000000000000D3
:10DD500000000000000000000000000000000000C3
:10E1100000000000000000000000000000000001FE
:10E1200001010101010101010101010101010101DF
:10E1300001010101010101010101010101010101CF
:10E1400001010101010101010101010101010101BF
:10E1500001010101010101010101010101010101AF
:10E7100001010101010101010101010101010102E8
:10E7200002020202020202020202020202020202C9
:10E7300002020202020202020202020202020202B9
:10E7400002020202020202020202020202020202A9
:10E750000202020202020202020202020202020299
:020000022000DC
:1005100002020202020202020202020202020200BD
:1005200000000000000000000000000000000000CB
:1005300000000000000000000000000000000000BB
:1005400000000000000000000000000000000000AB
:10055000000000000000000000000000000000009B
:100B100000000000000000000000000000000001D4
:100B200001010101010101010101010101010101B5
:100B300001010101010101010101010101010101A5
:100B40000101010101010101010101010101010195
:100B50000101010101010101010101010101010185
:1023100001010101010101010101010101010100AE
:1023200000000000000000000000000000000000AD
:10233000000000000000000000000000000000009D
:10234000000000000000000000000000000000008D
:10235000000000000000000000000000000000007D
:1027100000000000000000000000000000000001B8
:102720000101010101010101010101010101010199
:102730000101010101010101010101010101010189
:102740000101010101010101010101010101010179
:102750000101010101010101010101010101010169
:102D100001010101010101010101010101010102A2
:102D20000202020202020202020202020202020283
:102D30000202020202020202020202020202020273
:102D40000202020202020202020202020202020263
:102D50000202020202020202020202020202020253
:104B10000202020202020202020202020202020077
:104B20000000000000000000000000000000000085
:104B30000000000000000000000000000000000075
:104B40000000000000000000000000000000000065
:104B50000000000000000000000000000000000055
:104E10000000000000000000000000000000007D15
:104E20000000000000000001010101010101010179
:104E30000101010101010101010101010101010162
:104E40000101010101010101010101010101010152
:104E50000101010101010101010101010101010142
:104E60000101010101010101010101010101010132
:106320000101010101010100000000000000000066
:10633000000000000000000000000000000000005D
:10634000000000000000000000000000000000004D
:10635000000000000000000000000000000000003D
:10636000000000000000000000000000000000002D
:106720000000000000000001010101010101010160
:106730000101010101010101010101010101010149
:106740000101010101010101010101010101010139
:106750000101010101010101010101010101010129
:106760000101010101010101010101010101010119
:106D2000010101010101010202020202020202024A
:106D30000202020202020202020202020202020233
:106D40000202020202020202020202020202020223
:106D50000202020202020202020202020202020213
:106D60000202020202020202020202020202020203
:10882000020202020202020000000000000000003A
:108830000000000000000000000000000000000038
:108840000000000000000000000000000000000028
:108850000000000000000000000000000000000018
:108860000000000000000000000000000000000008
:108E20000000000000000001010101010101010139
:108E30000101010101010101010101010101010122
:108E40000101010101010101010101010101010112
:108E50000101010101010101010101010101010102
:108E600001010101010101010101010101010101F2
:10A320000101010101010100000000000000000026
:10A33000000000000000000000000000000000001D
:10A34000000000000000000000000000000000000D
:10A3500000000000000000000000000000000000FD
:10A3600000000000000000000000000000000000ED
:10A720000000000000000001010101010101010120
:10A730000101010101010101010101010101010109
:10A7400001010101010101010101010101010101F9
:10A7500001010101010101010101010101010101E9
:10A7600001010101010101010101010101010101D9
:10AD2000010101010101010202020202020202020A
:10AD300002020202020202020202020202020202F3
:10AD400002020202020202020202020202020202E3
:10AD500002020202020202020202020202020202D3
:10AD600002020202020202020202020202020202C3
:10C8200002020202020202000000000000000000FA
:10C8300000000000000000000000000000000000F8
:10C8400000000000000000000000000000000000E8
:10C8500000000000000000000000000000000000D8
:10C8600000000000000000000000000000000000C8
:10CB2000000000000000007D000000000000000187
:10CB300001010101010101010101010101010101E5
:10CB400001010101010101010101010101010101D5
:10CB500001010101010101010101010101010101C5
:10CB600001010101010101010101010101010101B5
:10E0200001010101010101010101010101010100E1
:10E0300000000000000000000000000000000000E0
:10E0400000000000000000000000000000000000D0
:10E0500000000000000000000000000000000000C0
:10E0600000000000000000000000000000000000B0
:10E4200000000000000000000000000000000001EB
:10E4300001010101010101010101010101010101CC
:10E4400001010101010101010101010101010101BC
:10E4500001010101010101010101010101010101AC
:10E46000010101010101010101010101010101019C
:10EA200001010101010101010101010101010102D5
:10EA300002020202020202020202020202020202B6
:10EA400002020202020202020202020202020202A6
:10EA50000202020202020202020202020202020296
:10EA60000202020202020202020202020202020286
:020000023000CC
:1005200002020202020202020202020202020200AD
:1005300000000000000000000000000000000000BB
:1005400000000000000000000000000000000000AB
:10055000000000000000000000000000000000009B
:10056000000000000000000000000000000000008B
:100B200000000000000000000000000000000001C4
:100B300001010101010101010101010101010101A5
:100B40000101010101010101010101010101010195
:100B50000101010101010101010101010101010185
:100B60000101010101010101010101010101010175
:1020200001010101010101010101010101010100A1
:1020300000000000000000000000000000000000A0
:102040000000000000000000000000000000000090
:102050000000000000000000000000000000000080
:102060000000000000000000000000000000000070
:1024200000000000000000000000000000000001AB
:10243000010101010101010101010101010101018C
:10244000010101010101010101010101010101017C
:10245000010101010101010101010101010101016C
:10246000010101010101010101010101010101015C
:102A20000101010101010101010101010101010295
:102A30000202020202020202020202020202020276
:102A40000202020202020202020202020202020266
:102A50000202020202020202020202020202020256
:102A60000202020202020202020202020202020246
:10452000020202020202020202020202020202006D
:10453000000000000000000000000000000000007B
:10454000000000000000000000000000000000006B
:10455000000000000000000000000000000000005B
:10456000000000000000000000000000000000004B
:104820000000000000000000000000000000007D0B
:10483000000000000000000101010101010101016F
:104840000101010101010101010101010101010158
:104850000101010101010101010101010101010148
:104860000101010101010101010101010101010138
:104870000101010101010101010101010101010128
:105D3000010101010101010000000000000000005C
:105D40000000000000000000000000000000000053
:105D50000000000000000000000000000000000043
:105D60000000000000000000000000000000000033
:105D70000000000000000000000000000000000023
:106130000000000000000001010101010101010156
:10614000010101010101010101010101010101013F
:10615000010101010101010101010101010101012F
:10616000010101010101010101010101010101011F
:10617000010101010101010101010101010101010F
:106730000101010101010102020202020202020240
:106740000202020202020202020202020202020229
:106750000202020202020202020202020202020219
:106760000202020202020202020202020202020209
:1067700002020202020202020202020202020202F9
:108230000202020202020200000000000000000030
:10824000000000000000000000000000000000002E
:10825000000000000000000000000000000000001E
:10826000000000000000000000000000000000000E
:1082700000000000000000000000000000000000FE
:10883000000000000000000101010101010101012F
:108840000101010101010101010101010101010118
:108850000101010101010101010101010101010108
:1088600001010101010101010101010101010101F8
:1088700001010101010101010101010101010101E8
:109D3000010101010101010000000000000000001C
:109D40000000000000000000000000000000000013
:109D50000000000000000000000000000000000003
:109D600000000000000000000000000000000000F3
:109D700000000000000000000000000000000000E3
:10A130000000000000000001010101010101010116
:10A1400001010101010101010101010101010101FF
:10A1500001010101010101010101010101010101EF
:10A1600001010101010101010101010101010101DF
:10A1700001010101010101010101010101010101CF
:10A730000101010101010102020202020202020200
:10A7400002020202020202020202020202020202E9
:10A7500002020202020202020202020202020202D9
:10A7600002020202020202020202020202020202C9
:10A7700002020202020202020202020202020202B9
:10C2300002020202020202000000000000000000F0
:10C2400000000000000000000000000000000000EE
:10C2500000000000000000000000000000000000DE
:10C2600000000000000000000000000000000000CE
:10C2700000000000000000000000000000000000BE
:10C530000000000000000061000000000000000199
:10C5400001010101010101010101010101010101DB
:10C5500001010101010101010101010101010101CB
:10C5600001010101010101010101010101010101BB
:10C5700001010101010101010101010101010101AB
:10D6300001010101010101010101010101010100DB
:10D6400000000000000000000000000000000000DA
:10D6500000000000000000000000000000000000CA
:10D6600000000000000000000000000000000000BA
:10D6700000000000000000000000000000000000AA
:10DA300000000000000000000000000000000001E5
:10DA400001010101010101010101010101010101C6
:10DA500001010101010101010101010101010101B6
:10DA600001010101010101010101010101010101A6
:10DA70000101010101010101010101010101010196
:10DD300001010101010101010101010101010102D2
:10DD400002020202020202020202020202020202B3
:10DD500002020202020202020202020202020202A3
:10DD60000202020202020202020202020202020293
:10DD70000202020202020202020202020202020283
:10F1300002020202020202020202020202020200B1
:10F1400000000000000000000000000000000000BF
:10F1500000000000000000000000000000000000AF
:10F16000000000000000000000000000000000009F
:10F17000000000000000000000000000000000008F
:10F7300000000000000000000000000000000001C8
:10F7400001010101010101010101010101010101A9
:10F750000101010101010101010101010101010199
:10F760000101010101010101010101010101010189
:10F770000101010101010101010101010101010179
:020000024000BC
:1008300001010101010101010101010101010100A9
:1008400000000000000000000000000000000000A8
:100850000000000000000000000000000000000098
:100860000000000000000000000000000000000088
:100870000000000000000000000000000000000078
:100C300000000000000000000000000000000001B3
:100C40000101010101010101010101010101010194
:100C50000101010101010101010101010101010184
:100C60000101010101010101010101010101010174
:100C70000101010101010101010101010101010164
:100F300001010101010101010101010101010102A0
:100F40000202020202020202020202020202020281
:100F50000202020202020202020202020202020271
:100F60000202020202020202020202020202020261
:100F70000202020202020202020202020202020251
:10233000020202020202020202020202020202007F
:10234000000000000000000000000000000000008D
:10235000000000000000000000000000000000007D
:10236000000000000000000000000000000000006D
:10237000000000000000000000000000000000005D
:102630000000000000000000000000000000005149
:102640000000000000000001010101010101010181
:10265000010101010101010101010101010101016A
:10266000010101010101010101010101010101015A
:10267000010101010101010101010101010101014A
:10268000010101010101010101010101010101013A
:103640000101010101010100000000000000000073
:10365000000000000000000000000000000000006A
:10366000000000000000000000000000000000005A
:10367000000000000000000000000000000000004A
:10368000000000000000000000000000000000003A
:103A40000000000000000002020202020202020264
:103A50000202020202020202020202020202020246
:103A60000202020202020202020202020202020236
:103A70000202020202020202020202020202020226
:103A80000202020202020202020202020202020216
:104A40000202020202020200000000000000000058
:104A50000000000000000000000000000000000056
:104A60000000000000000000000000000000000046
:104A70000000000000000000000000000000000036
:104A80000000000000000000000000000000000026
:105040000000000000000001010101010101010157
:105050000101010101010101010101010101010140
:105060000101010101010101010101010101010130
:105070000101010101010101010101010101010120
:105080000101010101010101010101010101010110
:106040000101010101010100000000000000000049
:106050000000000000000000000000000000000040
:106060000000000000000000000000000000000030
:106070000000000000000000000000000000000020
:106080000000000000000000000000000000000010
:10644000000000000000000202020202020202023A
:10645000020202020202020202020202020202021C
:10646000020202020202020202020202020202020C
:1064700002020202020202020202020202020202FC
:1064800002020202020202020202020202020202EC
:10744000020202020202020000000000000000002E
:10745000000000000000000000000000000000002C
:10746000000000000000000000000000000000001C
:10747000000000000000000000000000000000000C
:1074800000000000000000000000000000000000FC
:10774000000000000000004D0000000000000001EB
:107750000101010101010101010101010101010119
:107760000101010101010101010101010101010109
:1077700001010101010101010101010101010101F9
:1077800001010101010101010101010101010101E9
:10854000010101010101010101010101010101001C
:10855000000000000000000000000000000000001B
:10856000000000000000000000000000000000000B
:1085700000000000000000000000000000000000FB
:1085800000000000000000000000000000000000EB
:108940000000000000000000000000000000000126
:108950000101010101010101010101010101010107
:1089600001010101010101010101010101010101F7
:1089700001010101010101010101010101010101E7
:1089800001010101010101010101010101010101D7
:1089900001010101010101010101010101010101C7
:1089A00001010101010101010101010101010101B7
:1089B00001010101010101010101010101010101A7
:1089C0000101010101010101010101010101010197
:1089D0000101010101010101010101010101010187
:1089E0000101010101010101010101010101010177
:1089F0000101010101010101010101010101010167
:108A00000101010101010101010101010101010156
:108A10000101010101010101010101010101010146
:108A20000101010101010101010101010101010136
:108A30000101010101010101010101010101010126
:108A40000101010101010101010101010101010215
:108A500002020202020202020202020202020202F6
:108A600002020202020202020202020202020202E6
:108A700002020202020202020202020202020202D6
:108A800002020202020202020202020202020202C6
:1099400002020202020202020202020202020200F9
:109950000000000000000000000000000000000007
:1099600000000000000000000000000000000000F7
:1099700000000000000000000000000000000000E7
:1099800000000000000000000000000000000000D7
:109F40000000000000000000000000000000000110
:109F500001010101010101010101010101010101F1
:109F600001010101010101010101010101010101E1
:109F700001010101010101010101010101010101D1
:109F800001010101010101010101010101010101C1
:10AD400001010101010101010101010101010100F4
:10AD500000000000000000000000000000000000F3
:10AD600000000000000000000000000000000000E3
:10AD700000000000000000000000000000000000D3
:10AD800000000000000000000000000000000000C3
:10B1400000000000000000000000000000000001FE
:10B1500001010101010101010101010101010101DF
:10B1600001010101010101010101010101010101CF
:10B1700001010101010101010101010101010101BF
:10B1800001010101010101010101010101010101AF
:10B19000010101010101010101010101010101019F
:10B1A000010101010101010101010101010101018F
:10B1B000010101010101010101010101010101017F
:10B1C000010101010101010101010101010101016F
:10B1D000010101010101010101010101010101015F
:10B1E000010101010101010101010101010101014F
:10B1F000010101010101010101010101010101013F
:10B20000010101010101010101010101010101012E
:10B21000010101010101010101010101010101011E
:10B22000010101010101010101010101010101010E
:10B2300001010101010101010101010101010101FE
:10B2400001010101010101010101010101010102ED
:10B2500002020202020202020202020202020202CE
:10B2600002020202020202020202020202020202BE
:10B2700002020202020202020202020202020202AE
:10B28000020202020202020202020202020202029E
:10C1400002020202020202020202020202020200D1
:10C1500000000000000000000000000000000000DF
:10C1600000000000000000000000000000000000CF
:10C1700000000000000000000000000000000000BF
:10C1800000000000000000000000000000000000AF
:10C4400000000000000000000000000000000049A3
:10C4500000000000000000010101010101010101D3
:10C4600001010101010101010101010101010101BC
:10C4700001010101010101010101010101010101AC
:10C48000010101010101010101010101010101019C
:10C49000010101010101010101010101010101018C
:10D2500001010101010101000000000000000000C7
:10D2600000000000000000000000000000000000BE
:10D2700000000000000000000000000000000000AE
:10D28000000000000000000000000000000000009E
:10D29000000000000000000000000000000000008E
:10D6500000000000000000020202020202020202B8
:10D66000020202020202020202020202020202029A
:10D67000020202020202020202020202020202028A
:10D68000020202020202020202020202020202027A
:10D69000020202020202020202020202020202026A
:10E4500002020202020202000000000000000000AE
:10E4600000000000000000000000000000000000AC
:10E47000000000000000000000000000000000009C
:10E48000000000000000000000000000000000008C
:10E49000000000000000000000000000000000007C
:10EA500000000000000000010101010101010101AD
:10EA60000101010101010101010101010101010196
:10EA70000101010101010101010101010101010186
:10EA80000101010101010101010101010101010176
:10EA90000101010101010101010101010101010166
:10F8500001010101010101000000000000000000A1
:10F860000000000000000000000000000000000098
:10F870000000000000000000000000000000000088
:10F880000000000000000000000000000000000078
:10F890000000000000000000000000000000000068
:10FC50000000000000000002020202020202020292
:10FC60000202020202020202020202020202020274
:10FC70000202020202020202020202020202020264
:10FC80000202020202020202020202020202020254
:10FC90000202020202020202020202020202020244
:020000025000AC
:100A50000202020202020200000000000000000088
:100A60000000000000000000000000000000000086
:100A70000000000000000000000000000000000076
:100A80000000000000000000000000000000000066
:100A90000000000000000000000000000000000056
:100D50000000000000000049000000000000000149
:100D60000101010101010101010101010101010173
:100D70000101010101010101010101010101010163
:100D80000101010101010101010101010101010153
:100D90000101010101010101010101010101010143
:101B50000101010101010101010101010101010076
:101B60000000000000000000000000000000000075
:101B70000000000000000000000000000000000065
:101B80000000000000000000000000000000000055
:101B90000000000000000000000000000000000045
:101F5000000000000000000000000000000000027F
:101F60000202020202020202020202020202020251
:101F70000202020202020202020202020202020241
:101F80000202020202020202020202020202020231
:101F90000202020202020202020202020202020221
:102D50000202020202020202020202020202020055
:102D60000000000000000000000000000000000063
:102D70000000000000000000000000000000000053
:102D80000000000000000000000000000000000043
:102D90000000000000000000000000000000000033
:10335000000000000000000000000000000000016C
:10336000010101010101010101010101010101014D
:10337000010101010101010101010101010101013D
:10338000010101010101010101010101010101012D
:10339000010101010101010101010101010101011D
:104150000101010101010101010101010101010050
:10416000000000000000000000000000000000004F
:10417000000000000000000000000000000000003F
:10418000000000000000000000000000000000002F
:10419000000000000000000000000000000000001F
:104550000000000000000000000000000000000259
:10456000020202020202020202020202020202022B
:10457000020202020202020202020202020202021B
:10458000020202020202020202020202020202020B
:1045900002020202020202020202020202020202FB
:10535000020202020202020202020202020202002F
:10536000000000000000000000000000000000003D
:10537000000000000000000000000000000000002D
:10538000000000000000000000000000000000001D
:10539000000000000000000000000000000000000D
:1056500000000000000000000000000000000090BA
:10566000560500000000009887050000000000A01B
:10567000B1050000000000A8D7050000000000B040
:10568000FD050000000000B81A060000000000C080
:1056900033060000000000C849060000000000D0EA
:1056A0005F060000000000D875060000000000E062
:1056B00087060000000000E898060000000000F0E7
:1056C000A7060000000000F8B60600000000003148
:1056D00000000000000000000000000000000000CA
:1056E00000000000000001000000000000000000B9
:1056F00000000000000000000000000000000000AA
:105700000000000000000000000000000000000099
:105710000000000000000000000000000000000089
:105720000000000000000000000000000000000079
:105730000000000000000000000000000000000069
:105740000000000000000000000000000000000059
:105750000000000000000000000000000000000049
:105760000000000000000000000000000000000039
:105770000000000000000000000000000000000029
:105780000000000000000000000000000000000019
:105790000000000000000000000000000000000009
:1057A00000000000000000000000000000000000F9
:1057B00000000000000000000000000000000000E9
:1057C00000000000000000020000000000000100D6
:1057D00000010100000000000000000000000000C7
:1057E00000000000000001000000000000000000B8
:1057F00000000000000000000000000000000000A9
:105800000000000000000000000000000000000098
:105810000000000000000000000000000000000088
:105820000000000000000000000000000000000078
:105830000000000000000000000000000000000068
:105840000000000000000000000000000000000058
:105850000000000000000000000000000000000048
:105860000000000000000000000000000000000038
:105870000000000000000000000000000000000028
:105880000000000000000000000000000000000018
:105890000000000000000000000000000000000008
:1058A00000000000000000000000000000000000F8
:1058B00000000000000000000000000000000000E8
:1058C00000000000000000020101000000010101D1
:1058D00001010101000000000000000000000000C4
:1058E00000000000000001000000000000000000B7
:1058F00000000000000000000000000000000000A8
:105900000000000000000000000000000000000097
:105910000000000000000000000000000000000087
:105920000000000000000000000000000000000077
:105930000000000000000000000000000000000067
:105940000000000000000000000000000000000057
:105950000000000000000000000000000000000047
:105960000000000000000000000000000000000037
:105970000000000000000000000000000000000027
:105980000000000000000000000000000000000017
:105990000000000000000000000000000000000007
:1059A00000000000000000000000000000000000F7
:1059B00000000000000000000000000000000000E7
:1059C00000000000000000020101010100010101CE
:1059D00001010101000000000000000000000000C3
:1059E00000000000000001000000000000000000B6
:1059F00000000000000000000000000000000000A7
:105A00000000000000000000000000000000000096
:105A10000000000000000000000000000000000086
:105A20000000000000000000000000000000000076
:105A30000000000000000000000000000000000066
:105A40000000000000000000000000000000000056
:105A50000000000000000000000000000000000046
:105A60000000000000000000000000000000000036
:105A70000000000000000000000000000000000026
:105A80000000000000000000000000000000000016
:105A90000000000000000000000000000000000006
:105AA00000000000000000000000000000000000F6
:105AB00000000000000000000000000000000000E6
:105AC00000000000000000020101010100010101CD
:105AD00001010101000000000000000000000000C2
:105AE00000000000000001000000000000000000B5
:105AF00000000000000000000000000000000000A6
:105B00000000000000000000000000000000000095
:105B10000000000000000000000000000000000085
:105B20000000000000000000000000000000000075
:105B30000000000000000000000000000000000065
:105B40000000000000000000000000000000000055
:105B50000000000000000000000000000000000045
:105B60000000000000000000000000000000000035
:105B70000000000000000000000000000000000025
:105B80000000000000000000000000000000000015
:105B90000000000000000000000000000000000005
:105BA00000000000000000000000000000000000F5
:105BB00000000000000000000000000000000000E5
:105BC00000000000000000020101010101010101CB
:105BD00001010101000000000000000000000000C1
:105BE00000000000000001000000000000000000B4
:105BF00000000000000000000000000000000000A5
:105C00000000000000000000000000000000000094
:105C10000000000000000000000000000000000084
:105C20000000000000000000000000000000000074
:105C30000000000000000000000000000000000064
:105C40000000000000000000000000000000000054
:105C50000000000000000000000000000000000044
:105C60000000000000000000000000000000000034
:105C70000000000000000000000000000000000024
:105C80000000000000000000000000000000000014
:105C90000000000000000000000000000000000004
:105CA00000000000000000000000000000000000F4
:105CB00000000000000000000000000000000000E4
:105CC00000000000000000020101010101010101CA
:105CD00001010101000000000000000000000000C0
:105CE00000000000000001000000000000000000B3
:105CF00000000000000000000000000000000000A4
:105D00000000000000000000000000000000000093
:105D10000000000000000000000000000000000083
:105D20000000000000000000000000000000000073
:105D30000000000000000000000000000000000063
:105D40000000000000000000000000000000000053
:105D50000000000000000000000000000000000043
:105D60000000000000000000000000000000000033
:105D70000000000000000000000000000000000023
:105D80000000000000000000000000000000000013
:105D90000000000000000000000000000000000003
:105DA00000000000000000000000000000000000F3
:105DB00000000000000000000000000000000000E3
:105DC00000000000000000020201010101010101C8
:105DD00001010101000000000000000000000000BF
:105DE00000000000000101000000000000000000B1
:105DF00000000000000000000000000000000000A3
:105E00000000000000000000000000000000000092
:105E10000000000000000000000000000000000082
:105E20000000000000000000000000000000000072
:105E30000000000000000000000000000000000062
:105E40000000000000000000000000000000000052
:105E50000000000000000000000000000000000042
:105E60000000000000000000000000000000000032
:105E70000000000000000000000000000000000022
:105E80000000000000000000000000000000000012
:105E90000000000000000000000000000000000002
:105EA00000000000000000000000000000000000F2
:105EB00000000000000000000000000000000000E2
:105EC00000000000000000020201010101010101C7
:105ED00001010101000000000000000000000000BE
:105EE00000000000000101000000000000000000B0
:105EF00000000000000000000000000000000000A2
:105F00000000000000000000000000000000000091
:105F10000000000000000000000000000000000081
:105F20000000000000000000000000000000000071
:105F30000000000000000000000000000000000061
:105F40000000000000000000000000000000000051
:105F50000000000000000000000000000000000041
:105F60000000000000000000000000000000000031
:105F70000000000000000000000000000000000021
:105F80000000000000000000000000000000000011
:105F90000000000000000000000000000000000001
:105FA00000000000000000000000000000000000F1
:105FB00000000000000000000000000000000000E1
:105FC00000000000000000020202010101010101C5
:105FD00001010101000000000000000000000000BD
:105FE00000000001010101000000000000000000AD
:105FF00000000000000000000000000000000000A1
:106000000000000000000000000000000000000090
:106010000000000000000000000000000000000080
:106020000000000000000000000000000000000070
:106030000000000000000000000000000000000060
:106040000000000000000000000000000000000050
:106050000000000000000000000000000000000040
:106060000000000000000000000000000000000030
:106070000000000000000000000000000000000020
:106080000000000000000000000000000000000010
:106090000000000000000000000000000000000000
:1060A00000000000000000000000000000000000F0
:1060B00000000000000000000000000000000000E0
:1060C00000000000000000020202010101010101C4
:1060D00001010101000000000000000000000000BC
:1060E00000000001010101000000000000000000AC
:1060F00000000000000000000000000000000000A0
:10610000000000000000000000000000000000008F
:10611000000000000000000000000000000000007F
:10612000000000000000000000000000000000006F
:10613000000000000000000000000000000000005F
:10614000000000000000000000000000000000004F
:10615000000000000000000000000000000000003F
:10616000000000000000000000000000000000002F
:10617000000000000000000000000000000000001F
:10618000000000000000000000000000000000000F
:1061900000000000000000000000000000000000FF
:1061A00000000000000000000000000000000000EF
:1061B00000000000000000000000000000000000DF
:1061C00000000000000000020202020101010101C2
:1061D00001010101000000000000000000000000BB
:1061E00000000001010101000000000000000000AB
:1061F000000000000000000000000000000000009F
:10620000000000000000000000000000000000008E
:10621000000000000000000000000000000000007E
:10622000000000000000000000000000000000006E
:10623000000000000000000000000000000000005E
:10624000000000000000000000000000000000004E
:10625000000000000000000000000000000000003E
:10626000000000000000000000000000000000002E
:10627000000000000000000000000000000000001E
:10628000000000000000000000000000000000000E
:1062900000000000000000000000000000000000FE
:1062A00000000000000000000000000000000000EE
:1062B00000000000000000000000000000000000DE
:1062C00000000000000000020202020201010101C0
:1062D00001010101000000000000000000000000BA
:1062E00000010101010101000000000000000000A8
:1062F000000000000000000000000000000000009E
:10630000000000000000000000000000000000008D
:10631000000000000000000000000000000000007D
:10632000000000000000000000000000000000006D
:10633000000000000000000000000000000000005D
:10634000000000000000000000000000000000004D
:10635000000000000000000000000000000000003D
:10636000000000000000000000000000000000002D
:10637000000000000000000000000000000000001D
:10638000000000000000000000000000000000000D
:1063900000000000000000000000000000000000FD
:1063A00000000000000000000000000000000000ED
:1063B00000000000000000000000000000000000DD
:1063C00000000000000000020202020201010101BF
:1063D00001010101000000000000000000000000B9
:1063E00000010101010101000000000000000000A7
:1063F000000000000000000000000000000000009D
:10640000000000000000000000000000000000008C
:10641000000000000000000000000000000000007C
:10642000000000000000000000000000000000006C
:10643000000000000000000000000000000000005C
:10644000000000000000000000000000000000004C
:10645000000000000000000000000000000000003C
:10646000000000000000000000000000000000002C
:10647000000000000000000000000000000000001C
:10648000000000000000000000000000000000000C
:1064900000000000000000000000000000000000FC
:1064A00000000000000000000000000000000000EC
:1064B00000000000000000000000000000000000DC
:1064C00000000000000000020202020202020101BC
:1064D00001010101000000000000000000000000B8
:1064E00000010101010101000000000000000000A6
:1064F000000000000000000000000000000000009C
:10650000000000000000000000000000000000008B
:10651000000000000000000000000000000000007B
:10652000000000000000000000000000000000006B
:10653000000000000000000000000000000000005B
:10654000000000000000000000000000000000004B
:10655000000000000000000000000000000000003B
:10656000000000000000000000000000000000002B
:10657000000000000000000000000000000000001B
:10658000000000000000000000000000000000000B
:1065900000000000000000000000000000000000FB
:1065A00000000000000000000000000000000000EB
:1065B00000000000000000000000000000000000DB
:1065C00000000000000000020202020202020201BA
:1065D00001010101000000000000000000000000B7
:1065E00001010101010101000000000000000000A4
:1065F000000000000000000000000000000000009B
:10660000000000000000000000000000000000008A
:10661000000000000000000000000000000000007A
:10662000000000000000000000000000000000006A
:10663000000000000000000000000000000000005A
:10664000000000000000000000000000000000004A
:10665000000000000000000000000000000000003A
:10666000000000000000000000000000000000002A
:10667000000000000000000000000000000000001A
:10668000000000000000000000000000000000000A
:1066900000000000000000000000000000000000FA
:1066A00000000000000000000000000000000000EA
:1066B00000000000000000000000000000000000DA
:1066C00000000000000000020202020202020201B9
:1066D00001010101000000000000000000000000B6
:1066E00001010101010101000000000000000000A3
:1066F000000000000000000000000000000000009A
:106700000000000000000000000000000000000089
:106710000000000000000000000000000000000079
:106720000000000000000000000000000000000069
:106730000000000000000000000000000000000059
:106740000000000000000000000000000000000049
:106750000000000000000000000000000000000039
:106760000000000000000000000000000000000029
:106770000000000000000000000000000000000019
:106780000000000000000000000000000000000009
:1067900000000000000000000000000000000000F9
:1067A00000000000000000000000000000000000E9
:1067B00000000000000000000000000000000000D9
:1067C00000000000000000020202020202020202B7
:1067D00001010101000000000000000000000001B4
:1067E00001010101010101000000000000000000A2
:1067F0000000000000000000000000000000000099
:106800000000000000000000000000000000000088
:106810000000000000000000000000000000000078
:106820000000000000000000000000000000000068
:106830000000000000000000000000000000000058
:106840000000000000000000000000000000000048
:106850000000000000000000000000000000000038
:106860000000000000000000000000000000000028
:106870000000000000000000000000000000000018
:106880000000000000000000000000000000000008
:1068900000000000000000000000000000000000F8
:1068A00000000000000000000000000000000000E8
:1068B00000000000000000000000000000000000D8
:1068C00000000000000000020202020202020202B6
:1068D00002010101000000000000000000000001B2
:1068E00001010101010101000000000000000000A1
:1068F0000000000000000000000000000000000098
:106900000000000000000000000000000000000087
:106910000000000000000000000000000000000077
:106920000000000000000000000000000000000067
:106930000000000000000000000000000000000057
:106940000000000000000000000000000000000047
:106950000000000000000000000000000000000037
:106960000000000000000000000000000000000027
:106970000000000000000000000000000000000017
:106980000000000000000000000000000000000007
:1069900000000000000000000000000000000000F7
:1069A00000000000000000000000000000000000E7
:1069B00000000000000000000000000000000000D7
:1069C00000000000000000020202020202020202B5
:1069D00002020201000000000000000000000001AF
:1069E00001010101010101000000000000000000A0
:1069F0000000000000000000000000000000000097
:106A00000000000000000000000000000000000086
:106A10000000000000000000000000000000000076
:106A20000000000000000000000000000000000066
:106A30000000000000000000000000000000000056
:106A40000000000000000000000000000000000046
:106A50000000000000000000000000000000000036
:106A60000000000000000000000000000000000026
:106A70000000000000000000000000000000000016
:106A80000000000000000000000000000000000006
:106A900000000000000000000000000000000000F6
:106AA00000000000000000000000000000000000E6
:106AB00000000000000000000000000000000000D6
:106AC00000000000000000020202020202020202B4
:106AD00002020201000000000000000000000101AD
:106AE000010101010101010000000000000000009F
:106AF0000000000000000000000000000000000096
:106B00000000000000000000000000000000000085
:106B10000000000000000000000000000000000075
:106B20000000000000000000000000000000000065
:106B30000000000000000000000000000000000055
:106B40000000000000000000000000000000000045
:106B50000000000000000000000000000000000035
:106B60000000000000000000000000000000000025
:106B70000000000000000000000000000000000015
:106B80000000000000000000000000000000000005
:106B900000000000000000000000000000000000F5
:106BA00000000000000000000000000000000000E5
:106BB00000000000000000000000000000000000D5
:106BC00000000000000000020202020202020202B3
:106BD00002020202000000000000000000000101AB
:106BE000010101010101010000000000000000009E
:106BF0000000000000000000000000000000000095
:106C00000000000000000000000000000000000084
:106C10000000000000000000000000000000000074
:106C20000000000000000000000000000000000064
:106C30000000000000000000000000000000000054
:106C40000000000000000000000000000000000044
:106C50000000000000000000000000000000000034
:106C60000000000000000000000000000000000024
:106C70000000000000000000000000000000000014
:106C80000000000000000000000000000000000004
:106C900000000000000000000000000000000000F4
:106CA00000000000000000000000000000000000E4
:106CB00000000000000000000000000000000000D4
:106CC00000000000000000020202020202020202B2
:106CD00002020202000000000000000000000101AA
:106CE000010101010101010000000000000000009D
:106CF0000000000000000000000000000000000094
:106D00000000000000000000000000000000000083
:106D10000000000000000000000000000000000073
:106D20000000000000000000000000000000000063
:106D30000000000000000000000000000000000053
:106D40000000000000000000000000000000000043
:106D50000000000000000000000000000000000033
:106D60000000000000000000000000000000000023
:106D70000000000000000000000000000000000013
:106D80000000000000000000000000000000000003
:106D900000000000000000000000000000000000F3
:106DA00000000000000000000000000000000000E3
:106DB00000000000000000000000000000000000D3
:106DC00000000000000000020202020202020202B1
:106DD00002020202000000000000000000010101A8
:106DE000010101010101010000000000000000009C
:106DF0000000000000000000000000000000000093
:106E00000000000000000000000000000000000082
:106E10000000000000000000000000000000000072
:106E20000000000000000000000000000000000062
:106E30000000000000000000000000000000000052
:106E40000000000000000000000000000000000042
:106E50000000000000000000000000000000000032
:106E60000000000000000000000000000000000022
:106E70000000000000000000000000000000000012
:106E80000000000000000000000000000000000002
:106E900000000000000000000000000000000000F2
:106EA00000000000000000000000000000000000E2
:106EB00000000000000000000000000000000000D2
:106EC00000000000000000020202020202020202B0
:106ED00002020202000000000000000000010101A7
:106EE000010101010101010000000000000000009B
:106EF0000000000000000000000000000000000092
:106F00000000000000000000000000000000000081
:106F10000000000000000000000000000000000071
:106F20000000000000000000000000000000000061
:106F30000000000000000000000000000000000051
:106F40000000000000000000000000000000000041
:106F50000000000000000000000000000000000031
:106F60000000000000000000000000000000000021
:106F70000000000000000000000000000000000011
:106F80000000000000000000000000000000000001
:106F900000000000000000000000000000000000F1
:106FA00000000000000000000000000000000000E1
:106FB00000000000000000000000000000000000D1
:106FC00000000000000000020202020202020202AF
:106FD00002020202000000000000000000010101A6
:106FE000010101010101010000000000000000009A
:106FF0000000000000000000000000000000000091
:107000000000000000000000000000000000000080
:107010000000000000000000000000000000000070
:107020000000000000000000000000000000000060
:107030000000000000000000000000000000000050
:107040000000000000000000000000000000000040
:107050000000000000000000000000000000000030
:107060000000000000000000000000000000000020
:107070000000000000000000000000000000000010
:107080000000000000000000000000000000000000
:1070900000000000000000000000000000000000F0
:1070A00000000000000000000000000000000000E0
:1070B00000000000000000000000000000000000D0
:1070C00000000000000000020202020202020202AE
:1070D00002020202000000000000000001010101A4
:1070E0000101010101010100000000000000000099
:1070F0000000000000000000000000000000000090
:10710000000000000000000000000000000000007F
:10711000000000000000000000000000000000006F
:10712000000000000000000000000000000000005F
:10713000000000000000000000000000000000004F
:10714000000000000000000000000000000000003F
:10715000000000000000000000000000000000002F
:10716000000000000000000000000000000000001F
:10717000000000000000000000000000000000000F
:1071800000000000000000000000000000000000FF
:1071900000000000000000000000000000000000EF
:1071A00000000000000000000000000000000000DF
:1071B00000000000000000000000000000000000CF
:1071C00000000000000000020202020202020202AD
:1071D00002020202000000000000000001010101A3
:1071E0000101010101010100000000000000000098
:1071F000000000000000000000000000000000008F
:10720000000000000000000000000000000000007E
:10721000000000000000000000000000000000006E
:10722000000000000000000000000000000000005E
:10723000000000000000000000000000000000004E
:10724000000000000000000000000000000000003E
:10725000000000000000000000000000000000002E
:10726000000000000000000000000000000000001E
:10727000000000000000000000000000000000000E
:1072800000000000000000000000000000000000FE
:1072900000000000000000000000000000000000EE
:1072A00000000000000000000000000000000000DE
:1072B00000000000000000000000000000000000CE
:1072C00000000000000000020202020202020202AC
:1072D00002020202000000000000000101010101A1
:1072E0000101010101010100000000000000000097
:1072F000000000000000000000000000000000008E
:10730000000000000000000000000000000000007D
:10731000000000000000000000000000000000006D
:10732000000000000000000000000000000000005D
:10733000000000000000000000000000000000004D
:10734000000000000000000000000000000000003D
:10735000000000000000000000000000000000002D
:10736000000000000000000000000000000000001D
:10737000000000000000000000000000000000000D
:1073800000000000000000000000000000000000FD
:1073900000000000000000000000000000000000ED
:1073A00000000000000000000000000000000000DD
:1073B00000000000000000000000000000000000CD
:1073C00000000000000000020202020202020202AB
:1073D00002020202000000000000000101010101A0
:1073E0000101010101010100000000000000000096
:1073F000000000000000000000000000000000008D
:10740000000000000000000000000000000000007C
:10741000000000000000000000000000000000006C
:10742000000000000000000000000000000000005C
:10743000000000000000000000000000000000004C
:10744000000000000000000000000000000000003C
:10745000000000000000000000000000000000002C
:10746000000000000000000000000000000000001C
:10747000000000000000000000000000000000000C
:1074800000000000000000000000000000000000FC
:1074900000000000000000000000000000000000EC
:1074A00000000000000000000000000000000000DC
:1074B00000000000000000000000000000000000CC
:1074C00000000000000000020202020202020202AA
:1074D000020202020000000000000101010101019E
:1074E0000101010101010100000000000000000095
:1074F000000000000000000000000000000000008C
:10750000000000000000000000000000000000007B
:10751000000000000000000000000000000000006B
:10752000000000000000000000000000000000005B
:10753000000000000000000000000000000000004B
:10754000000000000000000000000000000000003B
:10755000000000000000000000000000000000002B
:10756000000000000000000000000000000000001B
:10757000000000000000000000000000000000000B
:1075800000000000000000000000000000000000FB
:1075900000000000000000000000000000000000EB
:1075A00000000000000000000000000000000000DB
:1075B00000000000000000000000000000000000CB
:1075C00000000000000000020202020202020202A9
:1075D000020202020000000000000101010101019D
:1075E0000101010101010100000000000000000094
:1075F000000000000000000000000000000000008B
:10760000000000000000000000000000000000007A
:10761000000000000000000000000000000000006A
:10762000000000000000000000000000000000005A
:10763000000000000000000000000000000000004A
:10764000000000000000000000000000000000003A
:10765000000000000000000000000000000000002A
:10766000000000000000000000000000000000001A
:10767000000000000000000000000000000000000A
:1076800000000000000000000000000000000000FA
:1076900000000000000000000000000000000000EA
:1076A00000000000000000000000000000000000DA
:1076B00000000000000000000000000000000000CA
:1076C00000000000000000020202020202020202A8
:1076D000020202020000000000000101010101019C
:1076E0000101010101010100000000000000000093
:1076F000000000000000000000000000000000008A
:107700000000000000000000000000000000000079
:107710000000000000000000000000000000000069
:107720000000000000000000000000000000000059
:107730000000000000000000000000000000000049
:107740000000000000000000000000000000000039
:107750000000000000000000000000000000000029
:107760000000000000000000000000000000000019
:107770000000000000000000000000000000000009
:1077800000000000000000000000000000000000F9
:1077900000000000000000000000000000000000E9
:1077A00000000000000000000000000000000000D9
:1077B00000000000000000000000000000000000C9
:1077C00000000000000000020202020202020202A7
:1077D000020202020000000000010101010101019A
:1077E0000101010101010100000000000000000092
:1077F0000000000000000000000000000000000089
:107800000000000000000000000000000000000078
:107810000000000000000000000000000000000068
:107820000000000000000000000000000000000058
:107830000000000000000000000000000000000048
:107840000000000000000000000000000000000038
:107850000000000000000000000000000000000028
:107860000000000000000000000000000000000018
:107870000000000000000000000000000000000008
:1078800000000000000000000000000000000000F8
:1078900000000000000000000000000000000000E8
:1078A00000000000000000000000000000000000D8
:1078B00000000000000000000000000000000000C8
:1078C00000000000000000020202020202020202A6
:1078D0000202020200000000000101010101010199
:1078E0000101010101010100000000000000000091
:1078F0000000000000000000000000000000000088
:107900000000000000000000000000000000000077
:107910000000000000000000000000000000000067
:107920000000000000000000000000000000000057
:107930000000000000000000000000000000000047
:107940000000000000000000000000000000000037
:107950000000000000000000000000000000000027
:107960000000000000000000000000000000000017
:107970000000000000000000000000000000000007
:1079800000000000000000000000000000000000F7
:1079900000000000000000000000000000000000E7
:1079A00000000000000000000000000000000000D7
:1079B00000000000000000000000000000000000C7
:1079C00000000000000000020202020202020202A5
:1079D0000202020200000000000101010101010198
:1079E0000101010101010100000000000000000090
:1079F0000000000000000000000000000000000087
:107A00000000000000000000000000000000000076
:107A10000000000000000000000000000000000066
:107A20000000000000000000000000000000000056
:107A30000000000000000000000000000000000046
:107A40000000000000000000000000000000000036
:107A50000000000000000000000000000000000026
:107A60000000000000000000000000000000000016
:107A70000000000000000000000000000000000006
:107A800000000000000000000000000000000000F6
:107A900000000000000000000000000000000000E6
:107AA00000000000000000000000000000000000D6
:107AB00000000000000000000000000000000000C6
:107AC00000000000000000020202020202020202A4
:107AD0000202020200000000000101010101010197
:107AE000010101010101010000000000000000008F
:107AF0000000000000000000000000000000000086
:107B00000000000000000000000000000000000075
:107B10000000000000000000000000000000000065
:107B20000000000000000000000000000000000055
:107B30000000000000000000000000000000000045
:107B40000000000000000000000000000000000035
:107B50000000000000000000000000000000000025
:107B60000000000000000000000000000000000015
:107B70000000000000000000000000000000000005
:107B800000000000000000000000000000000000F5
:107B900000000000000000000000000000000000E5
:107BA00000000000000000000000000000000000D5
:107BB00000000000000000000000000000000000C5
:107BC00000000000000000020202020202020202A3
:107BD0000202020200000000010101010101010195
:107BE000010101010101010000000000000000008E
:107BF0000000000000000000000000000000000085
:107C00000000000000000000000000000000000074
:107C10000000000000000000000000000000000064
:107C20000000000000000000000000000000000054
:107C30000000000000000000000000000000000044
:107C40000000000000000000000000000000000034
:107C50000000000000000000000000000000000024
:107C60000000000000000000000000000000000014
:107C70000000000000000000000000000000000004
:107C800000000000000000000000000000000000F4
:107C900000000000000000000000000000000000E4
:107CA00000000000000000000000000000000000D4
:107CB00000000000000000000000000000000000C4
:107CC00000000000000000020202020202020202A2
:107CD0000202020200000000010101010101010194
:107CE000010101010101010000000000000000008D
:107CF0000000000000000000000000000000000084
:107D00000000000000000000000000000000000073
:107D10000000000000000000000000000000000063
:107D20000000000000000000000000000000000053
:107D30000000000000000000000000000000000043
:107D40000000000000000000000000000000000033
:107D50000000000000000000000000000000000023
:107D60000000000000000000000000000000000013
:107D70000000000000000000000000000000000003
:107D800000000000000000000000000000000000F3
:107D900000000000000000000000000000000000E3
:107DA00000000000000000000000000000000000D3
:107DB00000000000000000000000000000000000C3
:107DC00000000000000000020202020202020202A1
:107DD0000202020200000000010101010101010193
:107DE000010101010101010000000000000000008C
:107DF0000000000000000000000000000000000083
:107E00000000000000000000000000000000000072
:107E10000000000000000000000000000000000062
:107E20000000000000000000000000000000000052
:107E30000000000000000000000000000000000042
:107E40000000000000000000000000000000000032
:107E50000000000000000000000000000000000022
:107E60000000000000000000000000000000000012
:107E70000000000000000000000000000000000002
:107E800000000000000000000000000000000000F2
:107E900000000000000000000000000000000000E2
:107EA00000000000000000000000000000000000D2
:107EB00000000000000000000000000000000000C2
:107EC00000000000000000020202020202020202A0
:107ED0000202020202000000010101010101010190
:107EE000010101010101010000000000000000008B
:107EF0000000000000000000000000000000000082
:107F00000000000000000000000000000000000071
:107F10000000000000000000000000000000000061
:107F20000000000000000000000000000000000051
:107F30000000000000000000000000000000000041
:107F40000000000000000000000000000000000031
:107F50000000000000000000000000000000000021
:107F60000000000000000000000000000000000011
:107F70000000000000000000000000000000000001
:107F800000000000000000000000000000000000F1
:107F900000000000000000000000000000000000E1
:107FA00000000000000000000000000000000000D1
:107FB00000000000000000000000000000000000C1
:107FC000000000000000000202020202020202029F
:107FD000020202020200000001010101010101018F
:107FE000010101010101010000000000000000008A
:107FF0000000000000000000000000000000000081
:108000000000000000000000000000000000000070
:108010000000000000000000000000000000000060
:108020000000000000000000000000000000000050
:108030000000000000000000000000000000000040
:108040000000000000000000000000000000000030
:108050000000000000000000000000000000000020
:108060000000000000000000000000000000000010
:108070000000000000000000000000000000000000
:1080800000000000000000000000000000000000F0
:1080900000000000000000000000000000000000E0
:1080A00000000000000000000000000000000000D0
:1080B00000000000000000000000000000000000C0
:1080C000000000000000000202020202020202029E
:1080D000020202020202000001010101010101018C
:1080E0000101010101010100000000000000000089
:1080F0000000000000000000000000000000000080
:10810000000000000000000000000000000000006F
:10811000000000000000000000000000000000005F
:10812000000000000000000000000000000000004F
:10813000000000000000000000000000000000003F
:10814000000000000000000000000000000000002F
:10815000000000000000000000000000000000001F
:10816000000000000000000000000000000000000F
:1081700000000000000000000000000000000000FF
:1081800000000000000000000000000000000000EF
:1081900000000000000000000000000000000000DF
:1081A00000000000000000000000000000000000CF
:1081B00000000000000000000000000000000000BF
:1081C000000000000000000202020202020202029D
:1081D000020202020202000001010101010101018B
:1081E0000101010101010100000000000000000088
:1081F000000000000000000000000000000000007F
:10820000000000000000000000000000000000006E
:10821000000000000000000000000000000000005E
:10822000000000000000000000000000000000004E
:10823000000000000000000000000000000000003E
:10824000000000000000000000000000000000002E
:10825000000000000000000000000000000000001E
:10826000000000000000000000000000000000000E
:1082700000000000000000000000000000000000FE
:1082800000000000000000000000000000000000EE
:1082900000000000000000000000000000000000DE
:1082A00000000000000000000000000000000000CE
:1082B00000000000000000000000000000000000BE
:1082C000000000000000000202020202020202029C
:1082D000020202020202000001010101010101018A
:1082E0000101010101010100000000000000000087
:1082F000000000000000000000000000000000007E
:10830000000000000000000000000000000000006D
:10831000000000000000000000000000000000005D
:10832000000000000000000000000000000000004D
:10833000000000000000000000000000000000003D
:10834000000000000000000000000000000000002D
:10835000000000000000000000000000000000001D
:10836000000000000000000000000000000000000D
:1083700000000000000000000000000000000000FD
:1083800000000000000000000000000000000000ED
:1083900000000000000000000000000000000000DD
:1083A00000000000000000000000000000000000CD
:1083B00000000000000000000000000000000000BD
:1083C000000000000000000202020202020202029B
:1083D0000202020202020000010101010101010189
:1083E0000101010101010100000000000000000086
:1083F000000000000000000000000000000000007D
:10840000000000000000000000000000000000006C
:10841000000000000000000000000000000000005C
:10842000000000000000000000000000000000004C
:10843000000000000000000000000000000000003C
:10844000000000000000000000000000000000002C
:10845000000000000000000000000000000000001C
:10846000000000000000000000000000000000000C
:1084700000000000000000000000000000000000FC
:1084800000000000000000000000000000000000EC
:1084900000000000000000000000000000000000DC
:1084A00000000000000000000000000000000000CC
:1084B00000000000000000000000000000000000BC
:1084C000000000000000000202020202020202029A
:1084D0000202020202020000010101010101010188
:1084E0000101010101010100000000000000000085
:1084F000000000000000000000000000000000007C
:10850000000000000000000000000000000000006B
:10851000000000000000000000000000000000005B
:10852000000000000000000000000000000000004B
:10853000000000000000000000000000000000003B
:10854000000000000000000000000000000000002B
:10855000000000000000000000000000000000001B
:10856000000000000000000000000000000000000B
:1085700000000000000000000000000000000000FB
:1085800000000000000000000000000000000000EB
:1085900000000000000000000000000000000000DB
:1085A00000000000000000000000000000000000CB
:1085B00000000000000000000000000000000000BB
:1085C0000000000000000002020202020202020299
:1085D0000202020202020000010101010101010187
:1085E0000101010101010100000000000000000084
:1085F000000000000000000000000000000000007B
:10860000000000000000000000000000000000006A
:10861000000000000000000000000000000000005A
:10862000000000000000000000000000000000004A
:10863000000000000000000000000000000000003A
:10864000000000000000000000000000000000002A
:10865000000000000000000000000000000000001A
:10866000000000000000000000000000000000000A
:1086700000000000000000000000000000000000FA
:1086800000000000000000000000000000000000EA
:1086900000000000000000000000000000000000DA
:1086A00000000000000000000000000000000000CA
:1086B00000000000000000000000000000000000BA
:1086C0000000000000000002020202020202020298
:1086D000020202020202000000000000000000008E
:1086E000000000000000000000000000000000008A
:1086F000000000000000000000000000000000007A
:108700000000000000000000000000000000000069
:108710000000000000000000000000000000000059
:108720000000000000000000000000000000000049
:108730000000000000000000000000000000000039
:108740000000000000000000000000000000000029
:108750000000000000000000000000000000000019
:108760000000000000000000000000000000000009
:1087700000000000000000000000000000000000F9
:1087800000000000000000000000000000000000E9
:1087900000000000000000000000000000000000D9
:1087A00000000000000000000000000000000000C9
:1087B00000000000000000000000000000000000B9
:1087C00000000000000000000000000000000000A9
:1087D000000000000000002A00000000000000006F
:1087E0000000000000000000000000000000010088
:1087F0000000000000000000000000000000000079
:108800000000000000000000000000000000000068
:108810000000000000000000000000000000000058
:108820000000000000000000000000000000000048
:108830000000000000000000000000000000000038
:108840000000000000000000000000000000000028
:108850000000000000000000000000000000000018
:108860000000000000000000000000000000000008
:1088700000000000000000000000000000000000F8
:1088800000000000000000000000000000000000E8
:1088900000000000000000000000000000000000D8
:1088A00000000000000000000000000000000000C8
:1088B00000000000000000000000000000000000B8
:1088C00000000000000000000000000000000002A6
:1088D0000000000000000000000000000000000098
:1088E0000000000000000000000000000000010087
:1088F0000000000000000000000000000000000078
:108900000000000000000000000000000000000067
:108910000000000000000000000000000000000057
:108920000000000000000000000000000000000047
:108930000000000000000000000000000000000037
