:100000009A9A3782243E02009209000007069C005B
:100010000505012D3CCA0085030000004000004A90
:100020004700000100070D00FFFC00000000005722
:10003000000306090C0F1215181B1E21262B304039
:100040000000000000000020560500000000000035
:10005000E4060000000000E0A30A0000000000C069
:10006000B20A0000000000A06C0B0000000000803D
:100070002C0F00000000006073110000000000B0B1
:1000800000000000000000B865000000000000C093
:10009000BC000000000000C80B010000000000D000
:1000A0005A010000000000D8AA010000000000E092
:1000B0003D020000000000E8C4020000000000F063
:1000C00033030000000000F8A2030000000000005D
:1000D00002040000000000085D04000000000010A1
:1000E000B0040000000000180305000000000065D7
:1000F00000000000000000010101010101010101F7
:1001000001010101010101010101010101010101DF
:1001100001010101010101010101010101010101CF
:1001200001010101010101010101010101010101BF
:1001300001010101010101010101010101010101AF
:1030F00001010101010101000000000000000000C9
:1031000000000000000000000000000000000000BF
:1031100000000000000000000000000000000000AF
:10312000000000000000000000000000000000009F
:10313000000000000000000000000000000000008F
:1034F00000000000000000020202020202020202BA
:10350000020202020202020202020202020202029B
:10351000020202020202020202020202020202028B
:10352000020202020202020202020202020202027B
:10353000020202020202020202020202020202026B
:1064F000020202020202020000000000000000008E
:10650000000000000000000000000000000000008B
:10651000000000000000000000000000000000007B
:10652000000000000000000000000000000000006B
:10653000000000000000000000000000000000005B
:10654000000000000000000000000000000000004B
:10655000000000000000000000000000000000003B
:10656000000000000000000000000000000000002B
:10657000000000000000000000000000000000001B
:10658000000000000000000000000000000000000B
:1065900000000000000000000000000000000000FB
:1065A00000000000000000000000000000000000EB
:1065B00000000000000000000000000000000000DB
:1065C00000000000000000000000000000000000CB
:1065D00000000000000000000000000000000000BB
:1065E00000000000000000000000000000000000AB
:1065F0000000000000000057000000000000000143
:10660000010101010101010101010101010101017A
:10661000010101010101010101010101010101016A
:10662000010101010101010101010101010101015A
:10663000010101010101010101010101010101014A
:108EF0000101010101010101010101010101010063
:108F00000000000000000000000000000000000061
:108F10000000000000000000000000000000000051
:108F20000000000000000000000000000000000041
:108F30000000000000000000000000000000000031
:1092F000000000000000000000000000000000026C
:10930000020202020202020202020202020202023D
:10931000020202020202020202020202020202022D
:10932000020202020202020202020202020202021D
:10933000020202020202020202020202020202020D
:10BBF0000202020202020202020202020202020027
:10BC00000000000000000000000000000000000034
:10BC10000000000000000000000000000000000024
:10BC20000000000000000000000000000000000014
:10BC30000000000000000000000000000000000004
:10BC400000000000000000000000000000000000F4
:10BC500000000000000000000000000000000000E4
:10BC600000000000000000000000000000000000D4
:10BC700000000000000000000000000000000000C4
:10BC800000000000000000000000000000000000B4
:10BC900000000000000000000000000000000000A4
:10BCA0000000000000000000000000000000000094
:10BCB0000000000000000000000000000000000084
:10BCC0000000000000000000000000000000000074
:10BCD0000000000000000000000000000000000064
:10BCE0000000000000000000000000000000000054
:10BCF0000000000000000000000000000000004FF5
:10BD0000000000000000000101010101010101012A
:10BD10000101010101010101010101010101010113
:10BD20000101010101010101010101010101010103
:10BD300001010101010101010101010101010101F3
:10BD400001010101010101010101010101010101E3
:10E200000101010101010100000000000000000007
:10E2100000000000000000000000000000000000FE
:10E2200000000000000000000000000000000000EE
:10E2300000000000000000000000000000000000DE
:10E2400000000000000000000000000000000000CE
:10E6000000000000000000020202020202020202F8
:10E6100002020202020202020202020202020202DA
:10E6200002020202020202020202020202020202CA
:10E6300002020202020202020202020202020202BA
:10E6400002020202020202020202020202020202AA
:020000021000EC
:100B000002020202020202000000000000000000D7
:100B100000000000000000000000000000000000D5
:100B200000000000000000000000000000000000C5
:100B300000000000000000000000000000000000B5
:100B400000000000000000000000000000000000A5
:100B50000000000000000000000000000000000095
:100B60000000000000000000000000000000000085
:100B70000000000000000000000000000000000075
:100B80000000000000000000000000000000000065
:100B90000000000000000000000000000000000055
:100BA0000000000000000000000000000000000045
:100BB0000000000000000000000000000000000035
:100BC0000000000000000000000000000000000025
:100BD0000000000000000000000000000000000015
:100BE0000000000000000000000000000000000005
:100BF00000000000000000000000000000000000F5
:100C0000000000000000004F000000000000000194
:100C100001010101010101010101010101010101C4
:100C200001010101010101010101010101010101B4
:100C300001010101010101010101010101010101A4
:100C40000101010101010101010101010101010194
:1031000001010101010101010101010101010100B0
:1031100000000000000000000000000000000000AF
:10312000000000000000000000000000000000009F
:10313000000000000000000000000000000000008F
:10314000000000000000000000000000000000007F
:1035000000000000000000000000000000000002B9
:10351000020202020202020202020202020202028B
:10352000020202020202020202020202020202027B
:10353000020202020202020202020202020202026B
:10354000020202020202020202020202020202025B
:105A00000202020202020202020202020202020078
:105A10000000000000000000000000000000000086
:105A20000000000000000000000000000000000076
:105A30000000000000000000000000000000000066
:105A40000000000000000000000000000000000056
:105A50000000000000000000000000000000000046
:105A60000000000000000000000000000000000036
:105A70000000000000000000000000000000000026
:105A80000000000000000000000000000000000016
:105A90000000000000000000000000000000000006
:105AA00000000000000000000000000000000000F6
:105AB00000000000000000000000000000000000E6
:105AC00000000000000000000000000000000000D6
:105AD00000000000000000000000000000000000C6
:105AE00000000000000000000000000000000000B6
:105AF00000000000000000000000000000000000A6
:105B00000000000000000000000000000000005045
:105B1000000000000000000101010101010101017C
:105B20000101010101010101010101010101010165
:105B30000101010101010101010101010101010155
:105B40000101010101010101010101010101010145
:105B50000101010101010101010101010101010135
:107710000101010101010100000000000000000062
:107720000000000000000000000000000000000059
:107730000000000000000000000000000000000049
:107740000000000000000000000000000000000039
:107750000000000000000000000000000000000029
:107B1000000000000000000101010101010101015C
:107B20000101010101010101010101010101010145
:107B30000101010101010101010101010101010135
:107B40000101010101010101010101010101010125
:107B50000101010101010101010101010101010115
:108110000101010101010102020202020202020246
:10812000020202020202020202020202020202022F
:10813000020202020202020202020202020202021F
:10814000020202020202020202020202020202020F
:1081500002020202020202020202020202020202FF
:10A31000020202020202020000000000000000002F
:10A32000000000000000000000000000000000002D
:10A33000000000000000000000000000000000001D
:10A34000000000000000000000000000000000000D
:10A3500000000000000000000000000000000000FD
:10AB100000000000000000930000000000000001A1
:10AB20000101010101010101010101010101010115
:10AB30000101010101010101010101010101010105
:10AB400001010101010101010101010101010101F5
:10AB500001010101010101010101010101010101E5
:10C31000010101010101010101010101010101000E
:10C32000000000000000000000000000000000000D
:10C3300000000000000000000000000000000000FD
:10C3400000000000000000000000000000000000ED
:10C3500000000000000000000000000000000000DD
:10C710000000000000000000000000000000000118
:10C7200001010101010101010101010101010101F9
:10C7300001010101010101010101010101010101E9
:10C7400001010101010101010101010101010101D9
:10C7500001010101010101010101010101010101C9
:10CD10000101010101010101010101010101010202
:10CD200002020202020202020202020202020202E3
:10CD300002020202020202020202020202020202D3
:10CD400002020202020202020202020202020202C3
:10CD500002020202020202020202020202020202B3
:10EB100002020202020202020202020202020200D7
:10EB200000000000000000000000000000000000E5
:10EB300000000000000000000000000000000000D5
:10EB400000000000000000000000000000000000C5
:10EB500000000000000000000000000000000000B5
:10F6100000000000000000000000000000000001E9
:10F6200001010101010101010101010101010101CA
:10F6300001010101010101010101010101010101BA
:10F6400001010101010101010101010101010101AA
:10F65000010101010101010101010101010101019A
:020000022000DC
:100E100001010101010101010101010101010100C3
:100E200000000000000000000000000000000000C2
:100E300000000000000000000000000000000000B2
:100E400000000000000000000000000000000000A2
:100E50000000000000000000000000000000000092
:1012100000000000000000000000000000000001CD
:1012200001010101010101010101010101010101AE
:10123000010101010101010101010101010101019E
:10124000010101010101010101010101010101018E
:10125000010101010101010101010101010101017E
:1018100001010101010101010101010101010102B7
:101820000202020202020202020202020202020298
:101830000202020202020202020202020202020288
:101840000202020202020202020202020202020278
:101850000202020202020202020202020202020268
:10361000020202020202020202020202020202008C
:10362000000000000000000000000000000000009A
:10363000000000000000000000000000000000008A
:10364000000000000000000000000000000000007A
:10365000000000000000000000000000000000006A
:103E1000000000000000000000000000000000871B
:103E20000000000000000001010101010101010189
:103E30000101010101010101010101010101010172
:103E40000101010101010101010101010101010162
:103E50000101010101010101010101010101010152
:103E60000101010101010101010101010101010142
:105320000101010101010100000000000000000076
:10533000000000000000000000000000000000006D
:10534000000000000000000000000000000000005D
:10535000000000000000000000000000000000004D
:10536000000000000000000000000000000000003D
:105720000000000000000001010101010101010170
:105730000101010101010101010101010101010159
:105740000101010101010101010101010101010149
:105750000101010101010101010101010101010139
:105760000101010101010101010101010101010129
:105D2000010101010101010202020202020202025A
:105D30000202020202020202020202020202020243
:105D40000202020202020202020202020202020233
:105D50000202020202020202020202020202020223
:105D60000202020202020202020202020202020213
:10782000020202020202020000000000000000004A
:107830000000000000000000000000000000000048
:107840000000000000000000000000000000000038
:107850000000000000000000000000000000000028
:107860000000000000000000000000000000000018
:108320000000000000000001010101010101010144
:10833000010101010101010101010101010101012D
:10834000010101010101010101010101010101011D
:10835000010101010101010101010101010101010D
:1083600001010101010101010101010101010101FD
:109820000101010101010100000000000000000031
:109830000000000000000000000000000000000028
:109840000000000000000000000000000000000018
:109850000000000000000000000000000000000008
:1098600000000000000000000000000000000000F8
:109C2000000000000000000101010101010101012B
:109C30000101010101010101010101010101010114
:109C40000101010101010101010101010101010104
:109C500001010101010101010101010101010101F4
:109C600001010101010101010101010101010101E4
:10A220000101010101010102020202020202020215
:10A2300002020202020202020202020202020202FE
:10A2400002020202020202020202020202020202EE
:10A2500002020202020202020202020202020202DE
:10A2600002020202020202020202020202020202CE
:10BD20000202020202020200000000000000000005
:10BD30000000000000000000000000000000000003
:10BD400000000000000000000000000000000000F3
:10BD500000000000000000000000000000000000E3
:10BD600000000000000000000000000000000000D3
:10C52000000000000000006F00000000000000019B
:10C5300001010101010101010101010101010101EB
:10C5400001010101010101010101010101010101DB
:10C5500001010101010101010101010101010101CB
:10C5600001010101010101010101010101010101BB
:10DA200001010101010101010101010101010100E7
:10DA300000000000000000000000000000000000E6
:10DA400000000000000000000000000000000000D6
:10DA500000000000000000000000000000000000C6
:10DA600000000000000000000000000000000000B6
:10DE200000000000000000000000000000000002F0
:10DE300002020202020202020202020202020202C2
:10DE400002020202020202020202020202020202B2
:10DE500002020202020202020202020202020202A2
:10DE60000202020202020202020202020202020292
:10F3200002020202020202020202020202020200BF
:10F3300000000000000000000000000000000000CD
:10F3400000000000000000000000000000000000BD
:10F3500000000000000000000000000000000000AD
:10F36000000000000000000000000000000000009D
:10FE200000000000000000000000000000000001D1
:10FE300001010101010101010101010101010101B2
:10FE400001010101010101010101010101010101A2
:10FE50000101010101010101010101010101010192
:10FE60000101010101010101010101010101010182
:020000023000CC
:1013200001010101010101010101010101010100AE
:1013300000000000000000000000000000000000AD
:10134000000000000000000000000000000000009D
:10135000000000000000000000000000000000008D
:10136000000000000000000000000000000000007D
:1017200000000000000000000000000000000002B7
:101730000202020202020202020202020202020289
:101740000202020202020202020202020202020279
:101750000202020202020202020202020202020269
:101760000202020202020202020202020202020259
:102C20000202020202020202020202020202020086
:102C30000000000000000000000000000000000094
:102C40000000000000000000000000000000000084
:102C50000000000000000000000000000000000074
:102C60000000000000000000000000000000000064
:103420000000000000000000000000000000006F2D
:103430000000000000000001010101010101010183
:10344000010101010101010101010101010101016C
:10345000010101010101010101010101010101015C
:10346000010101010101010101010101010101014C
:10347000010101010101010101010101010101013C
:104930000101010101010100000000000000000070
:104940000000000000000000000000000000000067
:104950000000000000000000000000000000000057
:104960000000000000000000000000000000000047
:104970000000000000000000000000000000000037
:104D30000000000000000002020202020202020261
:104D40000202020202020202020202020202020243
:104D50000202020202020202020202020202020233
:104D60000202020202020202020202020202020223
:104D70000202020202020202020202020202020213
:106230000202020202020200000000000000000050
:10624000000000000000000000000000000000004E
:10625000000000000000000000000000000000003E
:10626000000000000000000000000000000000002E
:10627000000000000000000000000000000000001E
:106D3000000000000000000101010101010101014A
:106D40000101010101010101010101010101010133
:106D50000101010101010101010101010101010123
:106D60000101010101010101010101010101010113
:106D70000101010101010101010101010101010103
:108230000101010101010100000000000000000037
:10824000000000000000000000000000000000002E
:10825000000000000000000000000000000000001E
:10826000000000000000000000000000000000000E
:1082700000000000000000000000000000000000FE
:108630000000000000000002020202020202020228
:10864000020202020202020202020202020202020A
:1086500002020202020202020202020202020202FA
:1086600002020202020202020202020202020202EA
:1086700002020202020202020202020202020202DA
:109B30000202020202020200000000000000000017
:109B40000000000000000000000000000000000015
:109B50000000000000000000000000000000000005
:109B600000000000000000000000000000000000F5
:109B700000000000000000000000000000000000E5
:10A33000000000000000005F0000000000000001BD
:10A3400001010101010101010101010101010101FD
:10A3500001010101010101010101010101010101ED
:10A3600001010101010101010101010101010101DD
:10A3700001010101010101010101010101010101CD
:10B4300001010101010101010101010101010100FD
:10B4400000000000000000000000000000000000FC
:10B4500000000000000000000000000000000000EC
:10B4600000000000000000000000000000000000DC
:10B4700000000000000000000000000000000000CC
:10B830000000000000000000000000000000000206
:10B8400002020202020202020202020202020202D8
:10B8500002020202020202020202020202020202C8
:10B8600002020202020202020202020202020202B8
:10B8700002020202020202020202020202020202A8
:10C9300002020202020202020202020202020200D9
:10C9400000000000000000000000000000000000E7
:10C9500000000000000000000000000000000000D7
:10C9600000000000000000000000000000000000C7
:10C9700000000000000000000000000000000000B7
:10D4300000000000000000000000000000000001EB
:10D4400001010101010101010101010101010101CC
:10D4500001010101010101010101010101010101BC
:10D4600001010101010101010101010101010101AC
:10D47000010101010101010101010101010101019C
:10E5300001010101010101010101010101010100CC
:10E5400000000000000000000000000000000000CB
:10E5500000000000000000000000000000000000BB
:10E5600000000000000000000000000000000000AB
:10E57000000000000000000000000000000000009B
:10E9300000000000000000000000000000000002D5
:10E9400002020202020202020202020202020202A7
:10E950000202020202020202020202020202020297
:10E960000202020202020202020202020202020287
:10E970000202020202020202020202020202020277
:10FA300002020202020202020202020202020200A8
:10FA400000000000000000000000000000000000B6
:10FA500000000000000000000000000000000000A6
:10FA60000000000000000000000000000000000096
:10FA70000000000000000000000000000000000086
:020000024000BC
:100230000000000000000000000000000000005B63
:1002400000000000000000010101010101010101A5
:10025000010101010101010101010101010101018E
:10026000010101010101010101010101010101017E
:10027000010101010101010101010101010101016E
:10028000010101010101010101010101010101015E
:101240000101010101010100000000000000000097
:10125000000000000000000000000000000000008E
:10126000000000000000000000000000000000007E
:10127000000000000000000000000000000000006E
:10128000000000000000000000000000000000005E
:101640000000000000000002020202020202020288
:10165000020202020202020202020202020202026A
:10166000020202020202020202020202020202025A
:10167000020202020202020202020202020202024A
:10168000020202020202020202020202020202023A
:10264000020202020202020000000000000000007C
:10265000000000000000000000000000000000007A
:10266000000000000000000000000000000000006A
:10267000000000000000000000000000000000005A
:10268000000000000000000000000000000000004A
:103140000000000000000001010101010101010176
:10315000010101010101010101010101010101015F
:10316000010101010101010101010101010101014F
:10317000010101010101010101010101010101013F
:10318000010101010101010101010101010101012F
:104140000101010101010100000000000000000068
:10415000000000000000000000000000000000005F
:10416000000000000000000000000000000000004F
:10417000000000000000000000000000000000003F
:10418000000000000000000000000000000000002F
:104540000000000000000002020202020202020259
:10455000020202020202020202020202020202023B
:10456000020202020202020202020202020202022B
:10457000020202020202020202020202020202021B
:10458000020202020202020202020202020202020B
:10554000020202020202020000000000000000004D
:10555000000000000000000000000000000000004B
:10556000000000000000000000000000000000003B
:10557000000000000000000000000000000000002B
:10558000000000000000000000000000000000001B
:105D400000000000000000530000000000000001FF
:105D50000101010101010101010101010101010133
:105D60000101010101010101010101010101010123
:105D70000101010101010101010101010101010113
:105D80000101010101010101010101010101010103
:106B40000101010101010101010101010101010036
:106B50000000000000000000000000000000000035
:106B60000000000000000000000000000000000025
:106B70000000000000000000000000000000000015
:106B80000000000000000000000000000000000005
:106F4000000000000000000000000000000000023F
:106F50000202020202020202020202020202020211
:106F60000202020202020202020202020202020201
:106F700002020202020202020202020202020202F1
:106F800002020202020202020202020202020202E1
:107D40000202020202020202020202020202020015
:107D50000000000000000000000000000000000023
:107D60000000000000000000000000000000000013
:107D70000000000000000000000000000000000003
:107D800000000000000000000000000000000000F3
:108840000000000000000000000000000000000127
:108850000101010101010101010101010101010108
:1088600001010101010101010101010101010101F8
:1088700001010101010101010101010101010101E8
:1088800001010101010101010101010101010101D8
:10964000010101010101010101010101010101000B
:10965000000000000000000000000000000000000A
:1096600000000000000000000000000000000000FA
:1096700000000000000000000000000000000000EA
:1096800000000000000000000000000000000000DA
:109A40000000000000000000000000000000000214
:109A500002020202020202020202020202020202E6
:109A600002020202020202020202020202020202D6
:109A700002020202020202020202020202020202C6
:109A800002020202020202020202020202020202B6
:10A8400002020202020202020202020202020200EA
:10A8500000000000000000000000000000000000F8
:10A8600000000000000000000000000000000000E8
:10A8700000000000000000000000000000000000D8
:10A8800000000000000000000000000000000000C8
:10B0400000000000000000000000000000000053AD
:10B0500000000000000000010101010101010101E7
:10B0600001010101010101010101010101010101D0
:10B0700001010101010101010101010101010101C0
:10B0800001010101010101010101010101010101B0
:10B0900001010101010101010101010101010101A0
:10BE500001010101010101000000000000000000DB
:10BE600000000000000000000000000000000000D2
:10BE700000000000000000000000000000000000C2
:10BE800000000000000000000000000000000000B2
:10BE900000000000000000000000000000000000A2
:10C2500000000000000000020202020202020202CC
:10C2600002020202020202020202020202020202AE
:10C27000020202020202020202020202020202029E
:10C28000020202020202020202020202020202028E
:10C29000020202020202020202020202020202027E
:10D0500002020202020202000000000000000000C2
:10D0600000000000000000000000000000000000C0
:10D0700000000000000000000000000000000000B0
:10D0800000000000000000000000000000000000A0
:10D090000000000000000000000000000000000090
:10DB500000000000000000010101010101010101BC
:10DB600001010101010101010101010101010101A5
:10DB70000101010101010101010101010101010195
:10DB80000101010101010101010101010101010185
:10DB90000101010101010101010101010101010175
:10E9500001010101010101000000000000000000B0
:10E9600000000000000000000000000000000000A7
:10E970000000000000000000000000000000000097
:10E980000000000000000000000000000000000087
:10E990000000000000000000000000000000000077
:10ED500000000000000000020202020202020202A1
:10ED60000202020202020202020202020202020283
:10ED70000202020202020202020202020202020273
:10ED80000202020202020202020202020202020263
:10ED90000202020202020202020202020202020253
:10FB50000202020202020200000000000000000097
:10FB60000000000000000000000000000000000095
:10FB70000000000000000000000000000000000085
:10FB80000000000000000000000000000000000075
:10FB90000000000000000000000000000000000065
:020000025000AC
:100350000000000000000053000000000000000149
:10036000010101010101010101010101010101017D
:10037000010101010101010101010101010101016D
:10038000010101010101010101010101010101015D
:10039000010101010101010101010101010101014D
:101150000101010101010101010101010101010080
:10116000000000000000000000000000000000007F
:10117000000000000000000000000000000000006F
:10118000000000000000000000000000000000005F
:10119000000000000000000000000000000000004F
:101550000000000000000000000000000000000289
:10156000020202020202020202020202020202025B
:10157000020202020202020202020202020202024B
:10158000020202020202020202020202020202023B
:10159000020202020202020202020202020202022B
:10235000020202020202020202020202020202005F
:10236000000000000000000000000000000000006D
:10237000000000000000000000000000000000005D
:10238000000000000000000000000000000000004D
:10239000000000000000000000000000000000003D
:102E50000000000000000000000000000000000171
:102E60000101010101010101010101010101010152
:102E70000101010101010101010101010101010142
:102E80000101010101010101010101010101010132
:102E90000101010101010101010101010101010122
:103C50000101010101010101010101010101010055
:103C60000000000000000000000000000000000054
:103C70000000000000000000000000000000000044
:103C80000000000000000000000000000000000034
:103C90000000000000000000000000000000000024
:10405000000000000000000000000000000000025E
:104060000202020202020202020202020202020230
:104070000202020202020202020202020202020220
:104080000202020202020202020202020202020210
:104090000202020202020202020202020202020200
:104E50000202020202020202020202020202020034
:104E60000000000000000000000000000000000042
:104E70000000000000000000000000000000000032
:104E80000000000000000000000000000000000022
:104E90000000000000000000000000000000000012
:1056500000000000000000000000000000000090BA
:10566000560500000000009887050000000000A01B
:10567000B1050000000000A8D7050000000000B040
:10568000FD050000000000B81A060000000000C080
:1056900033060000000000C849060000000000D0EA
:1056A0005F060000000000D875060000000000E062
:1056B0008B060000000000E8A1060000000000F0DA
:1056C000B7060000000000F8CD0600000000003121
:1056D00000000000000000000000000000000000CA
:1056E00000000000000001000000000000000000B9
:1056F00000000000000000000000000000000000AA
:105700000000000000000000000000000000000099
:105710000000000000000000000000000000000089
:105720000000000000000000000000000000000079
:105730000000000000000000000000000000000069
:105740000000000000000000000000000000000059
:105750000000000000000000000000000000000049
:105760000000000000000000000000000000000039
:105770000000000000000000000000000000000029
:105780000000000000000000000000000000000019
:105790000000000000000000000000000000000009
:1057A00000000000000000000000000000000000F9
:1057B00000000000000000000000000000000000E9
:1057C00000000000000000020000000000000000D7
:1057D00000000000000000000000000000000000C9
:1057E00000000000000001000000000000000000B8
:1057F00000000000000000000000000000000000A9
:105800000000000000000000000000000000000098
:105810000000000000000000000000000000000088
:105820000000000000000000000000000000000078
:105830000000000000000000000000000000000068
:105840000000000000000000000000000000000058
:105850000000000000000000000000000000000048
:105860000000000000000000000000000000000038
:105870000000000000000000000000000000000028
:105880000000000000000000000000000000000018
:105890000000000000000000000000000000000008
:1058A00000000000000000000000000000000000F8
:1058B00000000000000000000000000000000000E8
:1058C00000000000000000020000000000000000D6
:1058D00000000000000000000000000000000000C8
:1058E00000000000000001000000000000000000B7
:1058F00000000000000000000000000000000000A8
:105900000000000000000000000000000000000097
:105910000000000000000000000000000000000087
:105920000000000000000000000000000000000077
:105930000000000000000000000000000000000067
:105940000000000000000000000000000000000057
:105950000000000000000000000000000000000047
:105960000000000000000000000000000000000037
:105970000000000000000000000000000000000027
:105980000000000000000000000000000000000017
:105990000000000000000000000000000000000007
:1059A00000000000000000000000000000000000F7
:1059B00000000000000000000000000000000000E7
:1059C00000000000000000020000000000000000D5
:1059D00000000000000000000000000000000000C7
:1059E00000000000000001000000000000000000B6
:1059F00000000000000000000000000000000000A7
:105A00000000000000000000000000000000000096
:105A10000000000000000000000000000000000086
:105A20000000000000000000000000000000000076
:105A30000000000000000000000000000000000066
:105A40000000000000000000000000000000000056
:105A50000000000000000000000000000000000046
:105A60000000000000000000000000000000000036
:105A70000000000000000000000000000000000026
:105A80000000000000000000000000000000000016
:105A90000000000000000000000000000000000006
:105AA00000000000000000000000000000000000F6
:105AB00000000000000000000000000000000000E6
:105AC00000000000000000020000000000000000D4
:105AD00000000000000000000000000000000000C6
:105AE00000000000000001000000000000000000B5
:105AF00000000000000000000000000000000000A6
:105B00000000000000000000000000000000000095
:105B10000000000000000000000000000000000085
:105B20000000000000000000000000000000000075
:105B30000000000000000000000000000000000065
:105B40000000000000000000000000000000000055
:105B50000000000000000000000000000000000045
:105B60000000000000000000000000000000000035
:105B70000000000000000000000000000000000025
:105B80000000000000000000000000000000000015
:105B90000000000000000000000000000000000005
:105BA00000000000000000000000000000000000F5
:105BB00000000000000000000000000000000000E5
:105BC00000000000000000020000000000000000D3
:105BD00000000000000000000000000000000000C5
:105BE00000000000000001000000000000000000B4
:105BF00000000000000000000000000000000000A5
:105C00000000000000000000000000000000000094
:105C10000000000000000000000000000000000084
:105C20000000000000000000000000000000000074
:105C30000000000000000000000000000000000064
:105C40000000000000000000000000000000000054
:105C50000000000000000000000000000000000044
:105C60000000000000000000000000000000000034
:105C70000000000000000000000000000000000024
:105C80000000000000000000000000000000000014
:105C90000000000000000000000000000000000004
:105CA00000000000000000000000000000000000F4
:105CB00000000000000000000000000000000000E4
:105CC00000000000000000020000000000000000D2
:105CD00000000000000000000000000000000000C4
:105CE00000000000000001000000000000000000B3
:105CF00000000000000000000000000000000000A4
:105D00000000000000000000000000000000000093
:105D10000000000000000000000000000000000083
:105D20000000000000000000000000000000000073
:105D30000000000000000000000000000000000063
:105D40000000000000000000000000000000000053
:105D50000000000000000000000000000000000043
:105D60000000000000000000000000000000000033
:105D70000000000000000000000000000000000023
:105D80000000000000000000000000000000000013
:105D90000000000000000000000000000000000003
:105DA00000000000000000000000000000000000F3
:105DB00000000000000000000000000000000000E3
:105DC00000000000000000020200000000000000CF
:105DD00000000000000000000000000000000000C3
:105DE00000000000000001000000000000000000B2
:105DF00000000000000000000000000000000000A3
:105E00000000000000000000000000000000000092
:105E10000000000000000000000000000000000082
:105E20000000000000000000000000000000000072
:105E30000000000000000000000000000000000062
:105E40000000000000000000000000000000000052
:105E50000000000000000000000000000000000042
:105E60000000000000000000000000000000000032
:105E70000000000000000000000000000000000022
:105E80000000000000000000000000000000000012
:105E90000000000000000000000000000000000002
:105EA00000000000000000000000000000000000F2
:105EB00000000000000000000000000000000000E2
:105EC00000000000000000020200000000000000CE
:105ED00000000000000000000000000000000000C2
:105EE00000000000000001000000000000000000B1
:105EF00000000000000000000000000000000000A2
:105F00000000000000000000000000000000000091
:105F10000000000000000000000000000000000081
:105F20000000000000000000000000000000000071
:105F30000000000000000000000000000000000061
:105F40000000000000000000000000000000000051
:105F50000000000000000000000000000000000041
:105F60000000000000000000000000000000000031
:105F70000000000000000000000000000000000021
:105F80000000000000000000000000000000000011
:105F90000000000000000000000000000000000001
:105FA00000000000000000000000000000000000F1
:105FB00000000000000000000000000000000000E1
:105FC00000000000000000020200000000000000CD
:105FD00000000000000000000000000000000000C1
:105FE00000000000000001000000000000000000B0
:105FF00000000000000000000000000000000000A1
:106000000000000000000000000000000000000090
:106010000000000000000000000000000000000080
:106020000000000000000000000000000000000070
:106030000000000000000000000000000000000060
:106040000000000000000000000000000000000050
:106050000000000000000000000000000000000040
:106060000000000000000000000000000000000030
:106070000000000000000000000000000000000020
:106080000000000000000000000000000000000010
:106090000000000000000000000000000000000000
:1060A00000000000000000000000000000000000F0
:1060B00000000000000000000000000000000000E0
:1060C00000000000000000020202000000000000CA
:1060D00000000000000000000000000000000000C0
:1060E00000000000000001000000000000000000AF
:1060F00000000000000000000000000000000000A0
:10610000000000000000000000000000000000008F
:10611000000000000000000000000000000000007F
:10612000000000000000000000000000000000006F
:10613000000000000000000000000000000000005F
:10614000000000000000000000000000000000004F
:10615000000000000000000000000000000000003F
:10616000000000000000000000000000000000002F
:10617000000000000000000000000000000000001F
:10618000000000000000000000000000000000000F
:1061900000000000000000000000000000000000FF
:1061A00000000000000000000000000000000000EF
:1061B00000000000000000000000000000000000DF
:1061C00000000000000000020202000000000000C9
:1061D00000000000000000000000000000000000BF
:1061E00000000000000001000000000000000000AE
:1061F000000000000000000000000000000000009F
:10620000000000000000000000000000000000008E
:10621000000000000000000000000000000000007E
:10622000000000000000000000000000000000006E
:10623000000000000000000000000000000000005E
:10624000000000000000000000000000000000004E
:10625000000000000000000000000000000000003E
:10626000000000000000000000000000000000002E
:10627000000000000000000000000000000000001E
:10628000000000000000000000000000000000000E
:1062900000000000000000000000000000000000FE
:1062A00000000000000000000000000000000000EE
:1062B00000000000000000000000000000000000DE
:1062C00000000000000000020202020000000000C6
:1062D00000000000000000000000000000000000BE
:1062E00000000000000001000000000000000000AD
:1062F000000000000000000000000000000000009E
:10630000000000000000000000000000000000008D
:10631000000000000000000000000000000000007D
:10632000000000000000000000000000000000006D
:10633000000000000000000000000000000000005D
:10634000000000000000000000000000000000004D
:10635000000000000000000000000000000000003D
:10636000000000000000000000000000000000002D
:10637000000000000000000000000000000000001D
:10638000000000000000000000000000000000000D
:1063900000000000000000000000000000000000FD
:1063A00000000000000000000000000000000000ED
:1063B00000000000000000000000000000000000DD
:1063C00000000000000000020202020000000000C5
:1063D00000000000000000000000000000000000BD
:1063E00000000000010101000000000000000000AA
:1063F000000000000000000000000000000000009D
:10640000000000000000000000000000000000008C
:10641000000000000000000000000000000000007C
:10642000000000000000000000000000000000006C
:10643000000000000000000000000000000000005C
:10644000000000000000000000000000000000004C
:10645000000000000000000000000000000000003C
:10646000000000000000000000000000000000002C
:10647000000000000000000000000000000000001C
:10648000000000000000000000000000000000000C
:1064900000000000000000000000000000000000FC
:1064A00000000000000000000000000000000000EC
:1064B00000000000000000000000000000000000DC
:1064C00000000000000000020202020000000000C4
:1064D00000000000000000000000000000000000BC
:1064E00000000000010101000000000000000000A9
:1064F000000000000000000000000000000000009C
:10650000000000000000000000000000000000008B
:10651000000000000000000000000000000000007B
:10652000000000000000000000000000000000006B
:10653000000000000000000000000000000000005B
:10654000000000000000000000000000000000004B
:10655000000000000000000000000000000000003B
:10656000000000000000000000000000000000002B
:10657000000000000000000000000000000000001B
:10658000000000000000000000000000000000000B
:1065900000000000000000000000000000000000FB
:1065A00000000000000000000000000000000000EB
:1065B00000000000000000000000000000000000DB
:1065C00000000000000000020202020000000000C3
:1065D00000000000000000000000000000000000BB
:1065E00000000000010101000000000000000000A8
:1065F000000000000000000000000000000000009B
:10660000000000000000000000000000000000008A
:10661000000000000000000000000000000000007A
:10662000000000000000000000000000000000006A
:10663000000000000000000000000000000000005A
:10664000000000000000000000000000000000004A
:10665000000000000000000000000000000000003A
:10666000000000000000000000000000000000002A
:10667000000000000000000000000000000000001A
:10668000000000000000000000000000000000000A
:1066900000000000000000000000000000000000FA
:1066A00000000000000000000000000000000000EA
:1066B00000000000000000000000000000000000DA
:1066C00000000000000000020202020200000000C0
:1066D00000000000000000000000000000000000BA
:1066E00000000000010101000000000000000000A7
:1066F000000000000000000000000000000000009A
:106700000000000000000000000000000000000089
:106710000000000000000000000000000000000079
:106720000000000000000000000000000000000069
:106730000000000000000000000000000000000059
:106740000000000000000000000000000000000049
:106750000000000000000000000000000000000039
:106760000000000000000000000000000000000029
:106770000000000000000000000000000000000019
:106780000000000000000000000000000000000009
:1067900000000000000000000000000000000000F9
:1067A00000000000000000000000000000000000E9
:1067B00000000000000000000000000000000000D9
:1067C00000000000000000020202020200000000BF
:1067D00000000000000000000000000000000000B9
:1067E00000010101010101000000000000000000A3
:1067F0000000000000000000000000000000000099
:106800000000000000000000000000000000000088
:106810000000000000000000000000000000000078
:106820000000000000000000000000000000000068
:106830000000000000000000000000000000000058
:106840000000000000000000000000000000000048
:106850000000000000000000000000000000000038
:106860000000000000000000000000000000000028
:106870000000000000000000000000000000000018
:106880000000000000000000000000000000000008
:1068900000000000000000000000000000000000F8
:1068A00000000000000000000000000000000000E8
:1068B00000000000000000000000000000000000D8
:1068C00000000000000000020202020202000000BC
:1068D00000000000000000000000000000000000B8
:1068E00000010101010101000000000000000000A2
:1068F0000000000000000000000000000000000098
:106900000000000000000000000000000000000087
:106910000000000000000000000000000000000077
:106920000000000000000000000000000000000067
:106930000000000000000000000000000000000057
:106940000000000000000000000000000000000047
:106950000000000000000000000000000000000037
:106960000000000000000000000000000000000027
:106970000000000000000000000000000000000017
:106980000000000000000000000000000000000007
:1069900000000000000000000000000000000000F7
:1069A00000000000000000000000000000000000E7
:1069B00000000000000000000000000000000000D7
:1069C00000000000000000020202020202000000BB
:1069D00000000000000000000000000000000000B7
:1069E00000010101010101000000000000000000A1
:1069F0000000000000000000000000000000000097
:106A00000000000000000000000000000000000086
:106A10000000000000000000000000000000000076
:106A20000000000000000000000000000000000066
:106A30000000000000000000000000000000000056
:106A40000000000000000000000000000000000046
:106A50000000000000000000000000000000000036
:106A60000000000000000000000000000000000026
:106A70000000000000000000000000000000000016
:106A80000000000000000000000000000000000006
:106A900000000000000000000000000000000000F6
:106AA00000000000000000000000000000000000E6
:106AB00000000000000000000000000000000000D6
:106AC00000000000000000020202020202000000BA
:106AD00000000000000000000000000000000000B6
:106AE00000010101010101000000000000000000A0
:106AF0000000000000000000000000000000000096
:106B00000000000000000000000000000000000085
:106B10000000000000000000000000000000000075
:106B20000000000000000000000000000000000065
:106B30000000000000000000000000000000000055
:106B40000000000000000000000000000000000045
:106B50000000000000000000000000000000000035
:106B60000000000000000000000000000000000025
:106B70000000000000000000000000000000000015
:106B80000000000000000000000000000000000005
:106B900000000000000000000000000000000000F5
:106BA00000000000000000000000000000000000E5
:106BB00000000000000000000000000000000000D5
:106BC00000000000000000020202020202020101B5
:106BD00000000000000000000000000000000000B5
:106BE000010101010101010000000000000000009E
:106BF0000000000000000000000000000000000095
:106C00000000000000000000000000000000000084
:106C10000000000000000000000000000000000074
:106C20000000000000000000000000000000000064
:106C30000000000000000000000000000000000054
:106C40000000000000000000000000000000000044
:106C50000000000000000000000000000000000034
:106C60000000000000000000000000000000000024
:106C70000000000000000000000000000000000014
:106C80000000000000000000000000000000000004
:106C900000000000000000000000000000000000F4
:106CA00000000000000000000000000000000000E4
:106CB00000000000000000000000000000000000D4
:106CC00000000000000000020202020202020201B3
:106CD00001000000000000000000000000000000B3
:106CE000010101010101010000000000000000009D
:106CF0000000000000000000000000000000000094
:106D00000000000000000000000000000000000083
:106D10000000000000000000000000000000000073
:106D20000000000000000000000000000000000063
:106D30000000000000000000000000000000000053
:106D40000000000000000000000000000000000043
:106D50000000000000000000000000000000000033
:106D60000000000000000000000000000000000023
:106D70000000000000000000000000000000000013
:106D80000000000000000000000000000000000003
:106D900000000000000000000000000000000000F3
:106DA00000000000000000000000000000000000E3
:106DB00000000000000000000000000000000000D3
:106DC00000000000000000020202020202020202B1
:106DD00001000000000000000000000000000000B2
:106DE000010101010101010000000000000000009C
:106DF0000000000000000000000000000000000093
:106E00000000000000000000000000000000000082
:106E10000000000000000000000000000000000072
:106E20000000000000000000000000000000000062
:106E30000000000000000000000000000000000052
:106E40000000000000000000000000000000000042
:106E50000000000000000000000000000000000032
:106E60000000000000000000000000000000000022
:106E70000000000000000000000000000000000012
:106E80000000000000000000000000000000000002
:106E900000000000000000000000000000000000F2
:106EA00000000000000000000000000000000000E2
:106EB00000000000000000000000000000000000D2
:106EC00000000000000000020202020202020202B0
:106ED00001010000000000000000000000000001AF
:106EE000010101010101010000000000000000009B
:106EF0000000000000000000000000000000000092
:106F00000000000000000000000000000000000081
:106F10000000000000000000000000000000000071
:106F20000000000000000000000000000000000061
:106F30000000000000000000000000000000000051
:106F40000000000000000000000000000000000041
:106F50000000000000000000000000000000000031
:106F60000000000000000000000000000000000021
:106F70000000000000000000000000000000000011
:106F80000000000000000000000000000000000001
:106F900000000000000000000000000000000000F1
:106FA00000000000000000000000000000000000E1
:106FB00000000000000000000000000000000000D1
:106FC00000000000000000020202020202020202AF
:106FD00002010000000000000000000000000001AD
:106FE000010101010101010000000000000000009A
:106FF0000000000000000000000000000000000091
:107000000000000000000000000000000000000080
:107010000000000000000000000000000000000070
:107020000000000000000000000000000000000060
:107030000000000000000000000000000000000050
:107040000000000000000000000000000000000040
:107050000000000000000000000000000000000030
:107060000000000000000000000000000000000020
:107070000000000000000000000000000000000010
:107080000000000000000000000000000000000000
:1070900000000000000000000000000000000000F0
:1070A00000000000000000000000000000000000E0
:1070B00000000000000000000000000000000000D0
:1070C00000000000000000020202020202020202AE
:1070D00002010100000000000000000000000101AA
:1070E0000101010101010100000000000000000099
:1070F0000000000000000000000000000000000090
:10710000000000000000000000000000000000007F
:10711000000000000000000000000000000000006F
:10712000000000000000000000000000000000005F
:10713000000000000000000000000000000000004F
:10714000000000000000000000000000000000003F
:10715000000000000000000000000000000000002F
:10716000000000000000000000000000000000001F
:10717000000000000000000000000000000000000F
:1071800000000000000000000000000000000000FF
:1071900000000000000000000000000000000000EF
:1071A00000000000000000000000000000000000DF
:1071B00000000000000000000000000000000000CF
:1071C00000000000000000020202020202020202AD
:1071D00002010100000000000000000000000101A9
:1071E0000101010101010100000000000000000098
:1071F000000000000000000000000000000000008F
:10720000000000000000000000000000000000007E
:10721000000000000000000000000000000000006E
:10722000000000000000000000000000000000005E
:10723000000000000000000000000000000000004E
:10724000000000000000000000000000000000003E
:10725000000000000000000000000000000000002E
:10726000000000000000000000000000000000001E
:10727000000000000000000000000000000000000E
:1072800000000000000000000000000000000000FE
:1072900000000000000000000000000000000000EE
:1072A00000000000000000000000000000000000DE
:1072B00000000000000000000000000000000000CE
:1072C00000000000000000020202020202020202AC
:1072D00002020101000000000000000000010101A5
:1072E0000101010101010100000000000000000097
:1072F000000000000000000000000000000000008E
:10730000000000000000000000000000000000007D
:10731000000000000000000000000000000000006D
:10732000000000000000000000000000000000005D
:10733000000000000000000000000000000000004D
:10734000000000000000000000000000000000003D
:10735000000000000000000000000000000000002D
:10736000000000000000000000000000000000001D
:10737000000000000000000000000000000000000D
:1073800000000000000000000000000000000000FD
:1073900000000000000000000000000000000000ED
:1073A00000000000000000000000000000000000DD
:1073B00000000000000000000000000000000000CD
:1073C00000000000000000020202020202020202AB
:1073D00002020201000000000000000000010101A3
:1073E0000101010101010100000000000000000096
:1073F000000000000000000000000000000000008D
:10740000000000000000000000000000000000007C
:10741000000000000000000000000000000000006C
:10742000000000000000000000000000000000005C
:10743000000000000000000000000000000000004C
:10744000000000000000000000000000000000003C
:10745000000000000000000000000000000000002C
:10746000000000000000000000000000000000001C
:10747000000000000000000000000000000000000C
:1074800000000000000000000000000000000000FC
:1074900000000000000000000000000000000000EC
:1074A00000000000000000000000000000000000DC
:1074B00000000000000000000000000000000000CC
:1074C00000000000000000020202020202020202AA
:1074D00002020202000000000000000000010101A1
:1074E0000101010101010100000000000000000095
:1074F000000000000000000000000000000000008C
:10750000000000000000000000000000000000007B
:10751000000000000000000000000000000000006B
:10752000000000000000000000000000000000005B
:10753000000000000000000000000000000000004B
:10754000000000000000000000000000000000003B
:10755000000000000000000000000000000000002B
:10756000000000000000000000000000000000001B
:10757000000000000000000000000000000000000B
:1075800000000000000000000000000000000000FB
:1075900000000000000000000000000000000000EB
:1075A00000000000000000000000000000000000DB
:1075B00000000000000000000000000000000000CB
:1075C00000000000000000020202020202020202A9
:1075D000020202020000000000000000010101019F
:1075E0000101010101010100000000000000000094
:1075F000000000000000000000000000000000008B
:10760000000000000000000000000000000000007A
:10761000000000000000000000000000000000006A
:10762000000000000000000000000000000000005A
:10763000000000000000000000000000000000004A
:10764000000000000000000000000000000000003A
:10765000000000000000000000000000000000002A
:10766000000000000000000000000000000000001A
:10767000000000000000000000000000000000000A
:1076800000000000000000000000000000000000FA
:1076900000000000000000000000000000000000EA
:1076A00000000000000000000000000000000000DA
:1076B00000000000000000000000000000000000CA
:1076C00000000000000000020202020202020202A8
:1076D000020202020100000000000000010101019D
:1076E0000101010101010100000000000000000093
:1076F000000000000000000000000000000000008A
:107700000000000000000000000000000000000079
:107710000000000000000000000000000000000069
:107720000000000000000000000000000000000059
:107730000000000000000000000000000000000049
:107740000000000000000000000000000000000039
:107750000000000000000000000000000000000029
:107760000000000000000000000000000000000019
:107770000000000000000000000000000000000009
:1077800000000000000000000000000000000000F9
:1077900000000000000000000000000000000000E9
:1077A00000000000000000000000000000000000D9
:1077B00000000000000000000000000000000000C9
:1077C00000000000000000020202020202020202A7
:1077D000020202020100000000000001010101019B
:1077E0000101010101010100000000000000000092
:1077F0000000000000000000000000000000000089
:107800000000000000000000000000000000000078
:107810000000000000000000000000000000000068
:107820000000000000000000000000000000000058
:107830000000000000000000000000000000000048
:107840000000000000000000000000000000000038
:107850000000000000000000000000000000000028
:107860000000000000000000000000000000000018
:107870000000000000000000000000000000000008
:1078800000000000000000000000000000000000F8
:1078900000000000000000000000000000000000E8
:1078A00000000000000000000000000000000000D8
:1078B00000000000000000000000000000000000C8
:1078C00000000000000000020202020202020202A6
:1078D0000202020202000000000000010101010199
:1078E0000101010101010100000000000000000091
:1078F0000000000000000000000000000000000088
:107900000000000000000000000000000000000077
:107910000000000000000000000000000000000067
:107920000000000000000000000000000000000057
:107930000000000000000000000000000000000047
:107940000000000000000000000000000000000037
:107950000000000000000000000000000000000027
:107960000000000000000000000000000000000017
:107970000000000000000000000000000000000007
:1079800000000000000000000000000000000000F7
:1079900000000000000000000000000000000000E7
:1079A00000000000000000000000000000000000D7
:1079B00000000000000000000000000000000000C7
:1079C00000000000000000020202020202020202A5
:1079D0000202020202000000000000010101010198
:1079E0000101010101010100000000000000000090
:1079F0000000000000000000000000000000000087
:107A00000000000000000000000000000000000076
:107A10000000000000000000000000000000000066
:107A20000000000000000000000000000000000056
:107A30000000000000000000000000000000000046
:107A40000000000000000000000000000000000036
:107A50000000000000000000000000000000000026
:107A60000000000000000000000000000000000016
:107A70000000000000000000000000000000000006
:107A800000000000000000000000000000000000F6
:107A900000000000000000000000000000000000E6
:107AA00000000000000000000000000000000000D6
:107AB00000000000000000000000000000000000C6
:107AC00000000000000000020202020202020202A4
:107AD0000202020202020000000000010101010195
:107AE000010101010101010000000000000000008F
:107AF0000000000000000000000000000000000086
:107B00000000000000000000000000000000000075
:107B10000000000000000000000000000000000065
:107B20000000000000000000000000000000000055
:107B30000000000000000000000000000000000045
:107B40000000000000000000000000000000000035
:107B50000000000000000000000000000000000025
:107B60000000000000000000000000000000000015
:107B70000000000000000000000000000000000005
:107B800000000000000000000000000000000000F5
:107B900000000000000000000000000000000000E5
:107BA00000000000000000000000000000000000D5
:107BB00000000000000000000000000000000000C5
:107BC00000000000000000020202020202020202A3
:107BD0000202020202020000000001010101010193
:107BE000010101010101010000000000000000008E
:107BF0000000000000000000000000000000000085
:107C00000000000000000000000000000000000074
:107C10000000000000000000000000000000000064
:107C20000000000000000000000000000000000054
:107C30000000000000000000000000000000000044
:107C40000000000000000000000000000000000034
:107C50000000000000000000000000000000000024
:107C60000000000000000000000000000000000014
:107C70000000000000000000000000000000000004
:107C800000000000000000000000000000000000F4
:107C900000000000000000000000000000000000E4
:107CA00000000000000000000000000000000000D4
:107CB00000000000000000000000000000000000C4
:107CC00000000000000000020202020202020202A2
:107CD0000202020202020000000001010101010192
:107CE000010101010101010000000000000000008D
:107CF0000000000000000000000000000000000084
:107D00000000000000000000000000000000000073
:107D10000000000000000000000000000000000063
:107D20000000000000000000000000000000000053
:107D30000000000000000000000000000000000043
:107D40000000000000000000000000000000000033
:107D50000000000000000000000000000000000023
:107D60000000000000000000000000000000000013
:107D70000000000000000000000000000000000003
:107D800000000000000000000000000000000000F3
:107D900000000000000000000000000000000000E3
:107DA00000000000000000000000000000000000D3
:107DB00000000000000000000000000000000000C3
:107DC00000000000000000020202020202020202A1
:107DD0000202020202020000000101010101010190
:107DE000010101010101010000000000000000008C
:107DF0000000000000000000000000000000000083
:107E00000000000000000000000000000000000072
:107E10000000000000000000000000000000000062
:107E20000000000000000000000000000000000052
:107E30000000000000000000000000000000000042
:107E40000000000000000000000000000000000032
:107E50000000000000000000000000000000000022
:107E60000000000000000000000000000000000012
:107E70000000000000000000000000000000000002
:107E800000000000000000000000000000000000F2
:107E900000000000000000000000000000000000E2
:107EA00000000000000000000000000000000000D2
:107EB00000000000000000000000000000000000C2
:107EC00000000000000000020202020202020202A0
:107ED000020202020202000000010101010101018F
:107EE000010101010101010000000000000000008B
:107EF0000000000000000000000000000000000082
:107F00000000000000000000000000000000000071
:107F10000000000000000000000000000000000061
:107F20000000000000000000000000000000000051
:107F30000000000000000000000000000000000041
:107F40000000000000000000000000000000000031
:107F50000000000000000000000000000000000021
:107F60000000000000000000000000000000000011
:107F70000000000000000000000000000000000001
:107F800000000000000000000000000000000000F1
:107F900000000000000000000000000000000000E1
:107FA00000000000000000000000000000000000D1
:107FB00000000000000000000000000000000000C1
:107FC000000000000000000202020202020202029F
:107FD000020202020202000000010101010101018E
:107FE000010101010101010000000000000000008A
:107FF0000000000000000000000000000000000081
:108000000000000000000000000000000000000070
:108010000000000000000000000000000000000060
:108020000000000000000000000000000000000050
:108030000000000000000000000000000000000040
:108040000000000000000000000000000000000030
:108050000000000000000000000000000000000020
:108060000000000000000000000000000000000010
:108070000000000000000000000000000000000000
:1080800000000000000000000000000000000000F0
:1080900000000000000000000000000000000000E0
:1080A00000000000000000000000000000000000D0
:1080B00000000000000000000000000000000000C0
:1080C000000000000000000202020202020202029E
:1080D000020202020202000001010101010101018C
:1080E0000101010101010100000000000000000089
:1080F0000000000000000000000000000000000080
:10810000000000000000000000000000000000006F
:10811000000000000000000000000000000000005F
:10812000000000000000000000000000000000004F
:10813000000000000000000000000000000000003F
:10814000000000000000000000000000000000002F
:10815000000000000000000000000000000000001F
:10816000000000000000000000000000000000000F
:1081700000000000000000000000000000000000FF
:1081800000000000000000000000000000000000EF
:1081900000000000000000000000000000000000DF
:1081A00000000000000000000000000000000000CF
:1081B00000000000000000000000000000000000BF
:1081C000000000000000000202020202020202029D
:1081D000020202020202000001010101010101018B
:1081E0000101010101010100000000000000000088
:1081F000000000000000000000000000000000007F
:10820000000000000000000000000000000000006E
:10821000000000000000000000000000000000005E
:10822000000000000000000000000000000000004E
:10823000000000000000000000000000000000003E
:10824000000000000000000000000000000000002E
:10825000000000000000000000000000000000001E
:10826000000000000000000000000000000000000E
:1082700000000000000000000000000000000000FE
:1082800000000000000000000000000000000000EE
:1082900000000000000000000000000000000000DE
:1082A00000000000000000000000000000000000CE
:1082B00000000000000000000000000000000000BE
:1082C000000000000000000202020202020202029C
:1082D000020202020202000001010101010101018A
:1082E0000101010101010100000000000000000087
:1082F000000000000000000000000000000000007E
:10830000000000000000000000000000000000006D
:10831000000000000000000000000000000000005D
:10832000000000000000000000000000000000004D
:10833000000000000000000000000000000000003D
:10834000000000000000000000000000000000002D
:10835000000000000000000000000000000000001D
:10836000000000000000000000000000000000000D
:1083700000000000000000000000000000000000FD
:1083800000000000000000000000000000000000ED
:1083900000000000000000000000000000000000DD
:1083A00000000000000000000000000000000000CD
:1083B00000000000000000000000000000000000BD
:1083C000000000000000000202020202020202029B
:1083D0000202020202020000010101010101010189
:1083E0000101010101010100000000000000000086
:1083F000000000000000000000000000000000007D
:10840000000000000000000000000000000000006C
:10841000000000000000000000000000000000005C
:10842000000000000000000000000000000000004C
:10843000000000000000000000000000000000003C
:10844000000000000000000000000000000000002C
:10845000000000000000000000000000000000001C
:10846000000000000000000000000000000000000C
:1084700000000000000000000000000000000000FC
:1084800000000000000000000000000000000000EC
:1084900000000000000000000000000000000000DC
:1084A00000000000000000000000000000000000CC
:1084B00000000000000000000000000000000000BC
:1084C000000000000000000202020202020202029A
:1084D0000202020202020000010101010101010188
:1084E0000101010101010100000000000000000085
:1084F000000000000000000000000000000000007C
:10850000000000000000000000000000000000006B
:10851000000000000000000000000000000000005B
:10852000000000000000000000000000000000004B
:10853000000000000000000000000000000000003B
:10854000000000000000000000000000000000002B
:10855000000000000000000000000000000000001B
:10856000000000000000000000000000000000000B
:1085700000000000000000000000000000000000FB
:1085800000000000000000000000000000000000EB
:1085900000000000000000000000000000000000DB
:1085A00000000000000000000000000000000000CB
:1085B00000000000000000000000000000000000BB
:1085C0000000000000000002020202020202020299
:1085D0000202020202020000010101010101010187
:1085E0000101010101010100000000000000000084
:1085F000000000000000000000000000000000007B
:10860000000000000000000000000000000000006A
:10861000000000000000000000000000000000005A
:10862000000000000000000000000000000000004A
:10863000000000000000000000000000000000003A
:10864000000000000000000000000000000000002A
:10865000000000000000000000000000000000001A
:10866000000000000000000000000000000000000A
:1086700000000000000000000000000000000000FA
:1086800000000000000000000000000000000000EA
:1086900000000000000000000000000000000000DA
:1086A00000000000000000000000000000000000CA
:1086B00000000000000000000000000000000000BA
:1086C0000000000000000002020202020202020298
:1086D000020202020202000000000000000000008E
:1086E000000000000000000000000000000000008A
:1086F000000000000000000000000000000000007A
:108700000000000000000000000000000000000069
:108710000000000000000000000000000000000059
:108720000000000000000000000000000000000049
:108730000000000000000000000000000000000039
:108740000000000000000000000000000000000029
:108750000000000000000000000000000000000019
:108760000000000000000000000000000000000009
:1087700000000000000000000000000000000000F9
:1087800000000000000000000000000000000000E9
:1087900000000000000000000000000000000000D9
:1087A00000000000000000000000000000000000C9
:1087B00000000000000000000000000000000000B9
:1087C00000000000000000000000000000000000A9
:1087D000000000000000002A00000000000000006F
:1087E0000000000000000000000000000000010088
:1087F0000000000000000000000000000000000079
:108800000000000000000000000000000000000068
:108810000000000000000000000000000000000058
:108820000000000000000000000000000000000048
:108830000000000000000000000000000000000038
:108840000000000000000000000000000000000028
:108850000000000000000000000000000000000018
:108860000000000000000000000000000000000008
:1088700000000000000000000000000000000000F8
:1088800000000000000000000000000000000000E8
:1088900000000000000000000000000000000000D8
:1088A00000000000000000000000000000000000C8
:1088B00000000000000000000000000000000000B8
:1088C00000000000000000000000000000000002A6
:1088D0000000000000000000000000000000000098
:1088E0000000000000000000000000000000010087
:1088F0000000000000000000000000000000000078
:108900000000000000000000000000000000000067
:108910000000000000000000000000000000000057
:108920000000000000000000000000000000000047
:108930000000000000000000000000000000000037
:108940000000000000000000000000000000000027
:108950000000000000000000000000000000000017
:108960000000000000000000000000000000000007
:1089700000000000000000000000000000000000F7
:1089800000000000000000000000000000000000E7
:1089900000000000000000000000000000000000D7
:1089A00000000000000000000000000000000000C7
:1089B00000000000000000000000000000000000B7
:1089C00000000000000000000000000000000002A5
:1089D0000000000000000000000000000000000097
:1089E0000000000000000000000000000000010086
:1089F0000000000000000000000000000000000077
:108A00000000000000000000000000000000000066
:108A10000000000000000000000000000000000056
:108A20000000000000000000000000000000000046
:108A30000000000000000000000000000000000036
:108A40000000000000000000000000000000000026
:108A50000000000000000000000000000000000016
:108A60000000000000000000000000000000000006
:108A700000000000000000000000000000000000F6
:108A800000000000000000000000000000000000E6
:108A900000000000000000000000000000000000D6
:108AA00000000000000000000000000000000000C6
:108AB00000000000000000000000000000000000B6
:108AC00000000000000000000000000000000002A4
:108AD0000000000000000000000000000000000096
:108AE0000000000000000000000000000000010085
:108AF0000000000000000000000000000000000076
:108B00000000000000000000000000000000000065
:108B10000000000000000000000000000000000055
:108B20000000000000000000000000000000000045
:108B30000000000000000000000000000000000035
:108B40000000000000000000000000000000000025
:108B50000000000000000000000000000000000015
:108B60000000000000000000000000000000000005
:108B700000000000000000000000000000000000F5
:108B800000000000000000000000000000000000E5
:108B900000000000000000000000000000000000D5
:108BA00000000000000000000000000000000000C5
:108BB00000000000000000000000000000000000B5
:108BC00000000000000000000000000000000002A3
:108BD0000200000000000000000000000000000093
:108BE0000000000000000000000000000000010084
:108BF0000000000000000000000000000000000075
:108C00000000000000000000000000000000000064
:108C10000000000000000000000000000000000054
:108C20000000000000000000000000000000000044
:108C30000000000000000000000000000000000034
:108C40000000000000000000000000000000000024
:108C50000000000000000000000000000000000014
:108C60000000000000000000000000000000000004
:108C700000000000000000000000000000000000F4
:108C800000000000000000000000000000000000E4
:108C900000000000000000000000000000000000D4
:108CA00000000000000000000000000000000000C4
:108CB00000000000000000000000000000000000B4
:108CC00000000000000000000000000000000002A2
:108CD0000200000000000000000000000000000092
:108CE0000000000000000000000000000000010083
:108CF0000000000000000000000000000000000074
:108D00000000000000000000000000000000000063
:108D10000000000000000000000000000000000053
:108D20000000000000000000000000000000000043
:108D30000000000000000000000000000000000033
:108D40000000000000000000000000000000000023
:108D50000000000000000000000000000000000013
:108D60000000000000000000000000000000000003
:108D700000000000000000000000000000000000F3
:108D800000000000000000000000000000000000E3
:108D900000000000000000000000000000000000D3
:108DA00000000000000000000000000000000000C3
:108DB00000000000000000000000000000000000B3
:108DC00000000000000000000000000000000002A1
:108DD0000200000000000000000000000000000091
:108DE0000000000000000000000000000000010082
:108DF0000000000000000000000000000000000073
:108E00000000000000000000000000000000000062
:108E10000000000000000000000000000000000052
:108E20000000000000000000000000000000000042
:108E30000000000000000000000000000000000032
:108E40000000000000000000000000000000000022
:108E50000000000000000000000000000000000012
:108E60000000000000000000000000000000000002
:108E700000000000000000000000000000000000F2
:108E800000000000000000000000000000000000E2
:108E900000000000000000000000000000000000D2
:108EA00000000000000000000000000000000000C2
