:10000000D0D5AECF728601003E05000005061F0068
:1000100001B201153C240285000000004000005D93
:100020004700000100030D00FFFC0000000000532A
:10003000000306090C0F1215181B1E21262B302059
:100040000000000000000000AE050000000000E01D
:1000500058070000000000C0E70B000000000090FF
:10006000000000000000009880000000000000A0D8
:10007000EC000000000000A848010000000000B0F3
:10008000A4010000000000B804020000000000C04D
:100090007F020000000000C8F0020000000000D055
:1000A00061030000000000D8C2030000000000E06F
:1000B00023040000000000E884040000000000F0B9
:1000C000E7040000000000F84A050000000000807E
:1000D0000000000000000001010101010101010117
:1000E0000101010101010101010101010101010100
:1000F00001010101010101010101010101010101F0
:1001000001010101010101010101010101010101DF
:1001100001010101010101010101010101010101CF
:1038D00001010101010101000000000000000000E1
:1038E00000000000000000000000000000000000D8
:1038F00000000000000000000000000000000000C8
:1039000000000000000000000000000000000000B7
:1039100000000000000000000000000000000000A7
:103CD00000000000000000010101010101010101DB
:103CE00001010101010101010101010101010101C4
:103CF00001010101010101010101010101010101B4
:103D000001010101010101010101010101010101A3
:103D10000101010101010101010101010101010193
:1040D00001010101010101020202020202020202C7
:1040E00002020202020202020202020202020202B0
:1040F00002020202020202020202020202020202A0
:10410000020202020202020202020202020202028F
:10411000020202020202020202020202020202027F
:107CD0000202020202020200000000000000000096
:107CE0000000000000000000000000000000000094
:107CF0000000000000000000000000000000000084
:107D00000000000000000000000000000000000073
:107D10000000000000000000000000000000000063
:1080D000000000000000006C000000000000000133
:1080E0000101010101010101010101010101010180
:1080F0000101010101010101010101010101010170
:10810000010101010101010101010101010101015F
:10811000010101010101010101010101010101014F
:10B1D0000101010101010101010101010101010060
:10B1E000000000000000000000000000000000005F
:10B1F000000000000000000000000000000000004F
:10B20000000000000000000000000000000000003E
:10B21000000000000000000000000000000000002E
:10B5D000000000000000000000000000000000016A
:10B5E000010101010101010101010101010101014B
:10B5F000010101010101010101010101010101013B
:10B60000010101010101010101010101010101012A
:10B61000010101010101010101010101010101011A
:10B62000010101010101010101010101010101010A
:10B6300001010101010101010101010101010101FA
:10B6400001010101010101010101010101010101EA
:10B6500001010101010101010101010101010101DA
:10B6600001010101010101010101010101010101CA
:10B6700001010101010101010101010101010101BA
:10B6800001010101010101010101010101010101AA
:10B69000010101010101010101010101010101019A
:10B6A000010101010101010101010101010101018A
:10B6B000010101010101010101010101010101017A
:10B6C000010101010101010101010101010101016A
:10B6D0000101010101010101010101010101010259
:10B6E000020202020202020202020202020202023A
:10B6F000020202020202020202020202020202022A
:10B700000202020202020202020202020202020219
:10B710000202020202020202020202020202020209
:10E8D000020202020202020202020202020202001A
:10E8E0000000000000000000000000000000000028
:10E8F0000000000000000000000000000000000018
:10E900000000000000000000000000000000000007
:10E9100000000000000000000000000000000000F7
:10ECD0000000000000000000000000000000005CD8
:10ECE000000000000000000101010101010101011B
:10ECF0000101010101010101010101010101010104
:10ED000001010101010101010101010101010101F3
:10ED100001010101010101010101010101010101E3
:10ED200001010101010101010101010101010101D3
:020000021000EC
:1015E00001010101010101000000000000000000F4
:1015F00000000000000000000000000000000000EB
:1016000000000000000000000000000000000000DA
:1016100000000000000000000000000000000000CA
:1016200000000000000000000000000000000000BA
:1019E00000000000000000010101010101010101EE
:1019F00001010101010101010101010101010101D7
:101A000001010101010101010101010101010101C6
:101A100001010101010101010101010101010101B6
:101A200001010101010101010101010101010101A6
:101A30000101010101010101010101010101010196
:101A40000101010101010101010101010101010186
:101A50000101010101010101010101010101010176
:101A60000101010101010101010101010101010166
:101A70000101010101010101010101010101010156
:101A80000101010101010101010101010101010146
:101A90000101010101010101010101010101010136
:101AA0000101010101010101010101010101010126
:101AB0000101010101010101010101010101010116
:101AC0000101010101010101010101010101010106
:101AD00001010101010101010101010101010101F6
:101AE00001010101010101020202020202020202DD
:101AF00002020202020202020202020202020202C6
:101B000002020202020202020202020202020202B5
:101B100002020202020202020202020202020202A5
:101B20000202020202020202020202020202020295
:1044E00002020202020202000000000000000000BE
:1044F00000000000000000000000000000000000BC
:1045000000000000000000000000000000000000AB
:10451000000000000000000000000000000000009B
:10452000000000000000000000000000000000008B
:1048E000000000000000005C00000000000000016B
:1048F00001010101010101010101010101010101A8
:104900000101010101010101010101010101010197
:104910000101010101010101010101010101010187
:104920000101010101010101010101010101010177
:1071E0000101010101010101010101010101010090
:1071F000000000000000000000000000000000008F
:10720000000000000000000000000000000000007E
:10721000000000000000000000000000000000006E
:10722000000000000000000000000000000000005E
:1075E000000000000000000000000000000000019A
:1075F000010101010101010101010101010101017B
:10760000010101010101010101010101010101016A
:10761000010101010101010101010101010101015A
:10762000010101010101010101010101010101014A
:10763000010101010101010101010101010101013A
:10764000010101010101010101010101010101012A
:10765000010101010101010101010101010101011A
:10766000010101010101010101010101010101010A
:1076700001010101010101010101010101010101FA
:1076800001010101010101010101010101010101EA
:1076900001010101010101010101010101010101DA
:1076A00001010101010101010101010101010101CA
:1076B00001010101010101010101010101010101BA
:1076C00001010101010101010101010101010101AA
:1076D000010101010101010101010101010101019A
:1076E0000101010101010101010101010101010289
:1076F000020202020202020202020202020202026A
:107700000202020202020202020202020202020259
:107710000202020202020202020202020202020249
:107720000202020202020202020202020202020239
:10A0E0000202020202020202020202020202020052
:10A0F0000000000000000000000000000000000060
:10A10000000000000000000000000000000000004F
:10A11000000000000000000000000000000000003F
:10A12000000000000000000000000000000000002F
:10A4E000000000000000000000000000000000600C
:10A4F0000000000000000001010101010101010153
:10A50000010101010101010101010101010101013B
:10A51000010101010101010101010101010101012B
:10A52000010101010101010101010101010101011B
:10A53000010101010101010101010101010101010B
:10C5F0000101010101010100000000000000000034
:10C60000000000000000000000000000000000002A
:10C61000000000000000000000000000000000001A
:10C62000000000000000000000000000000000000A
:10C6300000000000000000000000000000000000FA
:10C9F000000000000000000101010101010101012E
:10CA00000101010101010101010101010101010116
:10CA10000101010101010101010101010101010106
:10CA200001010101010101010101010101010101F6
:10CA300001010101010101010101010101010101E6
:10D4F0000101010101010102020202020202020213
:10D5000002020202020202020202020202020202FB
:10D5100002020202020202020202020202020202EB
:10D5200002020202020202020202020202020202DB
:10D5300002020202020202020202020202020202CB
:020000022000DC
:1000F00002020202020202000000000000000000F2
:1001000000000000000000000000000000000000EF
:1001100000000000000000000000000000000000DF
:1001200000000000000000000000000000000000CF
:1001300000000000000000000000000000000000BF
:1004F000000000000000007B000000000000000180
:1005000001010101010101010101010101010101DB
:1005100001010101010101010101010101010101CB
:1005200001010101010101010101010101010101BB
:1005300001010101010101010101010101010101AB
:101EF00001010101010101010101010101010100D3
:101F000000000000000000000000000000000000D1
:101F100000000000000000000000000000000000C1
:101F200000000000000000000000000000000000B1
:101F300000000000000000000000000000000000A1
:1022F00000000000000000000000000000000002DC
:1023000002020202020202020202020202020202AD
:10231000020202020202020202020202020202029D
:10232000020202020202020202020202020202028D
:10233000020202020202020202020202020202027D
:103CF00002020202020202020202020202020200A6
:103D000000000000000000000000000000000000B3
:103D100000000000000000000000000000000000A3
:103D20000000000000000000000000000000000093
:103D30000000000000000000000000000000000083
:1043F00000000000000000000000000000000001BC
:10440000010101010101010101010101010101019C
:10441000010101010101010101010101010101018C
:10442000010101010101010101010101010101017C
:10443000010101010101010101010101010101016C
:105DF0000101010101010101010101010101010094
:105E00000000000000000000000000000000000092
:105E10000000000000000000000000000000000082
:105E20000000000000000000000000000000000072
:105E30000000000000000000000000000000000062
:1061F000000000000000000000000000000000029D
:10620000020202020202020202020202020202026E
:10621000020202020202020202020202020202025E
:10622000020202020202020202020202020202024E
:10623000020202020202020202020202020202023E
:107BF0000202020202020202020202020202020067
:107C00000000000000000000000000000000000074
:107C10000000000000000000000000000000000064
:107C20000000000000000000000000000000000054
:107C30000000000000000000000000000000000044
:107FF0000000000000000000000000000000007110
:108000000000000000000001010101010101010167
:108010000101010101010101010101010101010150
:108020000101010101010101010101010101010140
:108030000101010101010101010101010101010130
:108040000101010101010101010101010101010120
:109800000101010101010100000000000000000051
:109810000000000000000000000000000000000048
:109820000000000000000000000000000000000038
:109830000000000000000000000000000000000028
:109840000000000000000000000000000000000018
:109C00000000000000000002020202020202020242
:109C10000202020202020202020202020202020224
:109C20000202020202020202020202020202020214
:109C30000202020202020202020202020202020204
:109C400002020202020202020202020202020202F4
:10B40000020202020202020000000000000000002E
:10B41000000000000000000000000000000000002C
:10B42000000000000000000000000000000000001C
:10B43000000000000000000000000000000000000C
:10B4400000000000000000000000000000000000FC
:10BA0000000000000000000101010101010101012D
:10BA10000101010101010101010101010101010116
:10BA20000101010101010101010101010101010106
:10BA300001010101010101010101010101010101F6
:10BA400001010101010101010101010101010101E6
:10D200000101010101010100000000000000000017
:10D21000000000000000000000000000000000000E
:10D2200000000000000000000000000000000000FE
:10D2300000000000000000000000000000000000EE
:10D2400000000000000000000000000000000000DE
:10D600000000000000000002020202020202020208
:10D6100002020202020202020202020202020202EA
:10D6200002020202020202020202020202020202DA
:10D6300002020202020202020202020202020202CA
:10D6400002020202020202020202020202020202BA
:10EE000002020202020202000000000000000000F4
:10EE100000000000000000000000000000000000F2
:10EE200000000000000000000000000000000000E2
:10EE300000000000000000000000000000000000D2
:10EE400000000000000000000000000000000000C2
:10F10000000000000000007100000000000000018D
:10F1100001010101010101010101010101010101DF
:10F1200001010101010101010101010101010101CF
:10F1300001010101010101010101010101010101BF
:10F1400001010101010101010101010101010101AF
:020000023000CC
:1007000001010101010101010101010101010100DA
:1007100000000000000000000000000000000000D9
:1007200000000000000000000000000000000000C9
:1007300000000000000000000000000000000000B9
:1007400000000000000000000000000000000000A9
:100B000000000000000000000000000000000001E4
:100B100001010101010101010101010101010101C5
:100B200001010101010101010101010101010101B5
:100B300001010101010101010101010101010101A5
:100B40000101010101010101010101010101010195
:100B50000101010101010101010101010101010185
:100B60000101010101010101010101010101010175
:100B70000101010101010101010101010101010165
:100B80000101010101010101010101010101010155
:100B90000101010101010101010101010101010145
:100BA0000101010101010101010101010101010135
:100BB0000101010101010101010101010101010125
:100BC0000101010101010101010101010101010115
:100BD0000101010101010101010101010101010105
:100BE00001010101010101010101010101010101F5
:100BF00001010101010101010101010101010101E5
:100C000001010101010101010101010101010101D4
:100C100001010101010101010101010101010101C4
:100C200001010101010101010101010101010101B4
:100C300001010101010101010101010101010101A4
:100C40000101010101010101010101010101010194
:100C50000101010101010101010101010101010184
:100C60000101010101010101010101010101010174
:100C70000101010101010101010101010101010164
:100C80000101010101010101010101010101010154
:100C90000101010101010101010101010101010144
:100CA0000101010101010101010101010101010134
:100CB0000101010101010101010101010101010124
:100CC0000101010101010101010101010101010114
:100CD0000101010101010101010101010101010104
:100CE00001010101010101010101010101010101F4
:100CF00001010101010101010101010101010101E4
:100D000001010101010101010101010101010102D2
:100D100002020202020202020202020202020202B3
:100D200002020202020202020202020202020202A3
:100D30000202020202020202020202020202020293
:100D40000202020202020202020202020202020283
:1025000002020202020202020202020202020200AD
:1025100000000000000000000000000000000000BB
:1025200000000000000000000000000000000000AB
:10253000000000000000000000000000000000009B
:10254000000000000000000000000000000000008B
:102B000000000000000000000000000000000001C4
:102B100001010101010101010101010101010101A5
:102B20000101010101010101010101010101010195
:102B30000101010101010101010101010101010185
:102B40000101010101010101010101010101010175
:1041000001010101010101010101010101010100A0
:10411000000000000000000000000000000000009F
:10412000000000000000000000000000000000008F
:10413000000000000000000000000000000000007F
:10414000000000000000000000000000000000006F
:1045000000000000000000000000000000000001AA
:10451000010101010101010101010101010101018B
:10452000010101010101010101010101010101017B
:10453000010101010101010101010101010101016B
:10454000010101010101010101010101010101015B
:10455000010101010101010101010101010101014B
:10456000010101010101010101010101010101013B
:10457000010101010101010101010101010101012B
:10458000010101010101010101010101010101011B
:10459000010101010101010101010101010101010B
:1045A00001010101010101010101010101010101FB
:1045B00001010101010101010101010101010101EB
:1045C00001010101010101010101010101010101DB
:1045D00001010101010101010101010101010101CB
:1045E00001010101010101010101010101010101BB
:1045F00001010101010101010101010101010101AB
:10460000010101010101010101010101010101019A
:10461000010101010101010101010101010101018A
:10462000010101010101010101010101010101017A
:10463000010101010101010101010101010101016A
:10464000010101010101010101010101010101015A
:10465000010101010101010101010101010101014A
:10466000010101010101010101010101010101013A
:10467000010101010101010101010101010101012A
:10468000010101010101010101010101010101011A
:10469000010101010101010101010101010101010A
:1046A00001010101010101010101010101010101FA
:1046B00001010101010101010101010101010101EA
:1046C00001010101010101010101010101010101DA
:1046D00001010101010101010101010101010101CA
:1046E00001010101010101010101010101010101BA
:1046F00001010101010101010101010101010101AA
:104700000101010101010101010101010101010298
:104710000202020202020202020202020202020279
:104720000202020202020202020202020202020269
:104730000202020202020202020202020202020259
:104740000202020202020202020202020202020249
:105F00000202020202020202020202020202020073
:105F10000000000000000000000000000000000081
:105F20000000000000000000000000000000000071
:105F30000000000000000000000000000000000061
:105F40000000000000000000000000000000000051
:10620000000000000000000000000000000000612D
:106210000000000000000001010101010101010175
:10622000010101010101010101010101010101015E
:10623000010101010101010101010101010101014E
:10624000010101010101010101010101010101013E
:10625000010101010101010101010101010101012E
:107610000101010101010100000000000000000063
:10762000000000000000000000000000000000005A
:10763000000000000000000000000000000000004A
:10764000000000000000000000000000000000003A
:10765000000000000000000000000000000000002A
:107A10000000000000000002020202020202020254
:107A20000202020202020202020202020202020236
:107A30000202020202020202020202020202020226
:107A40000202020202020202020202020202020216
:107A50000202020202020202020202020202020206
:108E10000202020202020200000000000000000044
:108E20000000000000000000000000000000000042
:108E30000000000000000000000000000000000032
:108E40000000000000000000000000000000000022
:108E50000000000000000000000000000000000012
:109410000000000000000001010101010101010143
:10942000010101010101010101010101010101012C
:10943000010101010101010101010101010101011C
:10944000010101010101010101010101010101010C
:1094500001010101010101010101010101010101FC
:10A810000101010101010100000000000000000031
:10A820000000000000000000000000000000000028
:10A830000000000000000000000000000000000018
:10A840000000000000000000000000000000000008
:10A8500000000000000000000000000000000000F8
:10AC10000000000000000002020202020202020222
:10AC20000202020202020202020202020202020204
:10AC300002020202020202020202020202020202F4
:10AC400002020202020202020202020202020202E4
:10AC500002020202020202020202020202020202D4
:10C010000202020202020200000000000000000012
:10C020000000000000000000000000000000000010
:10C030000000000000000000000000000000000000
:10C0400000000000000000000000000000000000F0
:10C0500000000000000000000000000000000000E0
:10C3100000000000000000610000000000000001BB
:10C3200001010101010101010101010101010101FD
:10C3300001010101010101010101010101010101ED
:10C3400001010101010101010101010101010101DD
:10C3500001010101010101010101010101010101CD
:10D7100001010101010101010101010101010100FA
:10D7200000000000000000000000000000000000F9
:10D7300000000000000000000000000000000000E9
:10D7400000000000000000000000000000000000D9
:10D7500000000000000000000000000000000000C9
:10DB10000000000000000000000000000000000203
:10DB200002020202020202020202020202020202D5
:10DB300002020202020202020202020202020202C5
:10DB400002020202020202020202020202020202B5
:10DB500002020202020202020202020202020202A5
:10EF100002020202020202020202020202020200D3
:10EF200000000000000000000000000000000000E1
:10EF300000000000000000000000000000000000D1
:10EF400000000000000000000000000000000000C1
:10EF500000000000000000000000000000000000B1
:10F5100000000000000000000000000000000001EA
:10F5200001010101010101010101010101010101CB
:10F5300001010101010101010101010101010101BB
:10F5400001010101010101010101010101010101AB
:10F55000010101010101010101010101010101019B
:020000024000BC
:1009100001010101010101010101010101010100C8
:1009200000000000000000000000000000000000C7
:1009300000000000000000000000000000000000B7
:1009400000000000000000000000000000000000A7
:100950000000000000000000000000000000000097
:100D100000000000000000000000000000000002D1
:100D200002020202020202020202020202020202A3
:100D30000202020202020202020202020202020293
:100D40000202020202020202020202020202020283
:100D50000202020202020202020202020202020273
:1021100002020202020202020202020202020200A1
:1021200000000000000000000000000000000000AF
:10213000000000000000000000000000000000009F
:10214000000000000000000000000000000000008F
:10215000000000000000000000000000000000007F
:10241000000000000000000000000000000000615B
:1024200000000000000000010101010101010101A3
:10243000010101010101010101010101010101018C
:10244000010101010101010101010101010101017C
:10245000010101010101010101010101010101016C
:10246000010101010101010101010101010101015C
:103820000101010101010100000000000000000091
:103830000000000000000000000000000000000088
:103840000000000000000000000000000000000078
:103850000000000000000000000000000000000068
:103860000000000000000000000000000000000058
:103C20000000000000000002020202020202020282
:103C30000202020202020202020202020202020264
:103C40000202020202020202020202020202020254
:103C50000202020202020202020202020202020244
:103C60000202020202020202020202020202020234
:105020000202020202020200000000000000000072
:105030000000000000000000000000000000000070
:105040000000000000000000000000000000000060
:105050000000000000000000000000000000000050
:105060000000000000000000000000000000000040
:105620000000000000000001010101010101010171
:10563000010101010101010101010101010101015A
:10564000010101010101010101010101010101014A
:10565000010101010101010101010101010101013A
:10566000010101010101010101010101010101012A
:106A2000010101010101010000000000000000005F
:106A30000000000000000000000000000000000056
:106A40000000000000000000000000000000000046
:106A50000000000000000000000000000000000036
:106A60000000000000000000000000000000000026
:106E20000000000000000002020202020202020250
:106E30000202020202020202020202020202020232
:106E40000202020202020202020202020202020222
:106E50000202020202020202020202020202020212
:106E60000202020202020202020202020202020202
:108220000202020202020200000000000000000040
:10823000000000000000000000000000000000003E
:10824000000000000000000000000000000000002E
:10825000000000000000000000000000000000001E
:10826000000000000000000000000000000000000E
:1085200000000000000000630000000000000001E7
:10853000010101010101010101010101010101012B
:10854000010101010101010101010101010101011B
:10855000010101010101010101010101010101010B
:1085600001010101010101010101010101010101FB
:109920000101010101010101010101010101010028
:109930000000000000000000000000000000000027
:109940000000000000000000000000000000000017
:109950000000000000000000000000000000000007
:1099600000000000000000000000000000000000F7
:109D20000000000000000000000000000000000231
:109D30000202020202020202020202020202020203
:109D400002020202020202020202020202020202F3
:109D500002020202020202020202020202020202E3
:109D600002020202020202020202020202020202D3
:10B120000202020202020202020202020202020001
:10B13000000000000000000000000000000000000F
:10B1400000000000000000000000000000000000FF
:10B1500000000000000000000000000000000000EF
:10B1600000000000000000000000000000000000DF
:10B820000000000000000000000000000000000117
:10B8300001010101010101010101010101010101F8
:10B8400001010101010101010101010101010101E8
:10B8500001010101010101010101010101010101D8
:10B8600001010101010101010101010101010101C8
:10CC200001010101010101010101010101010100F5
:10CC300000000000000000000000000000000000F4
:10CC400000000000000000000000000000000000E4
:10CC500000000000000000000000000000000000D4
:10CC600000000000000000000000000000000000C4
:10D0200000000000000000000000000000000002FE
:10D0300002020202020202020202020202020202D0
:10D0400002020202020202020202020202020202C0
:10D0500002020202020202020202020202020202B0
:10D0600002020202020202020202020202020202A0
:10E4200002020202020202020202020202020200CE
:10E4300000000000000000000000000000000000DC
:10E4400000000000000000000000000000000000CC
:10E4500000000000000000000000000000000000BC
:10E4600000000000000000000000000000000000AC
:10E820000000000000000000000000000000006385
:10E8300000000000000000010101010101010101CF
:10E8400001010101010101010101010101010101B8
:10E8500001010101010101010101010101010101A8
:10E860000101010101010101010101010101010198
:10E870000101010101010101010101010101010188
:10FC300001010101010101000000000000000000BD
:10FC400000000000000000000000000000000000B4
:10FC500000000000000000000000000000000000A4
:10FC60000000000000000000000000000000000094
:10FC70000000000000000000000000000000000084
:020000025000AC
:1000300000000000000000020202020202020202AE
:100040000202020202020202020202020202020290
:100050000202020202020202020202020202020280
:100060000202020202020202020202020202020270
:100070000202020202020202020202020202020260
:10143000020202020202020000000000000000009E
:10144000000000000000000000000000000000009C
:10145000000000000000000000000000000000008C
:10146000000000000000000000000000000000007C
:10147000000000000000000000000000000000006C
:101B3000000000000000000101010101010101019C
:101B40000101010101010101010101010101010185
:101B50000101010101010101010101010101010175
:101B60000101010101010101010101010101010165
:101B70000101010101010101010101010101010155
:102F3000010101010101010000000000000000008A
:102F40000000000000000000000000000000000081
:102F50000000000000000000000000000000000071
:102F60000000000000000000000000000000000061
:102F70000000000000000000000000000000000051
:10333000000000000000000202020202020202027B
:10334000020202020202020202020202020202025D
:10335000020202020202020202020202020202024D
:10336000020202020202020202020202020202023D
:10337000020202020202020202020202020202022D
:10473000020202020202020000000000000000006B
:104740000000000000000000000000000000000069
:104750000000000000000000000000000000000059
:104760000000000000000000000000000000000049
:104770000000000000000000000000000000000039
:104B30000000000000000063000000000000000111
:104B40000101010101010101010101010101010155
:104B50000101010101010101010101010101010145
:104B60000101010101010101010101010101010135
:104B70000101010101010101010101010101010125
:105F30000101010101010101010101010101010052
:105F40000000000000000000000000000000000051
:105F50000000000000000000000000000000000041
:105F60000000000000000000000000000000000031
:105F70000000000000000000000000000000000021
:10633000000000000000000000000000000000025B
:10634000020202020202020202020202020202022D
:10635000020202020202020202020202020202021D
:10636000020202020202020202020202020202020D
:1063700002020202020202020202020202020202FD
:10773000020202020202020202020202020202002B
:107740000000000000000000000000000000000039
:107750000000000000000000000000000000000029
:107760000000000000000000000000000000000019
:107770000000000000000000000000000000000009
:107E30000000000000000000000000000000000141
:107E40000101010101010101010101010101010122
:107E50000101010101010101010101010101010112
:107E60000101010101010101010101010101010102
:107E700001010101010101010101010101010101F2
:10923000010101010101010101010101010101001F
:10924000000000000000000000000000000000001E
:10925000000000000000000000000000000000000E
:1092600000000000000000000000000000000000FE
:1092700000000000000000000000000000000000EE
:109630000000000000000000000000000000000228
:1096400002020202020202020202020202020202FA
:1096500002020202020202020202020202020202EA
:1096600002020202020202020202020202020202DA
:1096700002020202020202020202020202020202CA
:10AA300002020202020202020202020202020200F8
:10AA40000000000000000000000000000000000006
:10AA500000000000000000000000000000000000F6
:10AA600000000000000000000000000000000000E6
:10AA700000000000000000000000000000000000D6
:10AE300000000000000000000000000000000070A2
:10AE4000AE05000000000078E7050000000000806B
:10AE50001906000000000088430600000000009072
:10AE60006D060000000000988F060000000000A0A2
:10AE7000AA060000000000A8C3060000000000B001
:10AE8000DA060000000000B8EF060000000000C075
:10AE900004070000000000C819070000000000D0EF
:10AEA0002E070000000000D8430700000000003912
:10AEB0000000000000000000000000000000000092
:10AEC0000000000000000100000000000000000081
:10AED0000000000000000000000000000000000072
:10AEE0000000000000000000000000000000000062
:10AEF0000000000000000000000000000000000052
:10AF00000000000000000000000000000000000041
:10AF10000000000000000000000000000000000031
:10AF20000000000000000000000000000000000021
:10AF30000000000000000000000000000000000011
:10AF40000000000000000000000000000000000001
:10AF500000000000000000000000000000000000F1
:10AF600000000000000000000000000000000000E1
:10AF700000000000000000000000000000000000D1
:10AF800000000000000000000000000000000000C1
:10AF900000000000000000000000000000000000B1
:10AFA000000000000000000200000000000000009F
:10AFB0000000000000000000000000000000000091
:10AFC0000000000000000100000000000000000080
:10AFD0000000000000000000000000000000000071
:10AFE0000000000000000000000000000000000061
:10AFF0000000000000000000000000000000000051
:10B000000000000000000000000000000000000040
:10B010000000000000000000000000000000000030
:10B020000000000000000000000000000000000020
:10B030000000000000000000000000000000000010
:10B040000000000000000000000000000000000000
:10B0500000000000000000000000000000000000F0
:10B0600000000000000000000000000000000000E0
:10B0700000000000000000000000000000000000D0
:10B0800000000000000000000000000000000000C0
:10B0900000000000000000000000000000000000B0
:10B0A000000000000000000200000000000000009E
:10B0B0000000000000000000000000000000000090
:10B0C000000000000000010000000000000000007F
:10B0D0000000000000000000000000000000000070
:10B0E0000000000000000000000000000000000060
:10B0F0000000000000000000000000000000000050
:10B10000000000000000000000000000000000003F
:10B11000000000000000000000000000000000002F
:10B12000000000000000000000000000000000001F
:10B13000000000000000000000000000000000000F
:10B1400000000000000000000000000000000000FF
:10B1500000000000000000000000000000000000EF
:10B1600000000000000000000000000000000000DF
:10B1700000000000000000000000000000000000CF
:10B1800000000000000000000000000000000000BF
:10B1900000000000000000000000000000000000AF
:10B1A000000000000000000200000000000000009D
:10B1B000000000000000000000000000000000008F
:10B1C000000000000000010000000000000000007E
:10B1D000000000000000000000000000000000006F
:10B1E000000000000000000000000000000000005F
:10B1F000000000000000000000000000000000004F
:10B20000000000000000000000000000000000003E
:10B21000000000000000000000000000000000002E
:10B22000000000000000000000000000000000001E
:10B23000000000000000000000000000000000000E
:10B2400000000000000000000000000000000000FE
:10B2500000000000000000000000000000000000EE
:10B2600000000000000000000000000000000000DE
:10B2700000000000000000000000000000000000CE
:10B2800000000000000000000000000000000000BE
:10B2900000000000000000000000000000000000AE
:10B2A000000000000000000200000000000000019B
:10B2B000000000000000000000000000000000008E
:10B2C000000000000000010000000000000000007D
:10B2D000000000000000000000000000000000006E
:10B2E000000000000000000000000000000000005E
:10B2F000000000000000000000000000000000004E
:10B30000000000000000000000000000000000003D
:10B31000000000000000000000000000000000002D
:10B32000000000000000000000000000000000001D
:10B33000000000000000000000000000000000000D
:10B3400000000000000000000000000000000000FD
:10B3500000000000000000000000000000000000ED
:10B3600000000000000000000000000000000000DD
:10B3700000000000000000000000000000000000CD
:10B3800000000000000000000000000000000000BD
:10B3900000000000000000000000000000000000AD
:10B3A000000000000000000200000000000000019A
:10B3B000000000000000000000000000000000008D
:10B3C000000000000000010000000000000000007C
:10B3D000000000000000000000000000000000006D
:10B3E000000000000000000000000000000000005D
:10B3F000000000000000000000000000000000004D
:10B40000000000000000000000000000000000003C
:10B41000000000000000000000000000000000002C
:10B42000000000000000000000000000000000001C
:10B43000000000000000000000000000000000000C
:10B4400000000000000000000000000000000000FC
:10B4500000000000000000000000000000000000EC
:10B4600000000000000000000000000000000000DC
:10B4700000000000000000000000000000000000CC
:10B4800000000000000000000000000000000000BC
:10B4900000000000000000000000000000000000AC
:10B4A0000000000000000002000000000000000199
:10B4B000000000000000000000000000000000008C
:10B4C000000000000001010000000000000000007A
:10B4D000000000000000000000000000000000006C
:10B4E000000000000000000000000000000000005C
:10B4F000000000000000000000000000000000004C
:10B50000000000000000000000000000000000003B
:10B51000000000000000000000000000000000002B
:10B52000000000000000000000000000000000001B
:10B53000000000000000000000000000000000000B
:10B5400000000000000000000000000000000000FB
:10B5500000000000000000000000000000000000EB
:10B5600000000000000000000000000000000000DB
:10B5700000000000000000000000000000000000CB
:10B5800000000000000000000000000000000000BB
:10B5900000000000000000000000000000000000AB
:10B5A0000000000000000002000000000000000198
:10B5B000000000000001000000000000000000008A
:10B5C0000000000000010100000000000000000079
:10B5D000000000000000000000000000000000006B
:10B5E000000000000000000000000000000000005B
:10B5F000000000000000000000000000000000004B
:10B60000000000000000000000000000000000003A
:10B61000000000000000000000000000000000002A
:10B62000000000000000000000000000000000001A
:10B63000000000000000000000000000000000000A
:10B6400000000000000000000000000000000000FA
:10B6500000000000000000000000000000000000EA
:10B6600000000000000000000000000000000000DA
:10B6700000000000000000000000000000000000CA
:10B6800000000000000000000000000000000000BA
:10B6900000000000000000000000000000000000AA
:10B6A0000000000000000002000000000000010196
:10B6B0000001000000010000000000000000000088
:10B6C0000000000001010100000000000000000077
:10B6D000000000000000000000000000000000006A
:10B6E000000000000000000000000000000000005A
:10B6F000000000000000000000000000000000004A
:10B700000000000000000000000000000000000039
:10B710000000000000000000000000000000000029
:10B720000000000000000000000000000000000019
:10B730000000000000000000000000000000000009
:10B7400000000000000000000000000000000000F9
:10B7500000000000000000000000000000000000E9
:10B7600000000000000000000000000000000000D9
:10B7700000000000000000000000000000000000C9
:10B7800000000000000000000000000000000000B9
:10B7900000000000000000000000000000000000A9
:10B7A0000000000000000002000000000000010195
:10B7B0000001000001010000000000000000000086
:10B7C0000000000001010100000000000000000076
:10B7D0000000000000000000000000000000000069
:10B7E0000000000000000000000000000000000059
:10B7F0000000000000000000000000000000000049
:10B800000000000000000000000000000000000038
:10B810000000000000000000000000000000000028
:10B820000000000000000000000000000000000018
:10B830000000000000000000000000000000000008
:10B8400000000000000000000000000000000000F8
:10B8500000000000000000000000000000000000E8
:10B8600000000000000000000000000000000000D8
:10B8700000000000000000000000000000000000C8
:10B8800000000000000000000000000000000000B8
:10B8900000000000000000000000000000000000A8
:10B8A0000000000000000002000000000000010194
:10B8B0000101000001010000000000000000000084
:10B8C0000000000101010100000000000000000074
:10B8D0000000000000000000000000000000000068
:10B8E0000000000000000000000000000000000058
:10B8F0000000000000000000000000000000000048
:10B900000000000000000000000000000000000037
:10B910000000000000000000000000000000000027
:10B920000000000000000000000000000000000017
:10B930000000000000000000000000000000000007
:10B9400000000000000000000000000000000000F7
:10B9500000000000000000000000000000000000E7
:10B9600000000000000000000000000000000000D7
:10B9700000000000000000000000000000000000C7
:10B9800000000000000000000000000000000000B7
:10B9900000000000000000000000000000000000A7
:10B9A0000000000000000002000000000000010193
:10B9B0000101000101010000000000000000000082
:10B9C0000000000101010100000000000000000073
:10B9D0000000000000000000000000000000000067
:10B9E0000000000000000000000000000000000057
:10B9F0000000000000000000000000000000000047
:10BA00000000000000000000000000000000000036
:10BA10000000000000000000000000000000000026
:10BA20000000000000000000000000000000000016
:10BA30000000000000000000000000000000000006
:10BA400000000000000000000000000000000000F6
:10BA500000000000000000000000000000000000E6
:10BA600000000000000000000000000000000000D6
:10BA700000000000000000000000000000000000C6
:10BA800000000000000000000000000000000000B6
:10BA900000000000000000000000000000000000A6
:10BAA000000000000000000202000001000001018F
:10BAB0000101000101010000000000000000000081
:10BAC0000000010101010100000000000000000071
:10BAD0000000000000000000000000000000000066
:10BAE0000000000000000000000000000000000056
:10BAF0000000000000000000000000000000000046
:10BB00000000000000000000000000000000000035
:10BB10000000000000000000000000000000000025
:10BB20000000000000000000000000000000000015
:10BB30000000000000000000000000000000000005
:10BB400000000000000000000000000000000000F5
:10BB500000000000000000000000000000000000E5
:10BB600000000000000000000000000000000000D5
:10BB700000000000000000000000000000000000C5
:10BB800000000000000000000000000000000000B5
:10BB900000000000000000000000000000000000A5
:10BBA000000000000000000202000001000001018E
:10BBB000010101010101000000000000000000007F
:10BBC000000101010101010000000000000000006F
:10BBD0000000000000000000000000000000000065
:10BBE0000000000000000000000000000000000055
:10BBF0000000000000000000000000000000000045
:10BC00000000000000000000000000000000000034
:10BC10000000000000000000000000000000000024
:10BC20000000000000000000000000000000000014
:10BC30000000000000000000000000000000000004
:10BC400000000000000000000000000000000000F4
:10BC500000000000000000000000000000000000E4
:10BC600000000000000000000000000000000000D4
:10BC700000000000000000000000000000000000C4
:10BC800000000000000000000000000000000000B4
:10BC900000000000000000000000000000000000A4
:10BCA000000000000000000202000001000101018C
:10BCB000010101010101000000000000000000007E
:10BCC000000101010101010000000000000000006E
:10BCD0000000000000000000000000000000000064
:10BCE0000000000000000000000000000000000054
:10BCF0000000000000000000000000000000000044
:10BD00000000000000000000000000000000000033
:10BD10000000000000000000000000000000000023
:10BD20000000000000000000000000000000000013
:10BD30000000000000000000000000000000000003
:10BD400000000000000000000000000000000000F3
:10BD500000000000000000000000000000000000E3
:10BD600000000000000000000000000000000000D3
:10BD700000000000000000000000000000000000C3
:10BD800000000000000000000000000000000000B3
:10BD900000000000000000000000000000000000A3
:10BDA000000000000000000202000001000101018B
:10BDB000010101010101000000000000000000017C
:10BDC000010101010101010000000000000000006C
:10BDD0000000000000000000000000000000000063
:10BDE0000000000000000000000000000000000053
:10BDF0000000000000000000000000000000000043
:10BE00000000000000000000000000000000000032
:10BE10000000000000000000000000000000000022
:10BE20000000000000000000000000000000000012
:10BE30000000000000000000000000000000000002
:10BE400000000000000000000000000000000000F2
:10BE500000000000000000000000000000000000E2
:10BE600000000000000000000000000000000000D2
:10BE700000000000000000000000000000000000C2
:10BE800000000000000000000000000000000000B2
:10BE900000000000000000000000000000000000A2
:10BEA000000000000000000202000001000101018A
:10BEB000010101010101000000000000000000017B
:10BEC000010101010101010000000000000000006B
:10BED0000000000000000000000000000000000062
:10BEE0000000000000000000000000000000000052
:10BEF0000000000000000000000000000000000042
:10BF00000000000000000000000000000000000031
:10BF10000000000000000000000000000000000021
:10BF20000000000000000000000000000000000011
:10BF30000000000000000000000000000000000001
:10BF400000000000000000000000000000000000F1
:10BF500000000000000000000000000000000000E1
:10BF600000000000000000000000000000000000D1
:10BF700000000000000000000000000000000000C1
:10BF800000000000000000000000000000000000B1
:10BF900000000000000000000000000000000000A1
:10BFA0000000000000000002020201010101010185
:10BFB000010101010101000000000000000000017A
:10BFC000010101010101010000000000000000006A
:10BFD0000000000000000000000000000000000061
:10BFE0000000000000000000000000000000000051
:10BFF0000000000000000000000000000000000041
:10C000000000000000000000000000000000000030
:10C010000000000000000000000000000000000020
:10C020000000000000000000000000000000000010
:10C030000000000000000000000000000000000000
:10C0400000000000000000000000000000000000F0
:10C0500000000000000000000000000000000000E0
:10C0600000000000000000000000000000000000D0
:10C0700000000000000000000000000000000000C0
:10C0800000000000000000000000000000000000B0
:10C0900000000000000000000000000000000000A0
:10C0A0000000000000000002020201010101010184
:10C0B0000101010101010000000000000000000179
:10C0C0000101010101010100000000000000000069
:10C0D0000000000000000000000000000000000060
:10C0E0000000000000000000000000000000000050
:10C0F0000000000000000000000000000000000040
:10C10000000000000000000000000000000000002F
:10C11000000000000000000000000000000000001F
:10C12000000000000000000000000000000000000F
:10C1300000000000000000000000000000000000FF
:10C1400000000000000000000000000000000000EF
:10C1500000000000000000000000000000000000DF
:10C1600000000000000000000000000000000000CF
:10C1700000000000000000000000000000000000BF
:10C1800000000000000000000000000000000000AF
:10C19000000000000000000000000000000000009F
:10C1A0000000000000000002020201010101010183
:10C1B0000101010101010000000000000000010177
:10C1C0000101010101010100000000000000000068
:10C1D000000000000000000000000000000000005F
:10C1E000000000000000000000000000000000004F
:10C1F000000000000000000000000000000000003F
:10C20000000000000000000000000000000000002E
:10C21000000000000000000000000000000000001E
:10C22000000000000000000000000000000000000E
:10C2300000000000000000000000000000000000FE
:10C2400000000000000000000000000000000000EE
:10C2500000000000000000000000000000000000DE
:10C2600000000000000000000000000000000000CE
:10C2700000000000000000000000000000000000BE
:10C2800000000000000000000000000000000000AE
:10C29000000000000000000000000000000000009E
:10C2A0000000000000000002020201010101010182
:10C2B0000101010101010000000000000000010176
:10C2C0000101010101010100000000000000000067
:10C2D000000000000000000000000000000000005E
:10C2E000000000000000000000000000000000004E
:10C2F000000000000000000000000000000000003E
:10C30000000000000000000000000000000000002D
:10C31000000000000000000000000000000000001D
:10C32000000000000000000000000000000000000D
:10C3300000000000000000000000000000000000FD
:10C3400000000000000000000000000000000000ED
:10C3500000000000000000000000000000000000DD
:10C3600000000000000000000000000000000000CD
:10C3700000000000000000000000000000000000BD
:10C3800000000000000000000000000000000000AD
:10C39000000000000000000000000000000000009D
:10C3A000000000000000000202020202010101017F
:10C3B0000101010101010000000000000000010175
:10C3C0000101010101010100000000000000000066
:10C3D000000000000000000000000000000000005D
:10C3E000000000000000000000000000000000004D
:10C3F000000000000000000000000000000000003D
:10C40000000000000000000000000000000000002C
:10C41000000000000000000000000000000000001C
:10C42000000000000000000000000000000000000C
:10C4300000000000000000000000000000000000FC
:10C4400000000000000000000000000000000000EC
:10C4500000000000000000000000000000000000DC
:10C4600000000000000000000000000000000000CC
:10C4700000000000000000000000000000000000BC
:10C4800000000000000000000000000000000000AC
:10C49000000000000000000000000000000000009C
:10C4A000000000000000000202020202010101017E
:10C4B0000101010101010000000000000000010174
:10C4C0000101010101010100000000000000000065
:10C4D000000000000000000000000000000000005C
:10C4E000000000000000000000000000000000004C
:10C4F000000000000000000000000000000000003C
:10C50000000000000000000000000000000000002B
:10C51000000000000000000000000000000000001B
:10C52000000000000000000000000000000000000B
:10C5300000000000000000000000000000000000FB
:10C5400000000000000000000000000000000000EB
:10C5500000000000000000000000000000000000DB
:10C5600000000000000000000000000000000000CB
:10C5700000000000000000000000000000000000BB
:10C5800000000000000000000000000000000000AB
:10C59000000000000000000000000000000000009B
:10C5A000000000000000000202020202010102027B
:10C5B0000101010101010000000000000001010172
:10C5C0000101010101010100000000000000000064
:10C5D000000000000000000000000000000000005B
:10C5E000000000000000000000000000000000004B
:10C5F000000000000000000000000000000000003B
:10C60000000000000000000000000000000000002A
:10C61000000000000000000000000000000000001A
:10C62000000000000000000000000000000000000A
:10C6300000000000000000000000000000000000FA
:10C6400000000000000000000000000000000000EA
:10C6500000000000000000000000000000000000DA
:10C6600000000000000000000000000000000000CA
:10C6700000000000000000000000000000000000BA
:10C6800000000000000000000000000000000000AA
:10C69000000000000000000000000000000000009A
:10C6A0000000000000000002020202020202020278
:10C6B0000101010101010000000000000001010171
:10C6C0000101010101010100000000000000000063
:10C6D000000000000000000000000000000000005A
:10C6E000000000000000000000000000000000004A
:10C6F000000000000000000000000000000000003A
:10C700000000000000000000000000000000000029
:10C710000000000000000000000000000000000019
:10C720000000000000000000000000000000000009
:10C7300000000000000000000000000000000000F9
:10C7400000000000000000000000000000000000E9
:10C7500000000000000000000000000000000000D9
:10C7600000000000000000000000000000000000C9
:10C7700000000000000000000000000000000000B9
:10C7800000000000000000000000000000000000A9
:10C790000000000000000000000000000000000099
:10C7A0000000000000000002020202020202020277
:10C7B0000101010101010000000000000001010170
:10C7C0000101010101010100000000000000000062
:10C7D0000000000000000000000000000000000059
:10C7E0000000000000000000000000000000000049
:10C7F0000000000000000000000000000000000039
:10C800000000000000000000000000000000000028
:10C810000000000000000000000000000000000018
:10C820000000000000000000000000000000000008
:10C8300000000000000000000000000000000000F8
:10C8400000000000000000000000000000000000E8
:10C8500000000000000000000000000000000000D8
:10C8600000000000000000000000000000000000C8
:10C8700000000000000000000000000000000000B8
:10C8800000000000000000000000000000000000A8
:10C890000000000000000000000000000000000098
:10C8A0000000000000000002020202020202020276
:10C8B000020201010101000000000000010101016C
:10C8C0000101010101010100000000000000000061
:10C8D0000000000000000000000000000000000058
:10C8E0000000000000000000000000000000000048
:10C8F0000000000000000000000000000000000038
:10C900000000000000000000000000000000000027
:10C910000000000000000000000000000000000017
:10C920000000000000000000000000000000000007
:10C9300000000000000000000000000000000000F7
:10C9400000000000000000000000000000000000E7
:10C9500000000000000000000000000000000000D7
:10C9600000000000000000000000000000000000C7
:10C9700000000000000000000000000000000000B7
:10C9800000000000000000000000000000000000A7
:10C990000000000000000000000000000000000097
:10C9A0000000000000000002020202020202020275
:10C9B000020201010101000000000001010101016A
:10C9C0000101010101010100000000000000000060
:10C9D0000000000000000000000000000000000057
:10C9E0000000000000000000000000000000000047
:10C9F0000000000000000000000000000000000037
:10CA00000000000000000000000000000000000026
:10CA10000000000000000000000000000000000016
:10CA20000000000000000000000000000000000006
:10CA300000000000000000000000000000000000F6
:10CA400000000000000000000000000000000000E6
:10CA500000000000000000000000000000000000D6
:10CA600000000000000000000000000000000000C6
:10CA700000000000000000000000000000000000B6
:10CA800000000000000000000000000000000000A6
:10CA90000000000000000000000000000000000096
:10CAA0000000000000000002020202020202020274
:10CAB0000202010101010000000000010101010169
:10CAC000010101010101010000000000000000005F
:10CAD0000000000000000000000000000000000056
:10CAE0000000000000000000000000000000000046
:10CAF0000000000000000000000000000000000036
:10CB00000000000000000000000000000000000025
:10CB10000000000000000000000000000000000015
:10CB20000000000000000000000000000000000005
:10CB300000000000000000000000000000000000F5
:10CB400000000000000000000000000000000000E5
:10CB500000000000000000000000000000000000D5
:10CB600000000000000000000000000000000000C5
:10CB700000000000000000000000000000000000B5
:10CB800000000000000000000000000000000000A5
:10CB90000000000000000000000000000000000095
:10CBA0000000000000000002020202020202020273
:10CBB0000202020202020000000000010101010164
:10CBC000010101010101010000000000000000005E
:10CBD0000000000000000000000000000000000055
:10CBE0000000000000000000000000000000000045
:10CBF0000000000000000000000000000000000035
:10CC00000000000000000000000000000000000024
:10CC10000000000000000000000000000000000014
:10CC20000000000000000000000000000000000004
:10CC300000000000000000000000000000000000F4
:10CC400000000000000000000000000000000000E4
:10CC500000000000000000000000000000000000D4
:10CC600000000000000000000000000000000000C4
:10CC700000000000000000000000000000000000B4
:10CC800000000000000000000000000000000000A4
:10CC90000000000000000000000000000000000094
:10CCA0000000000000000002020202020202020272
:10CCB0000202020202020000000000010101010163
:10CCC000010101010101010000000000000000005D
:10CCD0000000000000000000000000000000000054
:10CCE0000000000000000000000000000000000044
:10CCF0000000000000000000000000000000000034
:10CD00000000000000000000000000000000000023
:10CD10000000000000000000000000000000000013
:10CD20000000000000000000000000000000000003
:10CD300000000000000000000000000000000000F3
:10CD400000000000000000000000000000000000E3
:10CD500000000000000000000000000000000000D3
:10CD600000000000000000000000000000000000C3
:10CD700000000000000000000000000000000000B3
:10CD800000000000000000000000000000000000A3
:10CD90000000000000000000000000000000000093
:10CDA0000000000000000002020202020202020271
:10CDB0000202020202020000000000010101010162
:10CDC000010101010101010000000000000000005C
:10CDD0000000000000000000000000000000000053
:10CDE0000000000000000000000000000000000043
:10CDF0000000000000000000000000000000000033
:10CE00000000000000000000000000000000000022
:10CE10000000000000000000000000000000000012
:10CE20000000000000000000000000000000000002
:10CE300000000000000000000000000000000000F2
:10CE400000000000000000000000000000000000E2
:10CE500000000000000000000000000000000000D2
:10CE600000000000000000000000000000000000C2
:10CE700000000000000000000000000000000000B2
:10CE800000000000000000000000000000000000A2
:10CE90000000000000000000000000000000000092
:10CEA0000000000000000002020202020202020270
:10CEB0000202020202020000000001010101010160
:10CEC000010101010101010000000000000000005B
:10CED0000000000000000000000000000000000052
:10CEE0000000000000000000000000000000000042
:10CEF0000000000000000000000000000000000032
:10CF00000000000000000000000000000000000021
:10CF10000000000000000000000000000000000011
:10CF20000000000000000000000000000000000001
:10CF300000000000000000000000000000000000F1
:10CF400000000000000000000000000000000000E1
:10CF500000000000000000000000000000000000D1
:10CF600000000000000000000000000000000000C1
:10CF700000000000000000000000000000000000B1
:10CF800000000000000000000000000000000000A1
:10CF90000000000000000000000000000000000091
:10CFA000000000000000000202020202020202026F
:10CFB000020202020202000000000101010101015F
:10CFC000010101010101010000000000000000005A
:10CFD0000000000000000000000000000000000051
:10CFE0000000000000000000000000000000000041
:10CFF0000000000000000000000000000000000031
:10D000000000000000000000000000000000000020
:10D010000000000000000000000000000000000010
:10D020000000000000000000000000000000000000
:10D0300000000000000000000000000000000000F0
:10D0400000000000000000000000000000000000E0
:10D0500000000000000000000000000000000000D0
:10D0600000000000000000000000000000000000C0
:10D0700000000000000000000000000000000000B0
:10D0800000000000000000000000000000000000A0
:10D090000000000000000000000000000000000090
:10D0A000000000000000000202020202020202026E
:10D0B000020202020202000000000101010101015E
:10D0C0000101010101010100000000000000000059
:10D0D0000000000000000000000000000000000050
:10D0E0000000000000000000000000000000000040
:10D0F0000000000000000000000000000000000030
:10D10000000000000000000000000000000000001F
:10D11000000000000000000000000000000000000F
:10D1200000000000000000000000000000000000FF
:10D1300000000000000000000000000000000000EF
:10D1400000000000000000000000000000000000DF
:10D1500000000000000000000000000000000000CF
:10D1600000000000000000000000000000000000BF
:10D1700000000000000000000000000000000000AF
:10D18000000000000000000000000000000000009F
:10D19000000000000000000000000000000000008F
:10D1A000000000000000000202020202020202026D
:10D1B000020202020202000000000101010101015D
:10D1C0000101010101010100000000000000000058
:10D1D000000000000000000000000000000000004F
:10D1E000000000000000000000000000000000003F
:10D1F000000000000000000000000000000000002F
:10D20000000000000000000000000000000000001E
:10D21000000000000000000000000000000000000E
:10D2200000000000000000000000000000000000FE
:10D2300000000000000000000000000000000000EE
:10D2400000000000000000000000000000000000DE
:10D2500000000000000000000000000000000000CE
:10D2600000000000000000000000000000000000BE
:10D2700000000000000000000000000000000000AE
:10D28000000000000000000000000000000000009E
:10D29000000000000000000000000000000000008E
:10D2A000000000000000000202020202020202026C
:10D2B000020202020202000000000101010101015C
:10D2C0000101010101010100000000000000000057
:10D2D000000000000000000000000000000000004E
:10D2E000000000000000000000000000000000003E
:10D2F000000000000000000000000000000000002E
:10D30000000000000000000000000000000000001D
:10D31000000000000000000000000000000000000D
:10D3200000000000000000000000000000000000FD
:10D3300000000000000000000000000000000000ED
:10D3400000000000000000000000000000000000DD
:10D3500000000000000000000000000000000000CD
:10D3600000000000000000000000000000000000BD
:10D3700000000000000000000000000000000000AD
:10D38000000000000000000000000000000000009D
:10D39000000000000000000000000000000000008D
:10D3A000000000000000000202020202020202026B
:10D3B000020202020202000000000101010101015B
:10D3C0000101010101010100000000000000000056
:10D3D000000000000000000000000000000000004D
:10D3E000000000000000000000000000000000003D
:10D3F000000000000000000000000000000000002D
:10D40000000000000000000000000000000000001C
:10D41000000000000000000000000000000000000C
:10D4200000000000000000000000000000000000FC
:10D4300000000000000000000000000000000000EC
:10D4400000000000000000000000000000000000DC
:10D4500000000000000000000000000000000000CC
:10D4600000000000000000000000000000000000BC
:10D4700000000000000000000000000000000000AC
:10D48000000000000000000000000000000000009C
:10D49000000000000000000000000000000000008C
:10D4A000000000000000000202020202020202026A
:10D4B000020202020202000000000101010101015A
:10D4C0000101010101010100000000000000000055
:10D4D000000000000000000000000000000000004C
:10D4E000000000000000000000000000000000003C
:10D4F000000000000000000000000000000000002C
:10D50000000000000000000000000000000000001B
:10D51000000000000000000000000000000000000B
:10D5200000000000000000000000000000000000FB
:10D5300000000000000000000000000000000000EB
:10D5400000000000000000000000000000000000DB
:10D5500000000000000000000000000000000000CB
:10D5600000000000000000000000000000000000BB
:10D5700000000000000000000000000000000000AB
:10D58000000000000000000000000000000000009B
:10D59000000000000000000000000000000000008B
:10D5A0000000000000000002020202020202020269
:10D5B0000202020202020000000001010101010159
:10D5C0000101010101010100000000000000000054
:10D5D000000000000000000000000000000000004B
:10D5E000000000000000000000000000000000003B
:10D5F000000000000000000000000000000000002B
:10D60000000000000000000000000000000000001A
:10D61000000000000000000000000000000000000A
:10D6200000000000000000000000000000000000FA
:10D6300000000000000000000000000000000000EA
:10D6400000000000000000000000000000000000DA
:10D6500000000000000000000000000000000000CA
:10D6600000000000000000000000000000000000BA
:10D6700000000000000000000000000000000000AA
:10D68000000000000000000000000000000000009A
:10D69000000000000000000000000000000000008A
:10D6A0000000000000000002020202020202020268
:10D6B0000202020202020000000101010101010157
:10D6C0000101010101010100000000000000000053
:10D6D000000000000000000000000000000000004A
:10D6E000000000000000000000000000000000003A
:10D6F000000000000000000000000000000000002A
:10D700000000000000000000000000000000000019
:10D710000000000000000000000000000000000009
:10D7200000000000000000000000000000000000F9
:10D7300000000000000000000000000000000000E9
:10D7400000000000000000000000000000000000D9
:10D7500000000000000000000000000000000000C9
:10D7600000000000000000000000000000000000B9
:10D7700000000000000000000000000000000000A9
:10D780000000000000000000000000000000000099
:10D790000000000000000000000000000000000089
:10D7A0000000000000000002020202020202020267
:10D7B0000202020202020000000101010101010156
:10D7C0000101010101010100000000000000000052
:10D7D0000000000000000000000000000000000049
:10D7E0000000000000000000000000000000000039
:10D7F0000000000000000000000000000000000029
:10D800000000000000000000000000000000000018
:10D810000000000000000000000000000000000008
:10D8200000000000000000000000000000000000F8
:10D8300000000000000000000000000000000000E8
:10D8400000000000000000000000000000000000D8
:10D8500000000000000000000000000000000000C8
:10D8600000000000000000000000000000000000B8
:10D8700000000000000000000000000000000000A8
:10D880000000000000000000000000000000000098
:10D890000000000000000000000000000000000088
:10D8A0000000000000000002020202020202020266
:10D8B0000202020202020000000101010101010155
:10D8C0000101010101010100000000000000000051
:10D8D0000000000000000000000000000000000048
:10D8E0000000000000000000000000000000000038
:10D8F0000000000000000000000000000000000028
:10D900000000000000000000000000000000000017
:10D910000000000000000000000000000000000007
:10D9200000000000000000000000000000000000F7
:10D9300000000000000000000000000000000000E7
:10D9400000000000000000000000000000000000D7
:10D9500000000000000000000000000000000000C7
:10D9600000000000000000000000000000000000B7
:10D9700000000000000000000000000000000000A7
:10D980000000000000000000000000000000000097
:10D990000000000000000000000000000000000087
:10D9A0000000000000000002020202020202020265
:10D9B0000202020202020000000101010101010154
:10D9C0000101010101010100000000000000000050
:10D9D0000000000000000000000000000000000047
:10D9E0000000000000000000000000000000000037
:10D9F0000000000000000000000000000000000027
:10DA00000000000000000000000000000000000016
:10DA10000000000000000000000000000000000006
:10DA200000000000000000000000000000000000F6
:10DA300000000000000000000000000000000000E6
:10DA400000000000000000000000000000000000D6
:10DA500000000000000000000000000000000000C6
:10DA600000000000000000000000000000000000B6
:10DA700000000000000000000000000000000000A6
:10DA80000000000000000000000000000000000096
:10DA90000000000000000000000000000000000086
:10DAA0000000000000000002020202020202020264
:10DAB0000202020202020000000101010101010153
:10DAC000010101010101010000000000000000004F
:10DAD0000000000000000000000000000000000046
:10DAE0000000000000000000000000000000000036
:10DAF0000000000000000000000000000000000026
:10DB00000000000000000000000000000000000015
:10DB10000000000000000000000000000000000005
:10DB200000000000000000000000000000000000F5
:10DB300000000000000000000000000000000000E5
:10DB400000000000000000000000000000000000D5
:10DB500000000000000000000000000000000000C5
:10DB600000000000000000000000000000000000B5
:10DB700000000000000000000000000000000000A5
:10DB80000000000000000000000000000000000095
:10DB90000000000000000000000000000000000085
:10DBA0000000000000000002020202020202020263
:10DBB0000202020202020000010101010101010151
:10DBC000010101010101010000000000000000004E
:10DBD0000000000000000000000000000000000045
:10DBE0000000000000000000000000000000000035
:10DBF0000000000000000000000000000000000025
:10DC00000000000000000000000000000000000014
:10DC10000000000000000000000000000000000004
:10DC200000000000000000000000000000000000F4
:10DC300000000000000000000000000000000000E4
:10DC400000000000000000000000000000000000D4
:10DC500000000000000000000000000000000000C4
:10DC600000000000000000000000000000000000B4
:10DC700000000000000000000000000000000000A4
:10DC80000000000000000000000000000000000094
:10DC90000000000000000000000000000000000084
:10DCA0000000000000000002020202020202020262
:10DCB0000202020202020000010101010101010150
:10DCC000010101010101010000000000000000004D
:10DCD0000000000000000000000000000000000044
:10DCE0000000000000000000000000000000000034
:10DCF0000000000000000000000000000000000024
:10DD00000000000000000000000000000000000013
:10DD10000000000000000000000000000000000003
:10DD200000000000000000000000000000000000F3
:10DD300000000000000000000000000000000000E3
:10DD400000000000000000000000000000000000D3
:10DD500000000000000000000000000000000000C3
:10DD600000000000000000000000000000000000B3
:10DD700000000000000000000000000000000000A3
:10DD80000000000000000000000000000000000093
:10DD90000000000000000000000000000000000083
:10DDA0000000000000000002020202020202020261
:10DDB000020202020202000001010101010101014F
:10DDC000010101010101010000000000000000004C
:10DDD0000000000000000000000000000000000043
:10DDE0000000000000000000000000000000000033
:10DDF0000000000000000000000000000000000023
:10DE00000000000000000000000000000000000012
:10DE10000000000000000000000000000000000002
:10DE200000000000000000000000000000000000F2
:10DE300000000000000000000000000000000000E2
:10DE400000000000000000000000000000000000D2
:10DE500000000000000000000000000000000000C2
:10DE600000000000000000000000000000000000B2
:10DE700000000000000000000000000000000000A2
:10DE80000000000000000000000000000000000092
:10DE90000000000000000000000000000000000082
:10DEA0000000000000000002020202020202020260
:10DEB000020202020202000001010101010101014E
:10DEC000010101010101010000000000000000004B
:10DED0000000000000000000000000000000000042
:10DEE0000000000000000000000000000000000032
:10DEF0000000000000000000000000000000000022
:10DF00000000000000000000000000000000000011
:10DF10000000000000000000000000000000000001
:10DF200000000000000000000000000000000000F1
:10DF300000000000000000000000000000000000E1
:10DF400000000000000000000000000000000000D1
:10DF500000000000000000000000000000000000C1
:10DF600000000000000000000000000000000000B1
:10DF700000000000000000000000000000000000A1
:10DF80000000000000000000000000000000000091
:10DF90000000000000000000000000000000000081
:10DFA000000000000000000202020202020202025F
:10DFB000020202020202000001010101010101014D
:10DFC000010101010101010000000000000000004A
:10DFD0000000000000000000000000000000000041
:10DFE0000000000000000000000000000000000031
:10DFF0000000000000000000000000000000000021
:10E000000000000000000000000000000000000010
:10E010000000000000000000000000000000000000
:10E0200000000000000000000000000000000000F0
:10E0300000000000000000000000000000000000E0
:10E0400000000000000000000000000000000000D0
:10E0500000000000000000000000000000000000C0
:10E0600000000000000000000000000000000000B0
:10E0700000000000000000000000000000000000A0
:10E080000000000000000000000000000000000090
:10E090000000000000000000000000000000000080
:10E0A000000000000000000202020202020202025E
:10E0B000020202020202000001010101010101014C
:10E0C0000101010101010100000000000000000049
:10E0D0000000000000000000000000000000000040
:10E0E0000000000000000000000000000000000030
:10E0F0000000000000000000000000000000000020
:10E10000000000000000000000000000000000000F
:10E1100000000000000000000000000000000000FF
:10E1200000000000000000000000000000000000EF
:10E1300000000000000000000000000000000000DF
:10E1400000000000000000000000000000000000CF
:10E1500000000000000000000000000000000000BF
:10E1600000000000000000000000000000000000AF
:10E17000000000000000000000000000000000009F
:10E18000000000000000000000000000000000008F
:10E19000000000000000000000000000000000007F
:10E1A000000000000000000202020202020202025D
:10E1B000020202020202000001010101010101014B
:10E1C0000101010101010100000000000000000048
:10E1D000000000000000000000000000000000003F
:10E1E000000000000000000000000000000000002F
:10E1F000000000000000000000000000000000001F
:10E20000000000000000000000000000000000000E
:10E2100000000000000000000000000000000000FE
:10E2200000000000000000000000000000000000EE
:10E2300000000000000000000000000000000000DE
:10E2400000000000000000000000000000000000CE
:10E2500000000000000000000000000000000000BE
:10E2600000000000000000000000000000000000AE
:10E27000000000000000000000000000000000009E
:10E28000000000000000000000000000000000008E
:10E29000000000000000000000000000000000007E
:10E2A000000000000000000202020202020202025C
:10E2B000020202020202000001010101010101014A
:10E2C0000101010101010100000000000000000047
:10E2D000000000000000000000000000000000003E
:10E2E000000000000000000000000000000000002E
:10E2F000000000000000000000000000000000001E
:10E30000000000000000000000000000000000000D
:10E3100000000000000000000000000000000000FD
:10E3200000000000000000000000000000000000ED
:10E3300000000000000000000000000000000000DD
:10E3400000000000000000000000000000000000CD
:10E3500000000000000000000000000000000000BD
