:1000000090BA9C8DB8340200CA0B000005067C0033
:10001000050B012D3CCB008503000000400000696A
:100020004700000100070D00FFFC00000000005722
:10003000000306090C0F1215181B1E21262B304039
:100040000000000000000020170500000000000074
:1000500087060000000000E0430A0000000000C026
:10006000520A0000000000A00C0B000000000080FD
:10007000C90E000000000060F2100000000000B097
:1000800000000000000000B867000000000000C091
:10009000C0000000000000C811010000000000D0F6
:1000A00062010000000000D8AD010000000000E087
:1000B00036020000000000E8B3020000000000F07B
:1000C00030030000000000F895030000000000006D
:1000D000EB030000000000083C04000000000010DA
:1000E0008504000000000018CE0400000000006736
:1000F00000000000000000010101010101010101F7
:1001000001010101010101010101010101010101DF
:1001100001010101010101010101010101010101CF
:1001200001010101010101010101010101010101BF
:1001300001010101010101010101010101010101AF
:1030F00001010101010101000000000000000000C9
:1031000000000000000000000000000000000000BF
:1031100000000000000000000000000000000000AF
:10312000000000000000000000000000000000009F
:10313000000000000000000000000000000000008F
:1034F00000000000000000020202020202020202BA
:10350000020202020202020202020202020202029B
:10351000020202020202020202020202020202028B
:10352000020202020202020202020202020202027B
:10353000020202020202020202020202020202026B
:1064F000020202020202020000000000000000008E
:10650000000000000000000000000000000000008B
:10651000000000000000000000000000000000007B
:10652000000000000000000000000000000000006B
:10653000000000000000000000000000000000005B
:1067F000000000000000005900000000000000013F
:106800000101010101010101010101010101010178
:106810000101010101010101010101010101010168
:106820000101010101010101010101010101010158
:106830000101010101010101010101010101010148
:1090F0000101010101010101010101010101010061
:10910000000000000000000000000000000000005F
:10911000000000000000000000000000000000004F
:10912000000000000000000000000000000000003F
:10913000000000000000000000000000000000002F
:1094F000000000000000000000000000000000026A
:10950000020202020202020202020202020202023B
:10951000020202020202020202020202020202022B
:10952000020202020202020202020202020202021B
:10953000020202020202020202020202020202020B
:10BDF0000202020202020202020202020202020025
:10BE00000000000000000000000000000000000032
:10BE10000000000000000000000000000000000022
:10BE20000000000000000000000000000000000012
:10BE30000000000000000000000000000000000002
:10C0F00000000000000000000000000000000051EF
:10C100000000000000000001010101010101010126
:10C11000010101010101010101010101010101010F
:10C1200001010101010101010101010101010101FF
:10C1300001010101010101010101010101010101EF
:10C1400001010101010101010101010101010101DF
:10E600000101010101010100000000000000000003
:10E6100000000000000000000000000000000000FA
:10E6200000000000000000000000000000000000EA
:10E6300000000000000000000000000000000000DA
:10E6400000000000000000000000000000000000CA
:10EA000000000000000000020202020202020202F4
:10EA100002020202020202020202020202020202D6
:10EA200002020202020202020202020202020202C6
:10EA300002020202020202020202020202020202B6
:10EA400002020202020202020202020202020202A6
:020000021000EC
:100F000002020202020202000000000000000000D3
:100F100000000000000000000000000000000000D1
:100F200000000000000000000000000000000000C1
:100F300000000000000000000000000000000000B1
:100F400000000000000000000000000000000000A1
:10120000000000000000005100000000000000018C
:1012100001010101010101010101010101010101BE
:1012200001010101010101010101010101010101AE
:10123000010101010101010101010101010101019E
:10124000010101010101010101010101010101018E
:1037000001010101010101010101010101010100AA
:1037100000000000000000000000000000000000A9
:103720000000000000000000000000000000000099
:103730000000000000000000000000000000000089
:103740000000000000000000000000000000000079
:103B000000000000000000000000000000000002B3
:103B10000202020202020202020202020202020285
:103B20000202020202020202020202020202020275
:103B30000202020202020202020202020202020265
:103B40000202020202020202020202020202020255
:106000000202020202020202020202020202020072
:106010000000000000000000000000000000000080
:106020000000000000000000000000000000000070
:106030000000000000000000000000000000000060
:106040000000000000000000000000000000000050
:106300000000000000000000000000000000004B42
:106310000000000000000001010101010101010174
:10632000010101010101010101010101010101015D
:10633000010101010101010101010101010101014D
:10634000010101010101010101010101010101013D
:10635000010101010101010101010101010101012D
:107F1000010101010101010000000000000000005A
:107F20000000000000000000000000000000000051
:107F30000000000000000000000000000000000041
:107F40000000000000000000000000000000000031
:107F50000000000000000000000000000000000021
:108310000000000000000001010101010101010154
:10832000010101010101010101010101010101013D
:10833000010101010101010101010101010101012D
:10834000010101010101010101010101010101011D
:10835000010101010101010101010101010101010D
:10891000010101010101010202020202020202023E
:108920000202020202020202020202020202020227
:108930000202020202020202020202020202020217
:108940000202020202020202020202020202020207
:1089500002020202020202020202020202020202F7
:10AB10000202020202020200000000000000000027
:10AB20000000000000000000000000000000000025
:10AB30000000000000000000000000000000000015
:10AB40000000000000000000000000000000000005
:10AB500000000000000000000000000000000000F5
:10AE100000000000000000890000000000000001A8
:10AE20000101010101010101010101010101010112
:10AE30000101010101010101010101010101010102
:10AE400001010101010101010101010101010101F2
:10AE500001010101010101010101010101010101E2
:10C61000010101010101010101010101010101000B
:10C62000000000000000000000000000000000000A
:10C6300000000000000000000000000000000000FA
:10C6400000000000000000000000000000000000EA
:10C6500000000000000000000000000000000000DA
:10CA10000000000000000000000000000000000115
:10CA200001010101010101010101010101010101F6
:10CA300001010101010101010101010101010101E6
:10CA400001010101010101010101010101010101D6
:10CA500001010101010101010101010101010101C6
:10D0100001010101010101010101010101010102FF
:10D0200002020202020202020202020202020202E0
:10D0300002020202020202020202020202020202D0
:10D0400002020202020202020202020202020202C0
:10D0500002020202020202020202020202020202B0
:10EE100002020202020202020202020202020200D4
:10EE200000000000000000000000000000000000E2
:10EE300000000000000000000000000000000000D2
:10EE400000000000000000000000000000000000C2
:10EE500000000000000000000000000000000000B2
:10F4100000000000000000000000000000000001EB
:10F4200001010101010101010101010101010101CC
:10F4300001010101010101010101010101010101BC
:10F4400001010101010101010101010101010101AC
:10F45000010101010101010101010101010101019C
:020000022000DC
:100C100001010101010101010101010101010100C5
:100C200000000000000000000000000000000000C4
:100C300000000000000000000000000000000000B4
:100C400000000000000000000000000000000000A4
:100C50000000000000000000000000000000000094
:1010100000000000000000000000000000000001CF
:1010200001010101010101010101010101010101B0
:1010300001010101010101010101010101010101A0
:101040000101010101010101010101010101010190
:101050000101010101010101010101010101010180
:1016100001010101010101010101010101010102B9
:10162000020202020202020202020202020202029A
:10163000020202020202020202020202020202028A
:10164000020202020202020202020202020202027A
:10165000020202020202020202020202020202026A
:10341000020202020202020202020202020202008E
:10342000000000000000000000000000000000009C
:10343000000000000000000000000000000000008C
:10344000000000000000000000000000000000007C
:10345000000000000000000000000000000000006C
:103710000000000000000000000000000000007D2C
:103720000000000000000001010101010101010190
:103730000101010101010101010101010101010179
:103740000101010101010101010101010101010169
:103750000101010101010101010101010101010159
:103760000101010101010101010101010101010149
:104C2000010101010101010000000000000000007D
:104C30000000000000000000000000000000000074
:104C40000000000000000000000000000000000064
:104C50000000000000000000000000000000000054
:104C60000000000000000000000000000000000044
:105020000000000000000001010101010101010177
:105030000101010101010101010101010101010160
:105040000101010101010101010101010101010150
:105050000101010101010101010101010101010140
:105060000101010101010101010101010101010130
:105620000101010101010102020202020202020261
:10563000020202020202020202020202020202024A
:10564000020202020202020202020202020202023A
:10565000020202020202020202020202020202022A
:10566000020202020202020202020202020202021A
:107120000202020202020200000000000000000051
:10713000000000000000000000000000000000004F
:10714000000000000000000000000000000000003F
:10715000000000000000000000000000000000002F
:10716000000000000000000000000000000000001F
:107720000000000000000001010101010101010150
:107730000101010101010101010101010101010139
:107740000101010101010101010101010101010129
:107750000101010101010101010101010101010119
:107760000101010101010101010101010101010109
:108C2000010101010101010000000000000000003D
:108C30000000000000000000000000000000000034
:108C40000000000000000000000000000000000024
:108C50000000000000000000000000000000000014
:108C60000000000000000000000000000000000004
:109020000000000000000001010101010101010137
:109030000101010101010101010101010101010120
:109040000101010101010101010101010101010110
:109050000101010101010101010101010101010100
:1090600001010101010101010101010101010101F0
:109620000101010101010102020202020202020221
:10963000020202020202020202020202020202020A
:1096400002020202020202020202020202020202FA
:1096500002020202020202020202020202020202EA
:1096600002020202020202020202020202020202DA
:10B120000202020202020200000000000000000011
:10B13000000000000000000000000000000000000F
:10B1400000000000000000000000000000000000FF
:10B1500000000000000000000000000000000000EF
:10B1600000000000000000000000000000000000DF
:10B42000000000000000007D00000000000000019E
:10B4300001010101010101010101010101010101FC
:10B4400001010101010101010101010101010101EC
:10B4500001010101010101010101010101010101DC
:10B4600001010101010101010101010101010101CC
:10C9200001010101010101010101010101010100F8
:10C9300000000000000000000000000000000000F7
:10C9400000000000000000000000000000000000E7
:10C9500000000000000000000000000000000000D7
:10C9600000000000000000000000000000000000C7
:10CD20000000000000000000000000000000000102
:10CD300001010101010101010101010101010101E3
:10CD400001010101010101010101010101010101D3
:10CD500001010101010101010101010101010101C3
:10CD600001010101010101010101010101010101B3
:10D3200001010101010101010101010101010102EC
:10D3300002020202020202020202020202020202CD
:10D3400002020202020202020202020202020202BD
:10D3500002020202020202020202020202020202AD
:10D36000020202020202020202020202020202029D
:10EE200002020202020202020202020202020200C4
:10EE300000000000000000000000000000000000D2
:10EE400000000000000000000000000000000000C2
:10EE500000000000000000000000000000000000B2
:10EE600000000000000000000000000000000000A2
:10F4200000000000000000000000000000000001DB
:10F4300001010101010101010101010101010101BC
:10F4400001010101010101010101010101010101AC
:10F45000010101010101010101010101010101019C
:10F46000010101010101010101010101010101018C
:020000023000CC
:1009200001010101010101010101010101010100B8
:1009300000000000000000000000000000000000B7
:1009400000000000000000000000000000000000A7
:100950000000000000000000000000000000000097
:100960000000000000000000000000000000000087
:100D200000000000000000000000000000000001C2
:100D300001010101010101010101010101010101A3
:100D40000101010101010101010101010101010193
:100D50000101010101010101010101010101010183
:100D60000101010101010101010101010101010173
:1013200001010101010101010101010101010102AC
:10133000020202020202020202020202020202028D
:10134000020202020202020202020202020202027D
:10135000020202020202020202020202020202026D
:10136000020202020202020202020202020202025D
:102E20000202020202020202020202020202020084
:102E30000000000000000000000000000000000092
:102E40000000000000000000000000000000000082
:102E50000000000000000000000000000000000072
:102E60000000000000000000000000000000000062
:10312000000000000000000000000000000000653A
:103130000000000000000001010101010101010186
:10314000010101010101010101010101010101016F
:10315000010101010101010101010101010101015F
:10316000010101010101010101010101010101014F
:10317000010101010101010101010101010101013F
:104630000101010101010100000000000000000073
:10464000000000000000000000000000000000006A
:10465000000000000000000000000000000000005A
:10466000000000000000000000000000000000004A
:10467000000000000000000000000000000000003A
:104A30000000000000000002020202020202020264
:104A40000202020202020202020202020202020246
:104A50000202020202020202020202020202020236
:104A60000202020202020202020202020202020226
:104A70000202020202020202020202020202020216
:105F30000202020202020200000000000000000053
:105F40000000000000000000000000000000000051
:105F50000000000000000000000000000000000041
:105F60000000000000000000000000000000000031
:105F70000000000000000000000000000000000021
:106530000000000000000001010101010101010152
:10654000010101010101010101010101010101013B
:10655000010101010101010101010101010101012B
:10656000010101010101010101010101010101011B
:10657000010101010101010101010101010101010B
:107A3000010101010101010000000000000000003F
:107A40000000000000000000000000000000000036
:107A50000000000000000000000000000000000026
:107A60000000000000000000000000000000000016
:107A70000000000000000000000000000000000006
:107E30000000000000000002020202020202020230
:107E40000202020202020202020202020202020212
:107E50000202020202020202020202020202020202
:107E600002020202020202020202020202020202F2
:107E700002020202020202020202020202020202E2
:10933000020202020202020000000000000000001F
:10934000000000000000000000000000000000001D
:10935000000000000000000000000000000000000D
:1093600000000000000000000000000000000000FD
:1093700000000000000000000000000000000000ED
:1096300000000000000000550000000000000001D4
:10964000010101010101010101010101010101010A
:1096500001010101010101010101010101010101FA
:1096600001010101010101010101010101010101EA
:1096700001010101010101010101010101010101DA
:10A73000010101010101010101010101010101000A
:10A740000000000000000000000000000000000009
:10A7500000000000000000000000000000000000F9
:10A7600000000000000000000000000000000000E9
:10A7700000000000000000000000000000000000D9
:10AB30000000000000000000000000000000000213
:10AB400002020202020202020202020202020202E5
:10AB500002020202020202020202020202020202D5
:10AB600002020202020202020202020202020202C5
:10AB700002020202020202020202020202020202B5
:10BC300002020202020202020202020202020200E6
:10BC400000000000000000000000000000000000F4
:10BC500000000000000000000000000000000000E4
:10BC600000000000000000000000000000000000D4
:10BC700000000000000000000000000000000000C4
:10C2300000000000000000000000000000000001FD
:10C2400001010101010101010101010101010101DE
:10C2500001010101010101010101010101010101CE
:10C2600001010101010101010101010101010101BE
:10C2700001010101010101010101010101010101AE
:10D3300001010101010101010101010101010100DE
:10D3400000000000000000000000000000000000DD
:10D3500000000000000000000000000000000000CD
:10D3600000000000000000000000000000000000BD
:10D3700000000000000000000000000000000000AD
:10D7300000000000000000000000000000000002E7
:10D7400002020202020202020202020202020202B9
:10D7500002020202020202020202020202020202A9
:10D760000202020202020202020202020202020299
:10D770000202020202020202020202020202020289
:10E8300002020202020202020202020202020200BA
:10E8400000000000000000000000000000000000C8
:10E8500000000000000000000000000000000000B8
:10E8600000000000000000000000000000000000A8
:10E870000000000000000000000000000000000098
:10EB30000000000000000000000000000000005184
:10EB400000000000000000010101010101010101BC
:10EB500001010101010101010101010101010101A5
:10EB60000101010101010101010101010101010195
:10EB70000101010101010101010101010101010185
:10EB80000101010101010101010101010101010175
:10FB400001010101010101000000000000000000AE
:10FB500000000000000000000000000000000000A5
:10FB60000000000000000000000000000000000095
:10FB70000000000000000000000000000000000085
:10FB80000000000000000000000000000000000075
:10FF4000000000000000000202020202020202029F
:10FF50000202020202020202020202020202020281
:10FF60000202020202020202020202020202020271
:10FF70000202020202020202020202020202020261
:10FF80000202020202020202020202020202020251
:020000024000BC
:100F40000202020202020200000000000000000093
:100F50000000000000000000000000000000000091
:100F60000000000000000000000000000000000081
:100F70000000000000000000000000000000000071
:100F80000000000000000000000000000000000061
:101540000000000000000001010101010101010192
:10155000010101010101010101010101010101017B
:10156000010101010101010101010101010101016B
:10157000010101010101010101010101010101015B
:10158000010101010101010101010101010101014B
:102540000101010101010100000000000000000084
:10255000000000000000000000000000000000007B
:10256000000000000000000000000000000000006B
:10257000000000000000000000000000000000005B
:10258000000000000000000000000000000000004B
:102940000000000000000002020202020202020275
:102950000202020202020202020202020202020257
:102960000202020202020202020202020202020247
:102970000202020202020202020202020202020237
:102980000202020202020202020202020202020227
:103940000202020202020200000000000000000069
:103950000000000000000000000000000000000067
:103960000000000000000000000000000000000057
:103970000000000000000000000000000000000047
:103980000000000000000000000000000000000037
:103C4000000000000000004900000000000000012A
:103C50000101010101010101010101010101010154
:103C60000101010101010101010101010101010144
:103C70000101010101010101010101010101010134
:103C80000101010101010101010101010101010124
:104A40000101010101010101010101010101010057
:104A50000000000000000000000000000000000056
:104A60000000000000000000000000000000000046
:104A70000000000000000000000000000000000036
:104A80000000000000000000000000000000000026
:104E40000000000000000000000000000000000260
:104E50000202020202020202020202020202020232
:104E60000202020202020202020202020202020222
:104E70000202020202020202020202020202020212
:104E80000202020202020202020202020202020202
:105C40000202020202020202020202020202020036
:105C50000000000000000000000000000000000044
:105C60000000000000000000000000000000000034
:105C70000000000000000000000000000000000024
:105C80000000000000000000000000000000000014
:10624000000000000000000000000000000000014D
:10625000010101010101010101010101010101012E
:10626000010101010101010101010101010101011E
:10627000010101010101010101010101010101010E
:1062800001010101010101010101010101010101FE
:107040000101010101010101010101010101010031
:107050000000000000000000000000000000000030
:107060000000000000000000000000000000000020
:107070000000000000000000000000000000000010
:107080000000000000000000000000000000000000
:10744000000000000000000000000000000000023A
:10745000020202020202020202020202020202020C
:1074600002020202020202020202020202020202FC
:1074700002020202020202020202020202020202EC
:1074800002020202020202020202020202020202DC
:108240000202020202020202020202020202020010
:10825000000000000000000000000000000000001E
:10826000000000000000000000000000000000000E
:1082700000000000000000000000000000000000FE
:1082800000000000000000000000000000000000EE
:1085400000000000000000000000000000000049E2
:108550000000000000000001010101010101010112
:1085600001010101010101010101010101010101FB
:1085700001010101010101010101010101010101EB
:1085800001010101010101010101010101010101DB
:1085900001010101010101010101010101010101CB
:109350000101010101010100000000000000000006
:1093600000000000000000000000000000000000FD
:1093700000000000000000000000000000000000ED
:1093800000000000000000000000000000000000DD
:1093900000000000000000000000000000000000CD
:1097500000000000000000020202020202020202F7
:1097600002020202020202020202020202020202D9
:1097700002020202020202020202020202020202C9
:1097800002020202020202020202020202020202B9
:1097900002020202020202020202020202020202A9
:10A5500002020202020202000000000000000000ED
:10A5600000000000000000000000000000000000EB
:10A5700000000000000000000000000000000000DB
:10A5800000000000000000000000000000000000CB
:10A5900000000000000000000000000000000000BB
:10AB500000000000000000010101010101010101EC
:10AB600001010101010101010101010101010101D5
:10AB700001010101010101010101010101010101C5
:10AB800001010101010101010101010101010101B5
:10AB900001010101010101010101010101010101A5
:10B9500001010101010101000000000000000000E0
:10B9600000000000000000000000000000000000D7
:10B9700000000000000000000000000000000000C7
:10B9800000000000000000000000000000000000B7
:10B9900000000000000000000000000000000000A7
:10BD500000000000000000020202020202020202D1
:10BD600002020202020202020202020202020202B3
:10BD700002020202020202020202020202020202A3
:10BD80000202020202020202020202020202020293
:10BD90000202020202020202020202020202020283
:10CB500002020202020202000000000000000000C7
:10CB600000000000000000000000000000000000C5
:10CB700000000000000000000000000000000000B5
:10CB800000000000000000000000000000000000A5
:10CB90000000000000000000000000000000000095
:10CE50000000000000000049000000000000000188
:10CE600001010101010101010101010101010101B2
:10CE700001010101010101010101010101010101A2
:10CE80000101010101010101010101010101010192
:10CE90000101010101010101010101010101010182
:10DC500001010101010101010101010101010100B5
:10DC600000000000000000000000000000000000B4
:10DC700000000000000000000000000000000000A4
:10DC80000000000000000000000000000000000094
:10DC90000000000000000000000000000000000084
:10E0500000000000000000000000000000000002BE
:10E060000202020202020202020202020202020290
:10E070000202020202020202020202020202020280
:10E080000202020202020202020202020202020270
:10E090000202020202020202020202020202020260
:10EE50000202020202020202020202020202020094
:10EE600000000000000000000000000000000000A2
:10EE70000000000000000000000000000000000092
:10EE80000000000000000000000000000000000082
:10EE90000000000000000000000000000000000072
:10F4500000000000000000000000000000000001AB
:10F46000010101010101010101010101010101018C
:10F47000010101010101010101010101010101017C
:10F48000010101010101010101010101010101016C
:10F49000010101010101010101010101010101015C
:020000025000AC
:10025000010101010101010101010101010101008F
:10026000000000000000000000000000000000008E
:10027000000000000000000000000000000000007E
:10028000000000000000000000000000000000006E
:10029000000000000000000000000000000000005E
:100650000000000000000000000000000000000298
:10066000020202020202020202020202020202026A
:10067000020202020202020202020202020202025A
:10068000020202020202020202020202020202024A
:10069000020202020202020202020202020202023A
:10145000020202020202020202020202020202006E
:10146000000000000000000000000000000000007C
:10147000000000000000000000000000000000006C
:10148000000000000000000000000000000000005C
:10149000000000000000000000000000000000004C
:1017500000000000000000000000000000000090F9
:10176000170500000000009848050000000000A0D8
:1017700072050000000000A898050000000000B0FD
:10178000BE050000000000B8DB050000000000C03E
:10179000F4050000000000C80A060000000000D0A8
:1017A00020060000000000D836060000000000E01F
:1017B00048060000000000E859060000000000F0A4
:1017C00068060000000000F8770600000000003105
:1017D0000000000000000000000000000000000009
:1017E00000000000000001000000000000000000F8
:1017F00000000000000000000000000000000000E9
:1018000000000000000000000000000000000000D8
:1018100000000000000000000000000000000000C8
:1018200000000000000000000000000000000000B8
:1018300000000000000000000000000000000000A8
:101840000000000000000000000000000000000098
:101850000000000000000000000000000000000088
:101860000000000000000000000000000000000078
:101870000000000000000000000000000000000068
:101880000000000000000000000000000000000058
:101890000000000000000000000000000000000048
:1018A0000000000000000000000000000000000038
:1018B0000000000000000000000000000000000028
:1018C0000000000000000002000000000000000016
:1018D0000000010000000000000000000000000007
:1018E00000000000000001000000000000000000F7
:1018F00000000000000000000000000000000000E8
:1019000000000000000000000000000000000000D7
:1019100000000000000000000000000000000000C7
:1019200000000000000000000000000000000000B7
:1019300000000000000000000000000000000000A7
:101940000000000000000000000000000000000097
:101950000000000000000000000000000000000087
:101960000000000000000000000000000000000077
:101970000000000000000000000000000000000067
:101980000000000000000000000000000000000057
:101990000000000000000000000000000000000047
:1019A0000000000000000000000000000000000037
:1019B0000000000000000000000000000000000027
:1019C0000000000000000002000000000000000015
:1019D0000100010101000000000000000000000003
:1019E00000000000000001000000000000000000F6
:1019F00000000000000000000000000000000000E7
:101A000000000000000000000000000000000000D6
:101A100000000000000000000000000000000000C6
:101A200000000000000000000000000000000000B6
:101A300000000000000000000000000000000000A6
:101A40000000000000000000000000000000000096
:101A50000000000000000000000000000000000086
:101A60000000000000000000000000000000000076
:101A70000000000000000000000000000000000066
:101A80000000000000000000000000000000000056
:101A90000000000000000000000000000000000046
:101AA0000000000000000000000000000000000036
:101AB0000000000000000000000000000000000026
:101AC0000000000000000002000000000000000014
:101AD0000100010101000000000000000000000002
:101AE00000000000000001000000000000000000F5
:101AF00000000000000000000000000000000000E6
:101B000000000000000000000000000000000000D5
:101B100000000000000000000000000000000000C5
:101B200000000000000000000000000000000000B5
:101B300000000000000000000000000000000000A5
:101B40000000000000000000000000000000000095
:101B50000000000000000000000000000000000085
:101B60000000000000000000000000000000000075
:101B70000000000000000000000000000000000065
:101B80000000000000000000000000000000000055
:101B90000000000000000000000000000000000045
:101BA0000000000000000000000000000000000035
:101BB0000000000000000000000000000000000025
:101BC0000000000000000002000000000000000013
:101BD0000100010101000000000000000000000001
:101BE00000000000000001000000000000000000F4
:101BF00000000000000000000000000000000000E5
:101C000000000000000000000000000000000000D4
:101C100000000000000000000000000000000000C4
:101C200000000000000000000000000000000000B4
:101C300000000000000000000000000000000000A4
:101C40000000000000000000000000000000000094
:101C50000000000000000000000000000000000084
:101C60000000000000000000000000000000000074
:101C70000000000000000000000000000000000064
:101C80000000000000000000000000000000000054
:101C90000000000000000000000000000000000044
:101CA0000000000000000000000000000000000034
:101CB0000000000000000000000000000000000024
:101CC0000000000000000002000000000000000111
:101CD0000100010101000000000000000000000000
:101CE00000000000000101000000000000000000F2
:101CF00000000000000000000000000000000000E4
:101D000000000000000000000000000000000000D3
:101D100000000000000000000000000000000000C3
:101D200000000000000000000000000000000000B3
:101D300000000000000000000000000000000000A3
:101D40000000000000000000000000000000000093
:101D50000000000000000000000000000000000083
:101D60000000000000000000000000000000000073
:101D70000000000000000000000000000000000063
:101D80000000000000000000000000000000000053
:101D90000000000000000000000000000000000043
:101DA0000000000000000000000000000000000033
:101DB0000000000000000000000000000000000023
:101DC0000000000000000002000000000000000110
:101DD00001010101010000000000000000000000FE
:101DE00000000000000101000000000000000000F1
:101DF00000000000000000000000000000000000E3
:101E000000000000000000000000000000000000D2
:101E100000000000000000000000000000000000C2
:101E200000000000000000000000000000000000B2
:101E300000000000000000000000000000000000A2
:101E40000000000000000000000000000000000092
:101E50000000000000000000000000000000000082
:101E60000000000000000000000000000000000072
:101E70000000000000000000000000000000000062
:101E80000000000000000000000000000000000052
:101E90000000000000000000000000000000000042
:101EA0000000000000000000000000000000000032
:101EB0000000000000000000000000000000000022
:101EC000000000000000000201000000000000010E
:101ED00001010101010000000000000000000000FD
:101EE00000000000000101000000000000000000F0
:101EF00000000000000000000000000000000000E2
:101F000000000000000000000000000000000000D1
:101F100000000000000000000000000000000000C1
:101F200000000000000000000000000000000000B1
:101F300000000000000000000000000000000000A1
:101F40000000000000000000000000000000000091
:101F50000000000000000000000000000000000081
:101F60000000000000000000000000000000000071
:101F70000000000000000000000000000000000061
:101F80000000000000000000000000000000000051
:101F90000000000000000000000000000000000041
:101FA0000000000000000000000000000000000031
:101FB0000000000000000000000000000000000021
:101FC000000000000000000202000001000000010B
:101FD00001010101010000000000000000000000FC
:101FE00000000000000101000000000000000000EF
:101FF00000000000000000000000000000000000E1
:1020000000000000000000000000000000000000D0
:1020100000000000000000000000000000000000C0
:1020200000000000000000000000000000000000B0
:1020300000000000000000000000000000000000A0
:102040000000000000000000000000000000000090
:102050000000000000000000000000000000000080
:102060000000000000000000000000000000000070
:102070000000000000000000000000000000000060
:102080000000000000000000000000000000000050
:102090000000000000000000000000000000000040
:1020A0000000000000000000000000000000000030
:1020B0000000000000000000000000000000000020
:1020C0000000000000000002020000010100000109
:1020D00001010101010000000000000000000000FB
:1020E00000000000010101000000000000000000ED
:1020F00000000000000000000000000000000000E0
:1021000000000000000000000000000000000000CF
:1021100000000000000000000000000000000000BF
:1021200000000000000000000000000000000000AF
:10213000000000000000000000000000000000009F
:10214000000000000000000000000000000000008F
:10215000000000000000000000000000000000007F
:10216000000000000000000000000000000000006F
:10217000000000000000000000000000000000005F
:10218000000000000000000000000000000000004F
:10219000000000000000000000000000000000003F
:1021A000000000000000000000000000000000002F
:1021B000000000000000000000000000000000001F
:1021C0000000000000000002020100010100010106
:1021D00001010101010000000000000000000000FA
:1021E00000000000010101000000000000000000EC
:1021F00000000000000000000000000000000000DF
:1022000000000000000000000000000000000000CE
:1022100000000000000000000000000000000000BE
:1022200000000000000000000000000000000000AE
:10223000000000000000000000000000000000009E
:10224000000000000000000000000000000000008E
:10225000000000000000000000000000000000007E
:10226000000000000000000000000000000000006E
:10227000000000000000000000000000000000005E
:10228000000000000000000000000000000000004E
:10229000000000000000000000000000000000003E
:1022A000000000000000000000000000000000002E
:1022B000000000000000000000000000000000001E
:1022C0000000000000000002020100010100010105
:1022D00001010101010000000000000000000000F9
:1022E00000000001010101000000000000000000EA
:1022F00000000000000000000000000000000000DE
:1023000000000000000000000000000000000000CD
:1023100000000000000000000000000000000000BD
:1023200000000000000000000000000000000000AD
:10233000000000000000000000000000000000009D
:10234000000000000000000000000000000000008D
:10235000000000000000000000000000000000007D
:10236000000000000000000000000000000000006D
:10237000000000000000000000000000000000005D
:10238000000000000000000000000000000000004D
:10239000000000000000000000000000000000003D
:1023A000000000000000000000000000000000002D
:1023B000000000000000000000000000000000001D
:1023C0000000000000000002020200010100010103
:1023D00001010101010000000000000000000000F8
:1023E00000000101010101000000000000000000E8
:1023F00000000000000000000000000000000000DD
:1024000000000000000000000000000000000000CC
:1024100000000000000000000000000000000000BC
:1024200000000000000000000000000000000000AC
:10243000000000000000000000000000000000009C
:10244000000000000000000000000000000000008C
:10245000000000000000000000000000000000007C
:10246000000000000000000000000000000000006C
:10247000000000000000000000000000000000005C
:10248000000000000000000000000000000000004C
:10249000000000000000000000000000000000003C
:1024A000000000000000000000000000000000002C
:1024B000000000000000000000000000000000001C
:1024C0000000000000000002020201010101010100
:1024D00001010101010000000000000000000000F7
:1024E00000000101010101000000000000000000E7
:1024F00000000000000000000000000000000000DC
:1025000000000000000000000000000000000000CB
:1025100000000000000000000000000000000000BB
:1025200000000000000000000000000000000000AB
:10253000000000000000000000000000000000009B
:10254000000000000000000000000000000000008B
:10255000000000000000000000000000000000007B
:10256000000000000000000000000000000000006B
:10257000000000000000000000000000000000005B
:10258000000000000000000000000000000000004B
:10259000000000000000000000000000000000003B
:1025A000000000000000000000000000000000002B
:1025B000000000000000000000000000000000001B
:1025C00000000000000000020202010201010101FE
:1025D00001010101010000000000000000000000F6
:1025E00000000101010101000000000000000000E6
:1025F00000000000000000000000000000000000DB
:1026000000000000000000000000000000000000CA
:1026100000000000000000000000000000000000BA
:1026200000000000000000000000000000000000AA
:10263000000000000000000000000000000000009A
:10264000000000000000000000000000000000008A
:10265000000000000000000000000000000000007A
:10266000000000000000000000000000000000006A
:10267000000000000000000000000000000000005A
:10268000000000000000000000000000000000004A
:10269000000000000000000000000000000000003A
:1026A000000000000000000000000000000000002A
:1026B000000000000000000000000000000000001A
:1026C00000000000000000020202020201010101FC
:1026D00001010101010000000000000000000000F5
:1026E00001010101010101000000000000000000E3
:1026F00000000000000000000000000000000000DA
:1027000000000000000000000000000000000000C9
:1027100000000000000000000000000000000000B9
:1027200000000000000000000000000000000000A9
:102730000000000000000000000000000000000099
:102740000000000000000000000000000000000089
:102750000000000000000000000000000000000079
:102760000000000000000000000000000000000069
:102770000000000000000000000000000000000059
:102780000000000000000000000000000000000049
:102790000000000000000000000000000000000039
:1027A0000000000000000000000000000000000029
:1027B0000000000000000000000000000000000019
:1027C00000000000000000020202020202010101FA
:1027D00001010101010000000000000000000000F4
:1027E00001010101010101000000000000000000E2
:1027F00000000000000000000000000000000000D9
:1028000000000000000000000000000000000000C8
:1028100000000000000000000000000000000000B8
:1028200000000000000000000000000000000000A8
:102830000000000000000000000000000000000098
:102840000000000000000000000000000000000088
:102850000000000000000000000000000000000078
:102860000000000000000000000000000000000068
:102870000000000000000000000000000000000058
:102880000000000000000000000000000000000048
:102890000000000000000000000000000000000038
:1028A0000000000000000000000000000000000028
:1028B0000000000000000000000000000000000018
:1028C00000000000000000020202020202010101F9
:1028D00001010101010000000000000000000000F3
:1028E00001010101010101000000000000000000E1
:1028F00000000000000000000000000000000000D8
:1029000000000000000000000000000000000000C7
:1029100000000000000000000000000000000000B7
:1029200000000000000000000000000000000000A7
:102930000000000000000000000000000000000097
:102940000000000000000000000000000000000087
:102950000000000000000000000000000000000077
:102960000000000000000000000000000000000067
:102970000000000000000000000000000000000057
:102980000000000000000000000000000000000047
:102990000000000000000000000000000000000037
:1029A0000000000000000000000000000000000027
:1029B0000000000000000000000000000000000017
:1029C00000000000000000020202020202010102F7
:1029D00002010101010000000000000000000001F0
:1029E00001010101010101000000000000000000E0
:1029F00000000000000000000000000000000000D7
:102A000000000000000000000000000000000000C6
:102A100000000000000000000000000000000000B6
:102A200000000000000000000000000000000000A6
:102A30000000000000000000000000000000000096
:102A40000000000000000000000000000000000086
:102A50000000000000000000000000000000000076
:102A60000000000000000000000000000000000066
:102A70000000000000000000000000000000000056
:102A80000000000000000000000000000000000046
:102A90000000000000000000000000000000000036
:102AA0000000000000000000000000000000000026
:102AB0000000000000000000000000000000000016
:102AC00000000000000000020202020202020202F4
:102AD00002010201010000000000000000000001EE
:102AE00001010101010101000000000000000000DF
:102AF00000000000000000000000000000000000D6
:102B000000000000000000000000000000000000C5
:102B100000000000000000000000000000000000B5
:102B200000000000000000000000000000000000A5
:102B30000000000000000000000000000000000095
:102B40000000000000000000000000000000000085
:102B50000000000000000000000000000000000075
:102B60000000000000000000000000000000000065
:102B70000000000000000000000000000000000055
:102B80000000000000000000000000000000000045
:102B90000000000000000000000000000000000035
:102BA0000000000000000000000000000000000025
:102BB0000000000000000000000000000000000015
:102BC00000000000000000020202020202020202F3
:102BD00002020202010000000000000000000001EB
:102BE00001010101010101000000000000000000DE
:102BF00000000000000000000000000000000000D5
:102C000000000000000000000000000000000000C4
:102C100000000000000000000000000000000000B4
:102C200000000000000000000000000000000000A4
:102C30000000000000000000000000000000000094
:102C40000000000000000000000000000000000084
:102C50000000000000000000000000000000000074
:102C60000000000000000000000000000000000064
:102C70000000000000000000000000000000000054
:102C80000000000000000000000000000000000044
:102C90000000000000000000000000000000000034
:102CA0000000000000000000000000000000000024
:102CB0000000000000000000000000000000000014
:102CC00000000000000000020202020202020202F2
:102CD00002020202020000000000000000000101E8
:102CE00001010101010101000000000000000000DD
:102CF00000000000000000000000000000000000D4
:102D000000000000000000000000000000000000C3
:102D100000000000000000000000000000000000B3
:102D200000000000000000000000000000000000A3
:102D30000000000000000000000000000000000093
:102D40000000000000000000000000000000000083
:102D50000000000000000000000000000000000073
:102D60000000000000000000000000000000000063
:102D70000000000000000000000000000000000053
:102D80000000000000000000000000000000000043
:102D90000000000000000000000000000000000033
:102DA0000000000000000000000000000000000023
:102DB0000000000000000000000000000000000013
:102DC00000000000000000020202020202020202F1
:102DD00002020202020000000000000000000101E7
:102DE00001010101010101000000000000000000DC
:102DF00000000000000000000000000000000000D3
:102E000000000000000000000000000000000000C2
:102E100000000000000000000000000000000000B2
:102E200000000000000000000000000000000000A2
:102E30000000000000000000000000000000000092
:102E40000000000000000000000000000000000082
:102E50000000000000000000000000000000000072
:102E60000000000000000000000000000000000062
:102E70000000000000000000000000000000000052
:102E80000000000000000000000000000000000042
:102E90000000000000000000000000000000000032
:102EA0000000000000000000000000000000000022
:102EB0000000000000000000000000000000000012
:102EC00000000000000000020202020202020202F0
:102ED00002020202020000000000000000000101E6
:102EE00001010101010101000000000000000000DB
:102EF00000000000000000000000000000000000D2
:102F000000000000000000000000000000000000C1
:102F100000000000000000000000000000000000B1
:102F200000000000000000000000000000000000A1
:102F30000000000000000000000000000000000091
:102F40000000000000000000000000000000000081
:102F50000000000000000000000000000000000071
:102F60000000000000000000000000000000000061
:102F70000000000000000000000000000000000051
:102F80000000000000000000000000000000000041
:102F90000000000000000000000000000000000031
:102FA0000000000000000000000000000000000021
:102FB0000000000000000000000000000000000011
:102FC00000000000000000020202020202020202EF
:102FD00002020202020000000000000000010101E4
:102FE00001010101010101000000000000000000DA
:102FF00000000000000000000000000000000000D1
:1030000000000000000000000000000000000000C0
:1030100000000000000000000000000000000000B0
:1030200000000000000000000000000000000000A0
:103030000000000000000000000000000000000090
:103040000000000000000000000000000000000080
:103050000000000000000000000000000000000070
:103060000000000000000000000000000000000060
:103070000000000000000000000000000000000050
:103080000000000000000000000000000000000040
:103090000000000000000000000000000000000030
:1030A0000000000000000000000000000000000020
:1030B0000000000000000000000000000000000010
:1030C00000000000000000020202020202020202EE
:1030D00002020202020000000000000000010101E3
:1030E00001010101010101000000000000000000D9
:1030F00000000000000000000000000000000000D0
:1031000000000000000000000000000000000000BF
:1031100000000000000000000000000000000000AF
:10312000000000000000000000000000000000009F
:10313000000000000000000000000000000000008F
:10314000000000000000000000000000000000007F
:10315000000000000000000000000000000000006F
:10316000000000000000000000000000000000005F
:10317000000000000000000000000000000000004F
:10318000000000000000000000000000000000003F
:10319000000000000000000000000000000000002F
:1031A000000000000000000000000000000000001F
:1031B000000000000000000000000000000000000F
:1031C00000000000000000020202020202020202ED
:1031D00002020202020000000000000001010101E1
:1031E00001010101010101000000000000000000D8
:1031F00000000000000000000000000000000000CF
:1032000000000000000000000000000000000000BE
:1032100000000000000000000000000000000000AE
:10322000000000000000000000000000000000009E
:10323000000000000000000000000000000000008E
:10324000000000000000000000000000000000007E
:10325000000000000000000000000000000000006E
:10326000000000000000000000000000000000005E
:10327000000000000000000000000000000000004E
:10328000000000000000000000000000000000003E
:10329000000000000000000000000000000000002E
:1032A000000000000000000000000000000000001E
:1032B000000000000000000000000000000000000E
:1032C00000000000000000020202020202020202EC
:1032D00002020202020000000000000001010101E0
:1032E00001010101010101000000000000000000D7
:1032F00000000000000000000000000000000000CE
:1033000000000000000000000000000000000000BD
:1033100000000000000000000000000000000000AD
:10332000000000000000000000000000000000009D
:10333000000000000000000000000000000000008D
:10334000000000000000000000000000000000007D
:10335000000000000000000000000000000000006D
:10336000000000000000000000000000000000005D
:10337000000000000000000000000000000000004D
:10338000000000000000000000000000000000003D
:10339000000000000000000000000000000000002D
:1033A000000000000000000000000000000000001D
:1033B000000000000000000000000000000000000D
:1033C00000000000000000020202020202020202EB
:1033D00002020202020000000000000001010101DF
:1033E00001010101010101000000000000000000D6
:1033F00000000000000000000000000000000000CD
:1034000000000000000000000000000000000000BC
:1034100000000000000000000000000000000000AC
:10342000000000000000000000000000000000009C
:10343000000000000000000000000000000000008C
:10344000000000000000000000000000000000007C
:10345000000000000000000000000000000000006C
:10346000000000000000000000000000000000005C
:10347000000000000000000000000000000000004C
:10348000000000000000000000000000000000003C
:10349000000000000000000000000000000000002C
:1034A000000000000000000000000000000000001C
:1034B000000000000000000000000000000000000C
:1034C00000000000000000020202020202020202EA
:1034D00002020202020000000000000101010101DD
:1034E00001010101010101000000000000000000D5
:1034F00000000000000000000000000000000000CC
:1035000000000000000000000000000000000000BB
:1035100000000000000000000000000000000000AB
:10352000000000000000000000000000000000009B
:10353000000000000000000000000000000000008B
:10354000000000000000000000000000000000007B
:10355000000000000000000000000000000000006B
:10356000000000000000000000000000000000005B
:10357000000000000000000000000000000000004B
:10358000000000000000000000000000000000003B
:10359000000000000000000000000000000000002B
:1035A000000000000000000000000000000000001B
:1035B000000000000000000000000000000000000B
:1035C00000000000000000020202020202020202E9
:1035D00002020202020000000000000101010101DC
:1035E00001010101010101000000000000000000D4
:1035F00000000000000000000000000000000000CB
:1036000000000000000000000000000000000000BA
:1036100000000000000000000000000000000000AA
:10362000000000000000000000000000000000009A
:10363000000000000000000000000000000000008A
:10364000000000000000000000000000000000007A
:10365000000000000000000000000000000000006A
:10366000000000000000000000000000000000005A
:10367000000000000000000000000000000000004A
:10368000000000000000000000000000000000003A
:10369000000000000000000000000000000000002A
:1036A000000000000000000000000000000000001A
:1036B000000000000000000000000000000000000A
:1036C00000000000000000020202020202020202E8
:1036D00002020202020000000000000101010101DB
:1036E00001010101010101000000000000000000D3
:1036F00000000000000000000000000000000000CA
:1037000000000000000000000000000000000000B9
:1037100000000000000000000000000000000000A9
:103720000000000000000000000000000000000099
:103730000000000000000000000000000000000089
:103740000000000000000000000000000000000079
:103750000000000000000000000000000000000069
:103760000000000000000000000000000000000059
:103770000000000000000000000000000000000049
:103780000000000000000000000000000000000039
:103790000000000000000000000000000000000029
:1037A0000000000000000000000000000000000019
:1037B0000000000000000000000000000000000009
:1037C00000000000000000020202020202020202E7
:1037D00002020202020000000000010101010101D9
:1037E00001010101010101000000000000000000D2
:1037F00000000000000000000000000000000000C9
:1038000000000000000000000000000000000000B8
:1038100000000000000000000000000000000000A8
:103820000000000000000000000000000000000098
:103830000000000000000000000000000000000088
:103840000000000000000000000000000000000078
:103850000000000000000000000000000000000068
:103860000000000000000000000000000000000058
:103870000000000000000000000000000000000048
:103880000000000000000000000000000000000038
:103890000000000000000000000000000000000028
:1038A0000000000000000000000000000000000018
:1038B0000000000000000000000000000000000008
:1038C00000000000000000020202020202020202E6
:1038D00002020202020000000000010101010101D8
:1038E00001010101010101000000000000000000D1
:1038F00000000000000000000000000000000000C8
:1039000000000000000000000000000000000000B7
:1039100000000000000000000000000000000000A7
:103920000000000000000000000000000000000097
:103930000000000000000000000000000000000087
:103940000000000000000000000000000000000077
:103950000000000000000000000000000000000067
:103960000000000000000000000000000000000057
:103970000000000000000000000000000000000047
:103980000000000000000000000000000000000037
:103990000000000000000000000000000000000027
:1039A0000000000000000000000000000000000017
:1039B0000000000000000000000000000000000007
:1039C00000000000000000020202020202020202E5
:1039D00002020202020000000000010101010101D7
:1039E00001010101010101000000000000000000D0
:1039F00000000000000000000000000000000000C7
:103A000000000000000000000000000000000000B6
:103A100000000000000000000000000000000000A6
:103A20000000000000000000000000000000000096
:103A30000000000000000000000000000000000086
:103A40000000000000000000000000000000000076
:103A50000000000000000000000000000000000066
:103A60000000000000000000000000000000000056
:103A70000000000000000000000000000000000046
:103A80000000000000000000000000000000000036
:103A90000000000000000000000000000000000026
:103AA0000000000000000000000000000000000016
:103AB0000000000000000000000000000000000006
:103AC00000000000000000020202020202020202E4
:103AD00002020202020000000001010101010101D5
:103AE00001010101010101000000000000000000CF
:103AF00000000000000000000000000000000000C6
:103B000000000000000000000000000000000000B5
:103B100000000000000000000000000000000000A5
:103B20000000000000000000000000000000000095
:103B30000000000000000000000000000000000085
:103B40000000000000000000000000000000000075
:103B50000000000000000000000000000000000065
:103B60000000000000000000000000000000000055
:103B70000000000000000000000000000000000045
:103B80000000000000000000000000000000000035
:103B90000000000000000000000000000000000025
:103BA0000000000000000000000000000000000015
:103BB0000000000000000000000000000000000005
:103BC00000000000000000020202020202020202E3
:103BD00002020202020000000001010101010101D4
:103BE00001010101010101000000000000000000CE
:103BF00000000000000000000000000000000000C5
:103C000000000000000000000000000000000000B4
:103C100000000000000000000000000000000000A4
:103C20000000000000000000000000000000000094
:103C30000000000000000000000000000000000084
:103C40000000000000000000000000000000000074
:103C50000000000000000000000000000000000064
:103C60000000000000000000000000000000000054
:103C70000000000000000000000000000000000044
:103C80000000000000000000000000000000000034
:103C90000000000000000000000000000000000024
:103CA0000000000000000000000000000000000014
:103CB0000000000000000000000000000000000004
:103CC00000000000000000020202020202020202E2
:103CD00002020202020000000001010101010101D3
:103CE00001010101010101000000000000000000CD
:103CF00000000000000000000000000000000000C4
:103D000000000000000000000000000000000000B3
:103D100000000000000000000000000000000000A3
:103D20000000000000000000000000000000000093
:103D30000000000000000000000000000000000083
:103D40000000000000000000000000000000000073
:103D50000000000000000000000000000000000063
:103D60000000000000000000000000000000000053
:103D70000000000000000000000000000000000043
:103D80000000000000000000000000000000000033
:103D90000000000000000000000000000000000023
:103DA0000000000000000000000000000000000013
:103DB0000000000000000000000000000000000003
:103DC00000000000000000020202020202020202E1
:103DD00002020202020100000001010101010101D1
:103DE00001010101010101000000000000000000CC
:103DF00000000000000000000000000000000000C3
:103E000000000000000000000000000000000000B2
:103E100000000000000000000000000000000000A2
:103E20000000000000000000000000000000000092
:103E30000000000000000000000000000000000082
:103E40000000000000000000000000000000000072
:103E50000000000000000000000000000000000062
:103E60000000000000000000000000000000000052
:103E70000000000000000000000000000000000042
:103E80000000000000000000000000000000000032
:103E90000000000000000000000000000000000022
:103EA0000000000000000000000000000000000012
:103EB0000000000000000000000000000000000002
:103EC00000000000000000020202020202020202E0
:103ED00002020202020100000001010101010101D0
:103EE00001010101010101000000000000000000CB
:103EF00000000000000000000000000000000000C2
:103F000000000000000000000000000000000000B1
:103F100000000000000000000000000000000000A1
:103F20000000000000000000000000000000000091
:103F30000000000000000000000000000000000081
:103F40000000000000000000000000000000000071
:103F50000000000000000000000000000000000061
:103F60000000000000000000000000000000000051
:103F70000000000000000000000000000000000041
:103F80000000000000000000000000000000000031
:103F90000000000000000000000000000000000021
:103FA0000000000000000000000000000000000011
:103FB0000000000000000000000000000000000001
:103FC00000000000000000020202020202020202DF
:103FD00002020202020100000101010101010101CE
:103FE00001010101010101000000000000000000CA
:103FF00000000000000000000000000000000000C1
:1040000000000000000000000000000000000000B0
:1040100000000000000000000000000000000000A0
:104020000000000000000000000000000000000090
:104030000000000000000000000000000000000080
:104040000000000000000000000000000000000070
:104050000000000000000000000000000000000060
:104060000000000000000000000000000000000050
:104070000000000000000000000000000000000040
:104080000000000000000000000000000000000030
:104090000000000000000000000000000000000020
:1040A0000000000000000000000000000000000010
:1040B0000000000000000000000000000000000000
:1040C00000000000000000020202020202020202DE
:1040D00002020202020200000101010101010101CC
:1040E00001010101010101000000000000000000C9
:1040F00000000000000000000000000000000000C0
:1041000000000000000000000000000000000000AF
:10411000000000000000000000000000000000009F
:10412000000000000000000000000000000000008F
:10413000000000000000000000000000000000007F
:10414000000000000000000000000000000000006F
:10415000000000000000000000000000000000005F
:10416000000000000000000000000000000000004F
:10417000000000000000000000000000000000003F
:10418000000000000000000000000000000000002F
:10419000000000000000000000000000000000001F
:1041A000000000000000000000000000000000000F
:1041B00000000000000000000000000000000000FF
:1041C00000000000000000020202020202020202DD
:1041D00002020202020200000101010101010101CB
:1041E00001010101010101000000000000000000C8
:1041F00000000000000000000000000000000000BF
:1042000000000000000000000000000000000000AE
:10421000000000000000000000000000000000009E
:10422000000000000000000000000000000000008E
:10423000000000000000000000000000000000007E
:10424000000000000000000000000000000000006E
:10425000000000000000000000000000000000005E
:10426000000000000000000000000000000000004E
:10427000000000000000000000000000000000003E
:10428000000000000000000000000000000000002E
:10429000000000000000000000000000000000001E
:1042A000000000000000000000000000000000000E
:1042B00000000000000000000000000000000000FE
:1042C00000000000000000020202020202020202DC
:1042D00002020202020200000101010101010101CA
:1042E00001010101010101000000000000000000C7
:1042F00000000000000000000000000000000000BE
:1043000000000000000000000000000000000000AD
:10431000000000000000000000000000000000009D
:10432000000000000000000000000000000000008D
:10433000000000000000000000000000000000007D
:10434000000000000000000000000000000000006D
:10435000000000000000000000000000000000005D
:10436000000000000000000000000000000000004D
:10437000000000000000000000000000000000003D
:10438000000000000000000000000000000000002D
:10439000000000000000000000000000000000001D
:1043A000000000000000000000000000000000000D
:1043B00000000000000000000000000000000000FD
:1043C00000000000000000020202020202020202DB
:1043D00002020202020200000101010101010101C9
:1043E00001010101010101000000000000000000C6
:1043F00000000000000000000000000000000000BD
:1044000000000000000000000000000000000000AC
:10441000000000000000000000000000000000009C
:10442000000000000000000000000000000000008C
:10443000000000000000000000000000000000007C
:10444000000000000000000000000000000000006C
:10445000000000000000000000000000000000005C
:10446000000000000000000000000000000000004C
:10447000000000000000000000000000000000003C
:10448000000000000000000000000000000000002C
:10449000000000000000000000000000000000001C
:1044A000000000000000000000000000000000000C
:1044B00000000000000000000000000000000000FC
:1044C00000000000000000020202020202020202DA
:1044D00002020202020200000101010101010101C8
:1044E00001010101010101000000000000000000C5
:1044F00000000000000000000000000000000000BC
:1045000000000000000000000000000000000000AB
:10451000000000000000000000000000000000009B
:10452000000000000000000000000000000000008B
:10453000000000000000000000000000000000007B
:10454000000000000000000000000000000000006B
:10455000000000000000000000000000000000005B
:10456000000000000000000000000000000000004B
:10457000000000000000000000000000000000003B
:10458000000000000000000000000000000000002B
:10459000000000000000000000000000000000001B
:1045A000000000000000000000000000000000000B
:1045B00000000000000000000000000000000000FB
:1045C00000000000000000020202020202020202D9
:1045D00002020202020200000101010101010101C7
:1045E00001010101010101000000000000000000C4
:1045F00000000000000000000000000000000000BB
:1046000000000000000000000000000000000000AA
:10461000000000000000000000000000000000009A
:10462000000000000000000000000000000000008A
:10463000000000000000000000000000000000007A
:10464000000000000000000000000000000000006A
:10465000000000000000000000000000000000005A
:10466000000000000000000000000000000000004A
:10467000000000000000000000000000000000003A
:10468000000000000000000000000000000000002A
:10469000000000000000000000000000000000001A
:1046A000000000000000000000000000000000000A
:1046B00000000000000000000000000000000000FA
:1046C00000000000000000020202020202020202D8
:1046D00002020202020200000101010101010101C6
:1046E00001010101010101000000000000000000C3
:1046F00000000000000000000000000000000000BA
:1047000000000000000000000000000000000000A9
:104710000000000000000000000000000000000099
:104720000000000000000000000000000000000089
:104730000000000000000000000000000000000079
:104740000000000000000000000000000000000069
:104750000000000000000000000000000000000059
:104760000000000000000000000000000000000049
:104770000000000000000000000000000000000039
:104780000000000000000000000000000000000029
:104790000000000000000000000000000000000019
:1047A0000000000000000000000000000000000009
:1047B00000000000000000000000000000000000F9
:1047C00000000000000000020202020202020202D7
:1047D00002020202020200000000000000000000CD
:1047E00000000000000000000000000000000000C9
:1047F00000000000000000000000000000000000B9
:1048000000000000000000000000000000000000A8
:104810000000000000000000000000000000000098
:104820000000000000000000000000000000000088
:104830000000000000000000000000000000000078
:104840000000000000000000000000000000000068
:104850000000000000000000000000000000000058
:104860000000000000000000000000000000000048
:104870000000000000000000000000000000000038
:104880000000000000000000000000000000000028
:104890000000000000000000000000000000000018
:1048A0000000000000000000000000000000000008
:1048B00000000000000000000000000000000000F8
:1048C00000000000000000000000000000000000E8
:1048D000000000000000002A0000000000000000AE
:1048E00000000000000000000000000000000100C7
:1048F00000000000000000000000000000000000B8
:1049000000000000000000000000000000000000A7
:104910000000000000000000000000000000000097
:104920000000000000000000000000000000000087
:104930000000000000000000000000000000000077
:104940000000000000000000000000000000000067
:104950000000000000000000000000000000000057
:104960000000000000000000000000000000000047
:104970000000000000000000000000000000000037
:104980000000000000000000000000000000000027
:104990000000000000000000000000000000000017
:1049A0000000000000000000000000000000000007
:1049B00000000000000000000000000000000000F7
:1049C00000000000000000000000000000000002E5
:1049D00000000000000000000000000000000000D7
:1049E00000000000000000000000000000000100C6
:1049F00000000000000000000000000000000000B7
:104A000000000000000000000000000000000000A6
:104A10000000000000000000000000000000000096
:104A20000000000000000000000000000000000086
:104A30000000000000000000000000000000000076
:104A40000000000000000000000000000000000066
:104A50000000000000000000000000000000000056
:104A60000000000000000000000000000000000046
:104A70000000000000000000000000000000000036
:104A80000000000000000000000000000000000026
:104A90000000000000000000000000000000000016
:104AA0000000000000000000000000000000000006
:104AB00000000000000000000000000000000000F6
:104AC00000000000000000000000000000000002E4
:104AD00000000000000000000000000000000000D6
:104AE00000000000000000000000000000000100C5
:104AF00000000000000000000000000000000000B6
:104B000000000000000000000000000000000000A5
:104B10000000000000000000000000000000000095
:104B20000000000000000000000000000000000085
:104B30000000000000000000000000000000000075
:104B40000000000000000000000000000000000065
:104B50000000000000000000000000000000000055
:104B60000000000000000000000000000000000045
:104B70000000000000000000000000000000000035
:104B80000000000000000000000000000000000025
:104B90000000000000000000000000000000000015
:104BA0000000000000000000000000000000000005
:104BB00000000000000000000000000000000000F5
:104BC00000000000000000000000000000000002E3
:104BD00000000000000000000000000000000000D5
:104BE00000000000000000000000000000000100C4
:104BF00000000000000000000000000000000000B5
:104C000000000000000000000000000000000000A4
:104C10000000000000000000000000000000000094
:104C20000000000000000000000000000000000084
:104C30000000000000000000000000000000000074
:104C40000000000000000000000000000000000064
:104C50000000000000000000000000000000000054
:104C60000000000000000000000000000000000044
:104C70000000000000000000000000000000000034
:104C80000000000000000000000000000000000024
:104C90000000000000000000000000000000000014
:104CA0000000000000000000000000000000000004
:104CB00000000000000000000000000000000000F4
:104CC00000000000000000000000000000000002E2
:104CD00000000000000000000000000000000000D4
:104CE00000000000000000000000000000000100C3
:104CF00000000000000000000000000000000000B4
:104D000000000000000000000000000000000000A3
:104D10000000000000000000000000000000000093
:104D20000000000000000000000000000000000083
:104D30000000000000000000000000000000000073
:104D40000000000000000000000000000000000063
:104D50000000000000000000000000000000000053
:104D60000000000000000000000000000000000043
:104D70000000000000000000000000000000000033
:104D80000000000000000000000000000000000023
:104D90000000000000000000000000000000000013
:104DA0000000000000000000000000000000000003
:104DB00000000000000000000000000000000000F3
:104DC00000000000000000000000000000000002E1
:104DD00000000000000000000000000000000000D3
:104DE00000000000000000000000000000000100C2
:104DF00000000000000000000000000000000000B3
:104E000000000000000000000000000000000000A2
:104E10000000000000000000000000000000000092
:104E20000000000000000000000000000000000082
:104E30000000000000000000000000000000000072
:104E40000000000000000000000000000000000062
:104E50000000000000000000000000000000000052
:104E60000000000000000000000000000000000042
:104E70000000000000000000000000000000000032
:104E80000000000000000000000000000000000022
:104E90000000000000000000000000000000000012
:104EA0000000000000000000000000000000000002
:104EB00000000000000000000000000000000000F2
:104EC00000000000000000000000000000000002E0
:104ED00002000000000000000000000000000000D0
:104EE00000000000000000000000000000000100C1
:104EF00000000000000000000000000000000000B2
:104F000000000000000000000000000000000000A1
:104F10000000000000000000000000000000000091
:104F20000000000000000000000000000000000081
:104F30000000000000000000000000000000000071
:104F40000000000000000000000000000000000061
:104F50000000000000000000000000000000000051
:104F60000000000000000000000000000000000041
:104F70000000000000000000000000000000000031
:104F80000000000000000000000000000000000021
:104F90000000000000000000000000000000000011
:104FA0000000000000000000000000000000000001
:104FB00000000000000000000000000000000000F1
:104FC00000000000000000000000000000000002DF
:104FD00002000000000000000000000000000000CF
:104FE00000000000000000000000000000010100BF
:104FF00000000000000000000000000000000000B1
:1050000000000000000000000000000000000000A0
:105010000000000000000000000000000000000090
:105020000000000000000000000000000000000080
:105030000000000000000000000000000000000070
:105040000000000000000000000000000000000060
:105050000000000000000000000000000000000050
:105060000000000000000000000000000000000040
:105070000000000000000000000000000000000030
:105080000000000000000000000000000000000020
:105090000000000000000000000000000000000010
:1050A0000000000000000000000000000000000000
:1050B00000000000000000000000000000000000F0
:1050C00000000000000000000000000000000002DE
:1050D00002000000000000000000000000000000CE
:1050E00000000000000000000000000000010100BE
:1050F00000000000000000000000000000000000B0
:10510000000000000000000000000000000000009F
:10511000000000000000000000000000000000008F
:10512000000000000000000000000000000000007F
:10513000000000000000000000000000000000006F
:10514000000000000000000000000000000000005F
:10515000000000000000000000000000000000004F
:10516000000000000000000000000000000000003F
:10517000000000000000000000000000000000002F
:10518000000000000000000000000000000000001F
:10519000000000000000000000000000000000000F
:1051A00000000000000000000000000000000000FF
:1051B00000000000000000000000000000000000EF
:1051C00000000000000000000000000000000002DD
