:10000000D80843F8511F0100500A00000706A2005B
:100010000366211D3C31018502000000400000E51F
:100020004700000100040D00FFFC00000000005428
:10003000000306090C0F1215181B1E21262B302851
:10004000000000000000000862050000000000E859
:10005000EF060000000000C8B10A0000000000A880
:10006000730E00000000009800000000000000A0D7
:1000700065000000000000A8BC000000000000B007
:100080000B010000000000B85A010000000000C091
:10009000AA010000000000C83D020000000000D0DE
:1000A000C4020000000000D83F030000000000E090
:1000B000AE030000000000E80D040000000000F0A6
:1000C00068040000000000F8BB040000000000000D
:1000D0000F050000000000650000000000000001A6
:1000E0000101010101010101010101010101010100
:1000F00001010101010101010101010101010101F0
:1001000001010101010101010101010101010101DF
:1001100001010101010101010101010101010101CF
:1030D00001010101010101010101010101010100E1
:1030E00000000000000000000000000000000000E0
:1030F00000000000000000000000000000000000D0
:1031000000000000000000000000000000000000BF
:1031100000000000000000000000000000000000AF
:1034D00000000000000000000000000000000002EA
:1034E00002020202020202020202020202020202BC
:1034F00002020202020202020202020202020202AC
:10350000020202020202020202020202020202029B
:10351000020202020202020202020202020202028B
:1064D000020202020202020202020202020202009E
:1064E00000000000000000000000000000000000AC
:1064F000000000000000000000000000000000009C
:10650000000000000000000000000000000000008B
:10651000000000000000000000000000000000007B
:10652000000000000000000000000000000000006B
:10653000000000000000000000000000000000005B
:10654000000000000000000000000000000000004B
:10655000000000000000000000000000000000003B
:10656000000000000000000000000000000000002B
:10657000000000000000000000000000000000001B
:10658000000000000000000000000000000000000B
:1065900000000000000000000000000000000000FB
:1065A00000000000000000000000000000000000EB
:1065B00000000000000000000000000000000000DB
:1065C00000000000000000000000000000000000CB
:1065D0000000000000000000000000000000005764
:1065E00000000000000000010101010101010101A2
:1065F000010101010101010101010101010101018B
:10660000010101010101010101010101010101017A
:10661000010101010101010101010101010101016A
:10662000010101010101010101010101010101015A
:108EE000010101010101010000000000000000007B
:108EF0000000000000000000000000000000000072
:108F00000000000000000000000000000000000061
:108F10000000000000000000000000000000000051
:108F20000000000000000000000000000000000041
:1092E000000000000000000202020202020202026C
:1092F000020202020202020202020202020202024E
:10930000020202020202020202020202020202023D
:10931000020202020202020202020202020202022D
:10932000020202020202020202020202020202021D
:10BBE0000202020202020200000000000000000047
:10BBF0000000000000000000000000000000000045
:10BC00000000000000000000000000000000000034
:10BC10000000000000000000000000000000000024
:10BC20000000000000000000000000000000000014
:10BC30000000000000000000000000000000000004
:10BC400000000000000000000000000000000000F4
:10BC500000000000000000000000000000000000E4
:10BC600000000000000000000000000000000000D4
:10BC700000000000000000000000000000000000C4
:10BC800000000000000000000000000000000000B4
:10BC900000000000000000000000000000000000A4
:10BCA0000000000000000000000000000000000094
:10BCB0000000000000000000000000000000000084
:10BCC0000000000000000000000000000000000074
:10BCD0000000000000000000000000000000000064
:10BCE000000000000000004F000000000000000104
:10BCF0000101010101010101010101010101010134
:10BD00000101010101010101010101010101010123
:10BD10000101010101010101010101010101010113
:10BD20000101010101010101010101010101010103
:10E1E0000101010101010101010101010101010020
:10E1F000000000000000000000000000000000001F
:10E20000000000000000000000000000000000000E
:10E2100000000000000000000000000000000000FE
:10E2200000000000000000000000000000000000EE
:10E5E0000000000000000000000000000000000229
:10E5F00002020202020202020202020202020202FB
:10E6000002020202020202020202020202020202EA
:10E6100002020202020202020202020202020202DA
:10E6200002020202020202020202020202020202CA
:020000021000EC
:100AE00002020202020202020202020202020200E8
:100AF00000000000000000000000000000000000F6
:100B000000000000000000000000000000000000E5
:100B100000000000000000000000000000000000D5
:100B200000000000000000000000000000000000C5
:100B300000000000000000000000000000000000B5
:100B400000000000000000000000000000000000A5
:100B50000000000000000000000000000000000095
:100B60000000000000000000000000000000000085
:100B70000000000000000000000000000000000075
:100B80000000000000000000000000000000000065
:100B90000000000000000000000000000000000055
:100BA0000000000000000000000000000000000045
:100BB0000000000000000000000000000000000035
:100BC0000000000000000000000000000000000025
:100BD0000000000000000000000000000000000015
:100BE0000000000000000000000000000000004FB6
:100BF00000000000000000010101010101010101EC
:100C000001010101010101010101010101010101D4
:100C100001010101010101010101010101010101C4
:100C200001010101010101010101010101010101B4
:100C300001010101010101010101010101010101A4
:1030F00001010101010101000000000000000000C9
:1031000000000000000000000000000000000000BF
:1031100000000000000000000000000000000000AF
:10312000000000000000000000000000000000009F
:10313000000000000000000000000000000000008F
:1034F00000000000000000020202020202020202BA
:10350000020202020202020202020202020202029B
:10351000020202020202020202020202020202028B
:10352000020202020202020202020202020202027B
:10353000020202020202020202020202020202026B
:1059F0000202020202020200000000000000000099
:105A00000000000000000000000000000000000096
:105A10000000000000000000000000000000000086
:105A20000000000000000000000000000000000076
:105A30000000000000000000000000000000000066
:105A40000000000000000000000000000000000056
:105A50000000000000000000000000000000000046
:105A60000000000000000000000000000000000036
:105A70000000000000000000000000000000000026
:105A80000000000000000000000000000000000016
:105A90000000000000000000000000000000000006
:105AA00000000000000000000000000000000000F6
:105AB00000000000000000000000000000000000E6
:105AC00000000000000000000000000000000000D6
:105AD00000000000000000000000000000000000C6
:105AE00000000000000000000000000000000000B6
:105AF0000000000000000050000000000000000155
:105B00000101010101010101010101010101010185
:105B10000101010101010101010101010101010175
:105B20000101010101010101010101010101010165
:105B30000101010101010101010101010101010155
:1076F000010101010101010101010101010101007B
:107700000000000000000000000000000000000079
:107710000000000000000000000000000000000069
:107720000000000000000000000000000000000059
:107730000000000000000000000000000000000049
:107AF0000000000000000000000000000000000185
:107B00000101010101010101010101010101010165
:107B10000101010101010101010101010101010155
:107B20000101010101010101010101010101010145
:107B30000101010101010101010101010101010135
:1080F000010101010101010101010101010101026F
:10810000020202020202020202020202020202024F
:10811000020202020202020202020202020202023F
:10812000020202020202020202020202020202022F
:10813000020202020202020202020202020202021F
:10A2F0000202020202020202020202020202020040
:10A30000000000000000000000000000000000004D
:10A31000000000000000000000000000000000003D
:10A32000000000000000000000000000000000002D
:10A33000000000000000000000000000000000001D
:10AAF00000000000000000000000000000000093C3
:10AB0000000000000000000101010101010101013C
:10AB10000101010101010101010101010101010125
:10AB20000101010101010101010101010101010115
:10AB30000101010101010101010101010101010105
:10AB400001010101010101010101010101010101F5
:10C300000101010101010100000000000000000026
:10C31000000000000000000000000000000000001D
:10C32000000000000000000000000000000000000D
:10C3300000000000000000000000000000000000FD
:10C3400000000000000000000000000000000000ED
:10C700000000000000000001010101010101010120
:10C710000101010101010101010101010101010109
:10C7200001010101010101010101010101010101F9
:10C7300001010101010101010101010101010101E9
:10C7400001010101010101010101010101010101D9
:10CD0000010101010101010202020202020202020A
:10CD100002020202020202020202020202020202F3
:10CD200002020202020202020202020202020202E3
:10CD300002020202020202020202020202020202D3
:10CD400002020202020202020202020202020202C3
:10EB000002020202020202000000000000000000F7
:10EB100000000000000000000000000000000000F5
:10EB200000000000000000000000000000000000E5
:10EB300000000000000000000000000000000000D5
:10EB400000000000000000000000000000000000C5
:10F6000000000000000000010101010101010101F1
:10F6100001010101010101010101010101010101DA
:10F6200001010101010101010101010101010101CA
:10F6300001010101010101010101010101010101BA
:10F6400001010101010101010101010101010101AA
:020000022000DC
:100E000001010101010101000000000000000000DB
:100E100000000000000000000000000000000000D2
:100E200000000000000000000000000000000000C2
:100E300000000000000000000000000000000000B2
:100E400000000000000000000000000000000000A2
:1012000000000000000000010101010101010101D5
:1012100001010101010101010101010101010101BE
:1012200001010101010101010101010101010101AE
:10123000010101010101010101010101010101019E
:10124000010101010101010101010101010101018E
:1018000001010101010101020202020202020202BF
:1018100002020202020202020202020202020202A8
:101820000202020202020202020202020202020298
:101830000202020202020202020202020202020288
:101840000202020202020202020202020202020278
:1036000002020202020202000000000000000000AC
:1036100000000000000000000000000000000000AA
:10362000000000000000000000000000000000009A
:10363000000000000000000000000000000000008A
:10364000000000000000000000000000000000007A
:103E0000000000000000008700000000000000012A
:103E10000101010101010101010101010101010192
:103E20000101010101010101010101010101010182
:103E30000101010101010101010101010101010172
:103E40000101010101010101010101010101010162
:10530000010101010101010101010101010101008E
:10531000000000000000000000000000000000008D
:10532000000000000000000000000000000000007D
:10533000000000000000000000000000000000006D
:10534000000000000000000000000000000000005D
:105700000000000000000000000000000000000198
:105710000101010101010101010101010101010179
:105720000101010101010101010101010101010169
:105730000101010101010101010101010101010159
:105740000101010101010101010101010101010149
:105D00000101010101010101010101010101010282
:105D10000202020202020202020202020202020263
:105D20000202020202020202020202020202020253
:105D30000202020202020202020202020202020243
:105D40000202020202020202020202020202020233
:10780000020202020202020202020202020202005A
:107810000000000000000000000000000000000068
:107820000000000000000000000000000000000058
:107830000000000000000000000000000000000048
:107840000000000000000000000000000000000038
:10830000000000000000000000000000000000016C
:10831000010101010101010101010101010101014D
:10832000010101010101010101010101010101013D
:10833000010101010101010101010101010101012D
:10834000010101010101010101010101010101011D
:109800000101010101010101010101010101010049
:109810000000000000000000000000000000000048
:109820000000000000000000000000000000000038
:109830000000000000000000000000000000000028
:109840000000000000000000000000000000000018
:109C00000000000000000000000000000000000153
:109C10000101010101010101010101010101010134
:109C20000101010101010101010101010101010124
:109C30000101010101010101010101010101010114
:109C40000101010101010101010101010101010104
:10A20000010101010101010101010101010101023D
:10A21000020202020202020202020202020202021E
:10A22000020202020202020202020202020202020E
:10A2300002020202020202020202020202020202FE
:10A2400002020202020202020202020202020202EE
:10BD00000202020202020202020202020202020015
:10BD10000000000000000000000000000000000023
:10BD20000000000000000000000000000000000013
:10BD30000000000000000000000000000000000003
:10BD400000000000000000000000000000000000F3
:10C500000000000000000000000000000000007BB0
:10C510000000000000000001010101010101010112
:10C5200001010101010101010101010101010101FB
:10C5300001010101010101010101010101010101EB
:10C5400001010101010101010101010101010101DB
:10C5500001010101010101010101010101010101CB
:10DA100001010101010101000000000000000000FF
:10DA200000000000000000000000000000000000F6
:10DA300000000000000000000000000000000000E6
:10DA400000000000000000000000000000000000D6
:10DA500000000000000000000000000000000000C6
:10DE100000000000000000010101010101010101F9
:10DE200001010101010101010101010101010101E2
:10DE300001010101010101010101010101010101D2
:10DE400001010101010101010101010101010101C2
:10DE500001010101010101010101010101010101B2
:10E1100001010101010101020202020202020202E6
:10E1200002020202020202020202020202020202CF
:10E1300002020202020202020202020202020202BF
:10E1400002020202020202020202020202020202AF
:10E15000020202020202020202020202020202029F
:10F9100002020202020202000000000000000000D9
:10F9200000000000000000000000000000000000D7
:10F9300000000000000000000000000000000000C7
:10F9400000000000000000000000000000000000B7
:10F9500000000000000000000000000000000000A7
:020000023000CC
:1004100000000000000000010101010101010101D3
:1004200001010101010101010101010101010101BC
:1004300001010101010101010101010101010101AC
:10044000010101010101010101010101010101019C
:10045000010101010101010101010101010101018C
:1019100001010101010101000000000000000000C0
:1019200000000000000000000000000000000000B7
:1019300000000000000000000000000000000000A7
:101940000000000000000000000000000000000097
:101950000000000000000000000000000000000087
:101D100000000000000000010101010101010101BA
:101D200001010101010101010101010101010101A3
:101D30000101010101010101010101010101010193
:101D40000101010101010101010101010101010183
:101D50000101010101010101010101010101010173
:1020100001010101010101020202020202020202A7
:102020000202020202020202020202020202020290
:102030000202020202020202020202020202020280
:102040000202020202020202020202020202020270
:102050000202020202020202020202020202020260
:10381000020202020202020000000000000000009A
:103820000000000000000000000000000000000098
:103830000000000000000000000000000000000088
:103840000000000000000000000000000000000078
:103850000000000000000000000000000000000068
:10401000000000000000006F000000000000000130
:104020000101010101010101010101010101010180
:104030000101010101010101010101010101010170
:104040000101010101010101010101010101010160
:104050000101010101010101010101010101010150
:10551000010101010101010101010101010101007C
:10552000000000000000000000000000000000007B
:10553000000000000000000000000000000000006B
:10554000000000000000000000000000000000005B
:10555000000000000000000000000000000000004B
:105910000000000000000000000000000000000285
:105920000202020202020202020202020202020257
:105930000202020202020202020202020202020247
:105940000202020202020202020202020202020237
:105950000202020202020202020202020202020227
:106E10000202020202020202020202020202020054
:106E20000000000000000000000000000000000062
:106E30000000000000000000000000000000000052
:106E40000000000000000000000000000000000042
:106E50000000000000000000000000000000000032
:107910000000000000000000000000000000000166
:107920000101010101010101010101010101010147
:107930000101010101010101010101010101010137
:107940000101010101010101010101010101010127
:107950000101010101010101010101010101010117
:108E10000101010101010101010101010101010043
:108E20000000000000000000000000000000000042
:108E30000000000000000000000000000000000032
:108E40000000000000000000000000000000000022
:108E50000000000000000000000000000000000012
:10921000000000000000000000000000000000024C
:10922000020202020202020202020202020202021E
:10923000020202020202020202020202020202020E
:1092400002020202020202020202020202020202FE
:1092500002020202020202020202020202020202EE
:10A71000020202020202020202020202020202001B
:10A720000000000000000000000000000000000029
:10A730000000000000000000000000000000000019
:10A740000000000000000000000000000000000009
:10A7500000000000000000000000000000000000F9
:10AF10000000000000000000000000000000005FD2
:10AF20000000000000000001010101010101010118
:10AF30000101010101010101010101010101010101
:10AF400001010101010101010101010101010101F1
:10AF500001010101010101010101010101010101E1
:10AF600001010101010101010101010101010101D1
:10C020000101010101010100000000000000000009
:10C030000000000000000000000000000000000000
:10C0400000000000000000000000000000000000F0
:10C0500000000000000000000000000000000000E0
:10C0600000000000000000000000000000000000D0
:10C4200000000000000000020202020202020202FA
:10C4300002020202020202020202020202020202DC
:10C4400002020202020202020202020202020202CC
:10C4500002020202020202020202020202020202BC
:10C4600002020202020202020202020202020202AC
:10D5200002020202020202000000000000000000ED
:10D5300000000000000000000000000000000000EB
:10D5400000000000000000000000000000000000DB
:10D5500000000000000000000000000000000000CB
:10D5600000000000000000000000000000000000BB
:10E0200000000000000000010101010101010101E7
:10E0300001010101010101010101010101010101D0
:10E0400001010101010101010101010101010101C0
:10E0500001010101010101010101010101010101B0
:10E0600001010101010101010101010101010101A0
:10F1200001010101010101000000000000000000D8
:10F1300000000000000000000000000000000000CF
:10F1400000000000000000000000000000000000BF
:10F1500000000000000000000000000000000000AF
:10F16000000000000000000000000000000000009F
:10F5200000000000000000020202020202020202C9
:10F5300002020202020202020202020202020202AB
:10F54000020202020202020202020202020202029B
:10F55000020202020202020202020202020202028B
:10F56000020202020202020202020202020202027B
:020000024000BC
:1006200002020202020202000000000000000000BC
:1006300000000000000000000000000000000000BA
:1006400000000000000000000000000000000000AA
:10065000000000000000000000000000000000009A
:10066000000000000000000000000000000000008A
:100E2000000000000000005B000000000000000166
:100E300001010101010101010101010101010101A2
:100E40000101010101010101010101010101010192
:100E50000101010101010101010101010101010182
:100E60000101010101010101010101010101010172
:101E200001010101010101010101010101010100A3
:101E300000000000000000000000000000000000A2
:101E40000000000000000000000000000000000092
:101E50000000000000000000000000000000000082
:101E60000000000000000000000000000000000072
:1022200000000000000000000000000000000002AC
:10223000020202020202020202020202020202027E
:10224000020202020202020202020202020202026E
:10225000020202020202020202020202020202025E
:10226000020202020202020202020202020202024E
:103220000202020202020202020202020202020080
:10323000000000000000000000000000000000008E
:10324000000000000000000000000000000000007E
:10325000000000000000000000000000000000006E
:10326000000000000000000000000000000000005E
:103D20000000000000000000000000000000000192
:103D30000101010101010101010101010101010173
:103D40000101010101010101010101010101010163
:103D50000101010101010101010101010101010153
:103D60000101010101010101010101010101010143
:104D20000101010101010101010101010101010074
:104D30000000000000000000000000000000000073
:104D40000000000000000000000000000000000063
:104D50000000000000000000000000000000000053
:104D60000000000000000000000000000000000043
:10512000000000000000000000000000000000027D
:10513000020202020202020202020202020202024F
:10514000020202020202020202020202020202023F
:10515000020202020202020202020202020202022F
:10516000020202020202020202020202020202021F
:106120000202020202020202020202020202020051
:10613000000000000000000000000000000000005F
:10614000000000000000000000000000000000004F
:10615000000000000000000000000000000000003F
:10616000000000000000000000000000000000002F
:106920000000000000000000000000000000005314
:10693000000000000000000101010101010101014E
:106940000101010101010101010101010101010137
:106950000101010101010101010101010101010127
:106960000101010101010101010101010101010117
:106970000101010101010101010101010101010107
:107730000101010101010100000000000000000042
:107740000000000000000000000000000000000039
:107750000000000000000000000000000000000029
:107760000000000000000000000000000000000019
:107770000000000000000000000000000000000009
:107B30000000000000000002020202020202020233
:107B40000202020202020202020202020202020215
:107B50000202020202020202020202020202020205
:107B600002020202020202020202020202020202F5
:107B700002020202020202020202020202020202E5
:108930000202020202020200000000000000000029
:108940000000000000000000000000000000000027
:108950000000000000000000000000000000000017
:108960000000000000000000000000000000000007
:1089700000000000000000000000000000000000F7
:109430000000000000000001010101010101010123
:10944000010101010101010101010101010101010C
:1094500001010101010101010101010101010101FC
:1094600001010101010101010101010101010101EC
:1094700001010101010101010101010101010101DC
:10A230000101010101010100000000000000000017
:10A24000000000000000000000000000000000000E
:10A2500000000000000000000000000000000000FE
:10A2600000000000000000000000000000000000EE
:10A2700000000000000000000000000000000000DE
:10A630000000000000000002020202020202020208
:10A6400002020202020202020202020202020202EA
:10A6500002020202020202020202020202020202DA
:10A6600002020202020202020202020202020202CA
:10A6700002020202020202020202020202020202BA
:10B4300002020202020202000000000000000000FE
:10B4400000000000000000000000000000000000FC
:10B4500000000000000000000000000000000000EC
:10B4600000000000000000000000000000000000DC
:10B4700000000000000000000000000000000000CC
:10BC300000000000000000530000000000000001B0
:10BC400001010101010101010101010101010101E4
:10BC500001010101010101010101010101010101D4
:10BC600001010101010101010101010101010101C4
:10BC700001010101010101010101010101010101B4
:10CA300001010101010101010101010101010100E7
:10CA400000000000000000000000000000000000E6
:10CA500000000000000000000000000000000000D6
:10CA600000000000000000000000000000000000C6
:10CA700000000000000000000000000000000000B6
:10CE300000000000000000000000000000000002F0
:10CE400002020202020202020202020202020202C2
:10CE500002020202020202020202020202020202B2
:10CE600002020202020202020202020202020202A2
:10CE70000202020202020202020202020202020292
:10DC300002020202020202020202020202020200C6
:10DC400000000000000000000000000000000000D4
:10DC500000000000000000000000000000000000C4
:10DC600000000000000000000000000000000000B4
:10DC700000000000000000000000000000000000A4
:10E7300000000000000000000000000000000001D8
:10E7400001010101010101010101010101010101B9
:10E7500001010101010101010101010101010101A9
:10E760000101010101010101010101010101010199
:10E770000101010101010101010101010101010189
:10F5300001010101010101010101010101010100BC
:10F5400000000000000000000000000000000000BB
:10F5500000000000000000000000000000000000AB
:10F56000000000000000000000000000000000009B
:10F57000000000000000000000000000000000008B
:10F9300000000000000000000000000000000002C5
:10F940000202020202020202020202020202020297
:10F950000202020202020202020202020202020287
:10F960000202020202020202020202020202020277
:10F970000202020202020202020202020202020267
:020000025000AC
:10073000020202020202020202020202020202009B
:1007400000000000000000000000000000000000A9
:100750000000000000000000000000000000000099
:100760000000000000000000000000000000000089
:100770000000000000000000000000000000000079
:100F3000000000000000000000000000000000535E
:100F40000000000000000001010101010101010198
:100F50000101010101010101010101010101010181
:100F60000101010101010101010101010101010171
:100F70000101010101010101010101010101010161
:100F80000101010101010101010101010101010151
:101D4000010101010101010000000000000000008C
:101D50000000000000000000000000000000000083
:101D60000000000000000000000000000000000073
:101D70000000000000000000000000000000000063
:101D80000000000000000000000000000000000053
:10214000000000000000000202020202020202027D
:10215000020202020202020202020202020202025F
:10216000020202020202020202020202020202024F
:10217000020202020202020202020202020202023F
:10218000020202020202020202020202020202022F
:102F40000202020202020200000000000000000073
:102F50000000000000000000000000000000000071
:102F60000000000000000000000000000000000061
:102F70000000000000000000000000000000000051
:102F80000000000000000000000000000000000041
:103A4000000000000000000101010101010101016D
:103A50000101010101010101010101010101010156
:103A60000101010101010101010101010101010146
:103A70000101010101010101010101010101010136
:103A80000101010101010101010101010101010126
:104840000101010101010100000000000000000061
:104850000000000000000000000000000000000058
:104860000000000000000000000000000000000048
:104870000000000000000000000000000000000038
:104880000000000000000000000000000000000028
:104C40000000000000000002020202020202020252
:104C50000202020202020202020202020202020234
:104C60000202020202020202020202020202020224
:104C70000202020202020202020202020202020214
:104C80000202020202020202020202020202020204
:105A40000202020202020200000000000000000048
:105A50000000000000000000000000000000000046
:105A60000000000000000000000000000000000036
:105A70000000000000000000000000000000000026
:105A80000000000000000000000000000000000016
:1062400000000000000000786205000000000080EF
:106250009305000000000088BD05000000000090CC
:10626000E30500000000009809060000000000A0FF
:1062700026060000000000A83F060000000000B055
:1062800055060000000000B86B060000000000C0CA
:1062900081060000000000C897060000000000D042
:1062A000AD060000000000D8C3060000000000E0BA
:1062B000D9060000000000310000000000000000CE
:1062C00000000000000000000000000000000100CD
:1062D00000000000000000000000000000000000BE
:1062E00000000000000000000000000000000000AE
:1062F000000000000000000000000000000000009E
:10630000000000000000000000000000000000008D
:10631000000000000000000000000000000000007D
:10632000000000000000000000000000000000006D
:10633000000000000000000000000000000000005D
:10634000000000000000000000000000000000004D
:10635000000000000000000000000000000000003D
:10636000000000000000000000000000000000002D
:10637000000000000000000000000000000000001D
:10638000000000000000000000000000000000000D
:1063900000000000000000000000000000000000FD
:1063A00000000000000000000000000000000002EB
:1063B00000000000000000000000010000000000DC
:1063C00000000000000000000000000000010100CB
:1063D00000000000000000000000000000000000BD
:1063E00000000000000000000000000000000000AD
:1063F000000000000000000000000000000000009D
:10640000000000000000000000000000000000008C
:10641000000000000000000000000000000000007C
:10642000000000000000000000000000000000006C
:10643000000000000000000000000000000000005C
:10644000000000000000000000000000000000004C
:10645000000000000000000000000000000000003C
:10646000000000000000000000000000000000002C
:10647000000000000000000000000000000000001C
:10648000000000000000000000000000000000000C
:1064900000000000000000000000000000000000FC
:1064A00000000000000000000000000000000002EA
:1064B00000000000000000000101010001010000D7
:1064C00000000000000000000000000000010100CA
:1064D00000000000000000000000000000000000BC
:1064E00000000000000000000000000000000000AC
:1064F000000000000000000000000000000000009C
:10650000000000000000000000000000000000008B
:10651000000000000000000000000000000000007B
:10652000000000000000000000000000000000006B
:10653000000000000000000000000000000000005B
:10654000000000000000000000000000000000004B
:10655000000000000000000000000000000000003B
:10656000000000000000000000000000000000002B
:10657000000000000000000000000000000000001B
:10658000000000000000000000000000000000000B
:1065900000000000000000000000000000000000FB
:1065A00000000000000000000000000000000002E9
:1065B00000000000000000000101010101010000D5
:1065C00000000000000000000000000000010100C9
:1065D00000000000000000000000000000000000BB
:1065E00000000000000000000000000000000000AB
:1065F000000000000000000000000000000000009B
:10660000000000000000000000000000000000008A
:10661000000000000000000000000000000000007A
:10662000000000000000000000000000000000006A
:10663000000000000000000000000000000000005A
:10664000000000000000000000000000000000004A
:10665000000000000000000000000000000000003A
:10666000000000000000000000000000000000002A
:10667000000000000000000000000000000000001A
:10668000000000000000000000000000000000000A
:1066900000000000000000000000000000000000FA
:1066A00000000000000000000000000000000002E8
:1066B00000000000000001000101010101010000D3
:1066C00000000000000000000000000000010100C8
:1066D00000000000000000000000000000000000BA
:1066E00000000000000000000000000000000000AA
:1066F000000000000000000000000000000000009A
:106700000000000000000000000000000000000089
:106710000000000000000000000000000000000079
:106720000000000000000000000000000000000069
:106730000000000000000000000000000000000059
:106740000000000000000000000000000000000049
:106750000000000000000000000000000000000039
:106760000000000000000000000000000000000029
:106770000000000000000000000000000000000019
:106780000000000000000000000000000000000009
:1067900000000000000000000000000000000000F9
:1067A00000000000000000000000000000000002E7
:1067B00000000000000001010101010101010000D1
:1067C00000000000000000000000000000010100C7
:1067D00000000000000000000000000000000000B9
:1067E00000000000000000000000000000000000A9
:1067F0000000000000000000000000000000000099
:106800000000000000000000000000000000000088
:106810000000000000000000000000000000000078
:106820000000000000000000000000000000000068
:106830000000000000000000000000000000000058
:106840000000000000000000000000000000000048
:106850000000000000000000000000000000000038
:106860000000000000000000000000000000000028
:106870000000000000000000000000000000000018
:106880000000000000000000000000000000000008
:1068900000000000000000000000000000000000F8
:1068A00000000000000000000000000000000002E6
:1068B00000000000000101010101010101010000CF
:1068C00000000000000000000000000000010100C6
:1068D00000000000000000000000000000000000B8
:1068E00000000000000000000000000000000000A8
:1068F0000000000000000000000000000000000098
:106900000000000000000000000000000000000087
:106910000000000000000000000000000000000077
:106920000000000000000000000000000000000067
:106930000000000000000000000000000000000057
:106940000000000000000000000000000000000047
:106950000000000000000000000000000000000037
:106960000000000000000000000000000000000027
:106970000000000000000000000000000000000017
:106980000000000000000000000000000000000007
:1069900000000000000000000000000000000000F7
:1069A00000000000000000000000000000000002E5
:1069B00000000000000101010101010101010000CE
:1069C00000000000000000000000000000010100C5
:1069D00000000000000000000000000000000000B7
:1069E00000000000000000000000000000000000A7
:1069F0000000000000000000000000000000000097
:106A00000000000000000000000000000000000086
:106A10000000000000000000000000000000000076
:106A20000000000000000000000000000000000066
:106A30000000000000000000000000000000000056
:106A40000000000000000000000000000000000046
:106A50000000000000000000000000000000000036
:106A60000000000000000000000000000000000026
:106A70000000000000000000000000000000000016
:106A80000000000000000000000000000000000006
:106A900000000000000000000000000000000000F6
:106AA00000000000000000000000000000000002E4
:106AB00002000000000101010101010101010000CB
:106AC00000000000000000000000000000010100C4
:106AD00000000000000000000000000000000000B6
:106AE00000000000000000000000000000000000A6
:106AF0000000000000000000000000000000000096
:106B00000000000000000000000000000000000085
:106B10000000000000000000000000000000000075
:106B20000000000000000000000000000000000065
:106B30000000000000000000000000000000000055
:106B40000000000000000000000000000000000045
:106B50000000000000000000000000000000000035
:106B60000000000000000000000000000000000025
:106B70000000000000000000000000000000000015
:106B80000000000000000000000000000000000005
:106B900000000000000000000000000000000000F5
:106BA00000000000000000000000000000000002E3
:106BB00002000000000101010101010101010000CA
:106BC00000000000000000000000000000010100C3
:106BD00000000000000000000000000000000000B5
:106BE00000000000000000000000000000000000A5
:106BF0000000000000000000000000000000000095
:106C00000000000000000000000000000000000084
:106C10000000000000000000000000000000000074
:106C20000000000000000000000000000000000064
:106C30000000000000000000000000000000000054
:106C40000000000000000000000000000000000044
:106C50000000000000000000000000000000000034
:106C60000000000000000000000000000000000024
:106C70000000000000000000000000000000000014
:106C80000000000000000000000000000000000004
:106C900000000000000000000000000000000000F4
:106CA00000000000000000000000000000000002E2
:106CB00002020000000101010101010101010000C7
:106CC00000000000000000000000000000010100C2
:106CD00000000000000000000000000000000000B4
:106CE00000000000000000000000000000000000A4
:106CF0000000000000000000000000000000000094
:106D00000000000000000000000000000000000083
:106D10000000000000000000000000000000000073
:106D20000000000000000000000000000000000063
:106D30000000000000000000000000000000000053
:106D40000000000000000000000000000000000043
:106D50000000000000000000000000000000000033
:106D60000000000000000000000000000000000023
:106D70000000000000000000000000000000000013
:106D80000000000000000000000000000000000003
:106D900000000000000000000000000000000000F3
:106DA00000000000000000000000000000000002E1
:106DB00002020000000101010101010101010000C6
:106DC00000000000000000000000000001010100C0
:106DD00000000000000000000000000000000000B3
:106DE00000000000000000000000000000000000A3
:106DF0000000000000000000000000000000000093
:106E00000000000000000000000000000000000082
:106E10000000000000000000000000000000000072
:106E20000000000000000000000000000000000062
:106E30000000000000000000000000000000000052
:106E40000000000000000000000000000000000042
:106E50000000000000000000000000000000000032
:106E60000000000000000000000000000000000022
:106E70000000000000000000000000000000000012
:106E80000000000000000000000000000000000002
:106E900000000000000000000000000000000000F2
:106EA00000000000000000000000000000000002E0
:106EB00002020001000101010101010101010000C4
:106EC00000000000000000000000010101010100BD
:106ED00000000000000000000000000000000000B2
:106EE00000000000000000000000000000000000A2
:106EF0000000000000000000000000000000000092
:106F00000000000000000000000000000000000081
:106F10000000000000000000000000000000000071
:106F20000000000000000000000000000000000061
:106F30000000000000000000000000000000000051
:106F40000000000000000000000000000000000041
:106F50000000000000000000000000000000000031
:106F60000000000000000000000000000000000021
:106F70000000000000000000000000000000000011
:106F80000000000000000000000000000000000001
:106F900000000000000000000000000000000000F1
:106FA00000000000000000000000000000000002DF
:106FB00002020201010101010101010101010000C0
:106FC00000000000000000000000010101010100BC
:106FD00000000000000000000000000000000000B1
:106FE00000000000000000000000000000000000A1
:106FF0000000000000000000000000000000000091
:107000000000000000000000000000000000000080
:107010000000000000000000000000000000000070
:107020000000000000000000000000000000000060
:107030000000000000000000000000000000000050
:107040000000000000000000000000000000000040
:107050000000000000000000000000000000000030
:107060000000000000000000000000000000000020
:107070000000000000000000000000000000000010
:107080000000000000000000000000000000000000
:1070900000000000000000000000000000000000F0
:1070A00000000000000000000000000000000002DE
:1070B00002020202010202010101010101010000BC
:1070C00000000000000000000000010101010100BB
:1070D00000000000000000000000000000000000B0
:1070E00000000000000000000000000000000000A0
:1070F0000000000000000000000000000000000090
:10710000000000000000000000000000000000007F
:10711000000000000000000000000000000000006F
:10712000000000000000000000000000000000005F
:10713000000000000000000000000000000000004F
:10714000000000000000000000000000000000003F
:10715000000000000000000000000000000000002F
:10716000000000000000000000000000000000001F
:10717000000000000000000000000000000000000F
:1071800000000000000000000000000000000000FF
:1071900000000000000000000000000000000000EF
:1071A00000000000000000000000000000000002DD
:1071B00002020202010202010101010101010000BB
:1071C00000000000000000000001010101010100B9
:1071D00000000000000000000000000000000000AF
:1071E000000000000000000000000000000000009F
:1071F000000000000000000000000000000000008F
:10720000000000000000000000000000000000007E
:10721000000000000000000000000000000000006E
:10722000000000000000000000000000000000005E
:10723000000000000000000000000000000000004E
:10724000000000000000000000000000000000003E
:10725000000000000000000000000000000000002E
:10726000000000000000000000000000000000001E
:10727000000000000000000000000000000000000E
:1072800000000000000000000000000000000000FE
:1072900000000000000000000000000000000000EE
:1072A00000000000000000000000000000000002DC
:1072B00002020202020202020201010101010000B7
:1072C00000000000000000000001010101010100B8
:1072D00000000000000000000000000000000000AE
:1072E000000000000000000000000000000000009E
:1072F000000000000000000000000000000000008E
:10730000000000000000000000000000000000007D
:10731000000000000000000000000000000000006D
:10732000000000000000000000000000000000005D
:10733000000000000000000000000000000000004D
:10734000000000000000000000000000000000003D
:10735000000000000000000000000000000000002D
:10736000000000000000000000000000000000001D
:10737000000000000000000000000000000000000D
:1073800000000000000000000000000000000000FD
:1073900000000000000000000000000000000000ED
:1073A00000000000000000000000000000000002DB
:1073B00002020202020202020201010101010000B6
:1073C00000000000000000000001010101010100B7
:1073D00000000000000000000000000000000000AD
:1073E000000000000000000000000000000000009D
:1073F000000000000000000000000000000000008D
:10740000000000000000000000000000000000007C
:10741000000000000000000000000000000000006C
:10742000000000000000000000000000000000005C
:10743000000000000000000000000000000000004C
:10744000000000000000000000000000000000003C
:10745000000000000000000000000000000000002C
:10746000000000000000000000000000000000001C
:10747000000000000000000000000000000000000C
:1074800000000000000000000000000000000000FC
:1074900000000000000000000000000000000000EC
:1074A00000000000000000000000000000000002DA
:1074B00002020202020202020202010101010000B4
:1074C00000000000000000000001010101010100B6
:1074D00000000000000000000000000000000000AC
:1074E000000000000000000000000000000000009C
:1074F000000000000000000000000000000000008C
:10750000000000000000000000000000000000007B
:10751000000000000000000000000000000000006B
:10752000000000000000000000000000000000005B
:10753000000000000000000000000000000000004B
:10754000000000000000000000000000000000003B
:10755000000000000000000000000000000000002B
:10756000000000000000000000000000000000001B
:10757000000000000000000000000000000000000B
:1075800000000000000000000000000000000000FB
:1075900000000000000000000000000000000000EB
:1075A00000000000000000000000000000000002D9
:1075B00002020202020202020202020101010000B2
:1075C00000000000000000000101010101010100B4
:1075D00000000000000000000000000000000000AB
:1075E000000000000000000000000000000000009B
:1075F000000000000000000000000000000000008B
:10760000000000000000000000000000000000007A
:10761000000000000000000000000000000000006A
:10762000000000000000000000000000000000005A
:10763000000000000000000000000000000000004A
:10764000000000000000000000000000000000003A
:10765000000000000000000000000000000000002A
:10766000000000000000000000000000000000001A
:10767000000000000000000000000000000000000A
:1076800000000000000000000000000000000000FA
:1076900000000000000000000000000000000000EA
:1076A00000000000000000000000000000000002D8
:1076B00002020202020202020202020202010000AF
:1076C00000000000000000000101010101010100B3
:1076D00000000000000000000000000000000000AA
:1076E000000000000000000000000000000000009A
:1076F000000000000000000000000000000000008A
:107700000000000000000000000000000000000079
:107710000000000000000000000000000000000069
:107720000000000000000000000000000000000059
:107730000000000000000000000000000000000049
:107740000000000000000000000000000000000039
:107750000000000000000000000000000000000029
:107760000000000000000000000000000000000019
:107770000000000000000000000000000000000009
:1077800000000000000000000000000000000000F9
:1077900000000000000000000000000000000000E9
:1077A00000000000000000000000000000000002D7
:1077B00002020202020202020202020202010000AE
:1077C00000000000000000000101010101010100B2
:1077D00000000000000000000000000000000000A9
:1077E0000000000000000000000000000000000099
:1077F0000000000000000000000000000000000089
:107800000000000000000000000000000000000078
:107810000000000000000000000000000000000068
:107820000000000000000000000000000000000058
:107830000000000000000000000000000000000048
:107840000000000000000000000000000000000038
:107850000000000000000000000000000000000028
:107860000000000000000000000000000000000018
:107870000000000000000000000000000000000008
:1078800000000000000000000000000000000000F8
:1078900000000000000000000000000000000000E8
:1078A00000000000000000000000000000000002D6
:1078B00002020202020202020202020202010000AD
:1078C00000000000000000010101010101010100B0
:1078D00000000000000000000000000000000000A8
:1078E0000000000000000000000000000000000098
:1078F0000000000000000000000000000000000088
:107900000000000000000000000000000000000077
:107910000000000000000000000000000000000067
:107920000000000000000000000000000000000057
:107930000000000000000000000000000000000047
:107940000000000000000000000000000000000037
:107950000000000000000000000000000000000027
:107960000000000000000000000000000000000017
:107970000000000000000000000000000000000007
:1079800000000000000000000000000000000000F7
:1079900000000000000000000000000000000000E7
:1079A00000000000000000000000000000000002D5
:1079B00002020202020202020202020202010000AC
:1079C00000000000000000010101010101010100AF
:1079D00000000000000000000000000000000000A7
:1079E0000000000000000000000000000000000097
:1079F0000000000000000000000000000000000087
:107A00000000000000000000000000000000000076
:107A10000000000000000000000000000000000066
:107A20000000000000000000000000000000000056
:107A30000000000000000000000000000000000046
:107A40000000000000000000000000000000000036
:107A50000000000000000000000000000000000026
:107A60000000000000000000000000000000000016
:107A70000000000000000000000000000000000006
:107A800000000000000000000000000000000000F6
:107A900000000000000000000000000000000000E6
:107AA00000000000000000000000000000000002D4
:107AB00002020202020202020202020202010000AB
:107AC00000000000000000010101010101010100AE
:107AD00000000000000000000000000000000000A6
:107AE0000000000000000000000000000000000096
:107AF0000000000000000000000000000000000086
:107B00000000000000000000000000000000000075
:107B10000000000000000000000000000000000065
:107B20000000000000000000000000000000000055
:107B30000000000000000000000000000000000045
:107B40000000000000000000000000000000000035
:107B50000000000000000000000000000000000025
:107B60000000000000000000000000000000000015
:107B70000000000000000000000000000000000005
:107B800000000000000000000000000000000000F5
:107B900000000000000000000000000000000000E5
:107BA00000000000000000000000000000000002D3
:107BB00002020202020202020202020202020000A9
:107BC00000000000000001010101010101010100AC
:107BD00000000000000000000000000000000000A5
:107BE0000000000000000000000000000000000095
:107BF0000000000000000000000000000000000085
:107C00000000000000000000000000000000000074
:107C10000000000000000000000000000000000064
:107C20000000000000000000000000000000000054
:107C30000000000000000000000000000000000044
:107C40000000000000000000000000000000000034
:107C50000000000000000000000000000000000024
:107C60000000000000000000000000000000000014
:107C70000000000000000000000000000000000004
:107C800000000000000000000000000000000000F4
:107C900000000000000000000000000000000000E4
:107CA00000000000000000000000000000000002D2
:107CB00002020202020202020202020202020000A8
:107CC00000000000000001010101010101010100AB
:107CD00000000000000000000000000000000000A4
:107CE0000000000000000000000000000000000094
:107CF0000000000000000000000000000000000084
:107D00000000000000000000000000000000000073
:107D10000000000000000000000000000000000063
:107D20000000000000000000000000000000000053
:107D30000000000000000000000000000000000043
:107D40000000000000000000000000000000000033
:107D50000000000000000000000000000000000023
:107D60000000000000000000000000000000000013
:107D70000000000000000000000000000000000003
:107D800000000000000000000000000000000000F3
:107D900000000000000000000000000000000000E3
:107DA00000000000000000000000000000000002D1
:107DB00002020202020202020202020202020000A7
:107DC00000000000000101010101010101010100A9
:107DD00000000000000000000000000000000000A3
:107DE0000000000000000000000000000000000093
:107DF0000000000000000000000000000000000083
:107E00000000000000000000000000000000000072
:107E10000000000000000000000000000000000062
:107E20000000000000000000000000000000000052
:107E30000000000000000000000000000000000042
:107E40000000000000000000000000000000000032
:107E50000000000000000000000000000000000022
:107E60000000000000000000000000000000000012
:107E70000000000000000000000000000000000002
:107E800000000000000000000000000000000000F2
:107E900000000000000000000000000000000000E2
:107EA00000000000000000000000000000000002D0
:107EB00002020202020202020202020202020000A6
:107EC00000000000000101010101010101010100A8
:107ED00000000000000000000000000000000000A2
:107EE0000000000000000000000000000000000092
:107EF0000000000000000000000000000000000082
:107F00000000000000000000000000000000000071
:107F10000000000000000000000000000000000061
:107F20000000000000000000000000000000000051
:107F30000000000000000000000000000000000041
:107F40000000000000000000000000000000000031
:107F50000000000000000000000000000000000021
:107F60000000000000000000000000000000000011
:107F70000000000000000000000000000000000001
:107F800000000000000000000000000000000000F1
:107F900000000000000000000000000000000000E1
:107FA00000000000000000000000000000000002CF
:107FB00002020202020202020202020202020000A5
:107FC00000000000000101010101010101010100A7
:107FD00000000000000000000000000000000000A1
:107FE0000000000000000000000000000000000091
:107FF0000000000000000000000000000000000081
:108000000000000000000000000000000000000070
:108010000000000000000000000000000000000060
:108020000000000000000000000000000000000050
:108030000000000000000000000000000000000040
:108040000000000000000000000000000000000030
:108050000000000000000000000000000000000020
:108060000000000000000000000000000000000010
:108070000000000000000000000000000000000000
:1080800000000000000000000000000000000000F0
:1080900000000000000000000000000000000000E0
:1080A00000000000000000000000000000000002CE
:1080B00002020202020202020202020202020000A4
:1080C00000000000010101010101010101010100A5
:1080D00000000000000000000000000000000000A0
:1080E0000000000000000000000000000000000090
:1080F0000000000000000000000000000000000080
:10810000000000000000000000000000000000006F
:10811000000000000000000000000000000000005F
:10812000000000000000000000000000000000004F
:10813000000000000000000000000000000000003F
:10814000000000000000000000000000000000002F
:10815000000000000000000000000000000000001F
:10816000000000000000000000000000000000000F
:1081700000000000000000000000000000000000FF
:1081800000000000000000000000000000000000EF
:1081900000000000000000000000000000000000DF
:1081A00000000000000000000000000000000002CD
:1081B00002020202020202020202020202020000A3
:1081C00000000000010101010101010101010100A4
:1081D000000000000000000000000000000000009F
:1081E000000000000000000000000000000000008F
:1081F000000000000000000000000000000000007F
:10820000000000000000000000000000000000006E
:10821000000000000000000000000000000000005E
:10822000000000000000000000000000000000004E
:10823000000000000000000000000000000000003E
:10824000000000000000000000000000000000002E
:10825000000000000000000000000000000000001E
:10826000000000000000000000000000000000000E
:1082700000000000000000000000000000000000FE
:1082800000000000000000000000000000000000EE
:1082900000000000000000000000000000000000DE
:1082A00000000000000000000000000000000002CC
:1082B00002020202020202020202020202020000A2
:1082C00000000000010101010101010101010100A3
:1082D000000000000000000000000000000000009E
:1082E000000000000000000000000000000000008E
:1082F000000000000000000000000000000000007E
:10830000000000000000000000000000000000006D
:10831000000000000000000000000000000000005D
:10832000000000000000000000000000000000004D
:10833000000000000000000000000000000000003D
:10834000000000000000000000000000000000002D
:10835000000000000000000000000000000000001D
:10836000000000000000000000000000000000000D
:1083700000000000000000000000000000000000FD
:1083800000000000000000000000000000000000ED
:1083900000000000000000000000000000000000DD
:1083A00000000000000000000000000000000002CB
:1083B00002020202020202020202020202020000A1
:1083C00000000001010101010101010101010100A1
:1083D000000000000000000000000000000000009D
:1083E000000000000000000000000000000000008D
:1083F000000000000000000000000000000000007D
:10840000000000000000000000000000000000006C
:10841000000000000000000000000000000000005C
:10842000000000000000000000000000000000004C
:10843000000000000000000000000000000000003C
:10844000000000000000000000000000000000002C
:10845000000000000000000000000000000000001C
:10846000000000000000000000000000000000000C
:1084700000000000000000000000000000000000FC
:1084800000000000000000000000000000000000EC
:1084900000000000000000000000000000000000DC
:1084A00000000000000000000000000000000002CA
:1084B00002020202020202020202020202020000A0
:1084C00000000001010101010101010101010100A0
:1084D000000000000000000000000000000000009C
:1084E000000000000000000000000000000000008C
:1084F000000000000000000000000000000000007C
:10850000000000000000000000000000000000006B
:10851000000000000000000000000000000000005B
:10852000000000000000000000000000000000004B
:10853000000000000000000000000000000000003B
:10854000000000000000000000000000000000002B
:10855000000000000000000000000000000000001B
:10856000000000000000000000000000000000000B
:1085700000000000000000000000000000000000FB
:1085800000000000000000000000000000000000EB
:1085900000000000000000000000000000000000DB
:1085A00000000000000000000000000000000002C9
:1085B000020202020202020202020202020200009F
:1085C000000000010101010101010101010101009F
:1085D000000000000000000000000000000000009B
:1085E000000000000000000000000000000000008B
:1085F000000000000000000000000000000000007B
:10860000000000000000000000000000000000006A
:10861000000000000000000000000000000000005A
:10862000000000000000000000000000000000004A
:10863000000000000000000000000000000000003A
:10864000000000000000000000000000000000002A
:10865000000000000000000000000000000000001A
:10866000000000000000000000000000000000000A
:1086700000000000000000000000000000000000FA
:1086800000000000000000000000000000000000EA
:1086900000000000000000000000000000000000DA
:1086A00000000000000000000000000000000002C8
:1086B000020202020202020202020202020200009E
:1086C000000001010101010101010101010101009D
:1086D000000000000000000000000000000000009A
:1086E000000000000000000000000000000000008A
:1086F000000000000000000000000000000000007A
:108700000000000000000000000000000000000069
:108710000000000000000000000000000000000059
:108720000000000000000000000000000000000049
:108730000000000000000000000000000000000039
:108740000000000000000000000000000000000029
:108750000000000000000000000000000000000019
:108760000000000000000000000000000000000009
:1087700000000000000000000000000000000000F9
:1087800000000000000000000000000000000000E9
:1087900000000000000000000000000000000000D9
:1087A00000000000000000000000000000000002C7
:1087B000020202020202020202020202020200009D
:1087C000000001010101010101010101010101009C
:1087D0000000000000000000000000000000000099
:1087E0000000000000000000000000000000000089
:1087F0000000000000000000000000000000000079
:108800000000000000000000000000000000000068
:108810000000000000000000000000000000000058
:108820000000000000000000000000000000000048
:108830000000000000000000000000000000000038
:108840000000000000000000000000000000000028
:108850000000000000000000000000000000000018
:108860000000000000000000000000000000000008
:1088700000000000000000000000000000000000F8
:1088800000000000000000000000000000000000E8
:1088900000000000000000000000000000000000D8
:1088A00000000000000000000000000000000002C6
:1088B000020202020202020202020202020200009C
:1088C000000001010101010101010101010101009B
:1088D0000000000000000000000000000000000098
:1088E0000000000000000000000000000000000088
:1088F0000000000000000000000000000000000078
:108900000000000000000000000000000000000067
:108910000000000000000000000000000000000057
:108920000000000000000000000000000000000047
:108930000000000000000000000000000000000037
:108940000000000000000000000000000000000027
:108950000000000000000000000000000000000017
:108960000000000000000000000000000000000007
:1089700000000000000000000000000000000000F7
:1089800000000000000000000000000000000000E7
:1089900000000000000000000000000000000000D7
:1089A00000000000000000000000000000000002C5
:1089B000020202020202020202020202020200009B
:1089C0000001010101010101010101010101010099
:1089D0000000000000000000000000000000000097
:1089E0000000000000000000000000000000000087
:1089F0000000000000000000000000000000000077
:108A00000000000000000000000000000000000066
:108A10000000000000000000000000000000000056
:108A20000000000000000000000000000000000046
:108A30000000000000000000000000000000000036
:108A40000000000000000000000000000000000026
:108A50000000000000000000000000000000000016
:108A60000000000000000000000000000000000006
:108A700000000000000000000000000000000000F6
:108A800000000000000000000000000000000000E6
:108A900000000000000000000000000000000000D6
:108AA00000000000000000000000000000000002C4
:108AB000020202020202020202020202020200009A
:108AC0000001010101010101010101010101010098
:108AD0000000000000000000000000000000000096
:108AE0000000000000000000000000000000000086
:108AF0000000000000000000000000000000000076
:108B00000000000000000000000000000000000065
:108B10000000000000000000000000000000000055
:108B20000000000000000000000000000000000045
:108B30000000000000000000000000000000000035
:108B40000000000000000000000000000000000025
:108B50000000000000000000000000000000000015
:108B60000000000000000000000000000000000005
:108B700000000000000000000000000000000000F5
:108B800000000000000000000000000000000000E5
:108B900000000000000000000000000000000000D5
:108BA00000000000000000000000000000000002C3
:108BB0000202020202020202020202020202000099
:108BC0000101010101010101010101010101010096
:108BD0000000000000000000000000000000000095
:108BE0000000000000000000000000000000000085
:108BF0000000000000000000000000000000000075
:108C00000000000000000000000000000000000064
:108C10000000000000000000000000000000000054
:108C20000000000000000000000000000000000044
:108C30000000000000000000000000000000000034
:108C40000000000000000000000000000000000024
:108C50000000000000000000000000000000000014
:108C60000000000000000000000000000000000004
:108C700000000000000000000000000000000000F4
:108C800000000000000000000000000000000000E4
:108C900000000000000000000000000000000000D4
:108CA00000000000000000000000000000000002C2
:108CB0000202020202020202020202020202000098
:108CC0000101010101010101010101010101010095
:108CD0000000000000000000000000000000000094
:108CE0000000000000000000000000000000000084
:108CF0000000000000000000000000000000000074
:108D00000000000000000000000000000000000063
:108D10000000000000000000000000000000000053
:108D20000000000000000000000000000000000043
:108D30000000000000000000000000000000000033
:108D40000000000000000000000000000000000023
:108D50000000000000000000000000000000000013
:108D60000000000000000000000000000000000003
:108D700000000000000000000000000000000000F3
:108D800000000000000000000000000000000000E3
:108D900000000000000000000000000000000000D3
:108DA00000000000000000000000000000000002C1
:108DB0000202020202020202020202020202000097
:108DC0000101010101010101010101010101010094
:108DD0000000000000000000000000000000000093
:108DE0000000000000000000000000000000000083
:108DF0000000000000000000000000000000000073
:108E00000000000000000000000000000000000062
:108E10000000000000000000000000000000000052
:108E20000000000000000000000000000000000042
:108E30000000000000000000000000000000000032
:108E40000000000000000000000000000000000022
:108E50000000000000000000000000000000000012
:108E60000000000000000000000000000000000002
:108E700000000000000000000000000000000000F2
:108E800000000000000000000000000000000000E2
:108E900000000000000000000000000000000000D2
:108EA00000000000000000000000000000000002C0
:108EB0000202020202020202020202020202000096
:108EC0000101010101010101010101010101010093
:108ED0000000000000000000000000000000000092
:108EE0000000000000000000000000000000000082
:108EF0000000000000000000000000000000000072
:108F00000000000000000000000000000000000061
:108F10000000000000000000000000000000000051
:108F20000000000000000000000000000000000041
:108F30000000000000000000000000000000000031
:108F40000000000000000000000000000000000021
:108F50000000000000000000000000000000000011
:108F60000000000000000000000000000000000001
:108F700000000000000000000000000000000000F1
:108F800000000000000000000000000000000000E1
:108F900000000000000000000000000000000000D1
:108FA00000000000000000000000000000000002BF
:108FB0000202020202020202020202020202000095
:108FC0000101010101010101010101010101010092
:108FD0000000000000000000000000000000000091
:108FE0000000000000000000000000000000000081
:108FF0000000000000000000000000000000000071
:109000000000000000000000000000000000000060
:109010000000000000000000000000000000000050
:109020000000000000000000000000000000000040
:109030000000000000000000000000000000000030
:109040000000000000000000000000000000000020
:109050000000000000000000000000000000000010
:109060000000000000000000000000000000000000
:1090700000000000000000000000000000000000F0
:1090800000000000000000000000000000000000E0
:1090900000000000000000000000000000000000D0
:1090A00000000000000000000000000000000002BE
:1090B0000202020202020202020202020202000094
:1090C0000101010101010101010101010101010091
:1090D0000000000000000000000000000000000090
:1090E0000000000000000000000000000000000080
:1090F0000000000000000000000000000000000070
:10910000000000000000000000000000000000005F
:10911000000000000000000000000000000000004F
:10912000000000000000000000000000000000003F
:10913000000000000000000000000000000000002F
:10914000000000000000000000000000000000001F
:10915000000000000000000000000000000000000F
:1091600000000000000000000000000000000000FF
:1091700000000000000000000000000000000000EF
:1091800000000000000000000000000000000000DF
:1091900000000000000000000000000000000000CF
:1091A00000000000000000000000000000000002BD
:1091B0000202020202020202020202020202000093
:1091C0000101010101010101010101010101010090
:1091D000000000000000000000000000000000008F
:1091E000000000000000000000000000000000007F
:1091F000000000000000000000000000000000006F
:10920000000000000000000000000000000000005E
:10921000000000000000000000000000000000004E
:10922000000000000000000000000000000000003E
:10923000000000000000000000000000000000002E
:10924000000000000000000000000000000000001E
:10925000000000000000000000000000000000000E
:1092600000000000000000000000000000000000FE
:1092700000000000000000000000000000000000EE
:1092800000000000000000000000000000000000DE
:1092900000000000000000000000000000000000CE
:1092A00000000000000000000000000000000002BC
:1092B0000202020202020202020202020202000092
:1092C000000000000000000000000000000000009E
:1092D000000000000000000000000000000000008E
:1092E000000000000000000000000000000000007E
:1092F000000000000000000000000000000000006E
:10930000000000000000000000000000000000005D
:10931000000000000000000000000000000000004D
:10932000000000000000000000000000000000003D
:10933000000000000000000000000000000000002D
:10934000000000000000000000000000000000001D
:10935000000000000000000000000000000000000D
:1093600000000000000000000000000000000000FD
:1093700000000000000000000000000000000000ED
:1093800000000000000000000000000000000000DD
:1093900000000000000000000000000000000000CD
:1093A00000000000000000000000000000000000BD
:1093B0000000000000000000000000000000002A83
:1093C000000000000000000000000000000000009D
:1093D000000000000000010000000000000000008C
:1093E000000000000000000000000000000000007D
:1093F000000000000000000000000000000000006D
:10940000000000000000000000000000000000005C
:10941000000000000000000000000000000000004C
:10942000000000000000000000000000000000003C
:10943000000000000000000000000000000000002C
:10944000000000000000000000000000000000001C
:10945000000000000000000000000000000000000C
:1094600000000000000000000000000000000000FC
:1094700000000000000000000000000000000000EC
:1094800000000000000000000000000000000000DC
:1094900000000000000000000000000000000000CC
:1094A00000000000000000000000000000000000BC
:1094B00000000000000000020000000000000000AA
:1094C000000000000000000000000000000000009C
:1094D000000000000000010000000000000000008B
:1094E000000000000000000000000000000000007C
:1094F000000000000000000000000000000000006C
:10950000000000000000000000000000000000005B
:10951000000000000000000000000000000000004B
:10952000000000000000000000000000000000003B
:10953000000000000000000000000000000000002B
:10954000000000000000000000000000000000001B
:10955000000000000000000000000000000000000B
:1095600000000000000000000000000000000000FB
:1095700000000000000000000000000000000000EB
:1095800000000000000000000000000000000000DB
:1095900000000000000000000000000000000000CB
:1095A00000000000000000000000000000000000BB
:1095B00000000000000000020000000000000000A9
:1095C000000000000000000000000000000000009B
:1095D000000000000000010000000000000000008A
:1095E000000000000000000000000000000000007B
:1095F000000000000000000000000000000000006B
:10960000000000000000000000000000000000005A
:10961000000000000000000000000000000000004A
:10962000000000000000000000000000000000003A
:10963000000000000000000000000000000000002A
:10964000000000000000000000000000000000001A
:10965000000000000000000000000000000000000A
:1096600000000000000000000000000000000000FA
:1096700000000000000000000000000000000000EA
:1096800000000000000000000000000000000000DA
:1096900000000000000000000000000000000000CA
:1096A00000000000000000000000000000000000BA
:1096B00000000000000000020000000000000000A8
:1096C000000000000000000000000000000000009A
:1096D0000000000000000100000000000000000089
:1096E000000000000000000000000000000000007A
:1096F000000000000000000000000000000000006A
:109700000000000000000000000000000000000059
:109710000000000000000000000000000000000049
:109720000000000000000000000000000000000039
:109730000000000000000000000000000000000029
:109740000000000000000000000000000000000019
:109750000000000000000000000000000000000009
:1097600000000000000000000000000000000000F9
:1097700000000000000000000000000000000000E9
:1097800000000000000000000000000000000000D9
:1097900000000000000000000000000000000000C9
:1097A00000000000000000000000000000000000B9
:1097B00000000000000000020200000000000000A5
:1097C0000000000000000000000000000000000099
:1097D0000000000000000100000000000000000088
:1097E0000000000000000000000000000000000079
:1097F0000000000000000000000000000000000069
:109800000000000000000000000000000000000058
:109810000000000000000000000000000000000048
:109820000000000000000000000000000000000038
:109830000000000000000000000000000000000028
:109840000000000000000000000000000000000018
:109850000000000000000000000000000000000008
:1098600000000000000000000000000000000000F8
:1098700000000000000000000000000000000000E8
:1098800000000000000000000000000000000000D8
:1098900000000000000000000000000000000000C8
:1098A00000000000000000000000000000000000B8
:1098B00000000000000000020200000000000000A4
:1098C0000000000000000000000000000000000098
:1098D0000000000000000100000000000000000087
:1098E0000000000000000000000000000000000078
:1098F0000000000000000000000000000000000068
:109900000000000000000000000000000000000057
:109910000000000000000000000000000000000047
:109920000000000000000000000000000000000037
:109930000000000000000000000000000000000027
:109940000000000000000000000000000000000017
:109950000000000000000000000000000000000007
:1099600000000000000000000000000000000000F7
:1099700000000000000000000000000000000000E7
:1099800000000000000000000000000000000000D7
:1099900000000000000000000000000000000000C7
:1099A00000000000000000000000000000000000B7
:1099B00000000000000000020200000000000000A3
:1099C0000000000000000000000000000000000097
:1099D0000000000000000100000000000000000086
:1099E0000000000000000000000000000000000077
:1099F0000000000000000000000000000000000067
:109A00000000000000000000000000000000000056
